Component: ARM Compiler 5.06 update 2 (build 183) Tool: armlink [4d35b7]

==============================================================================

Section Cross References

    main.o(i._Z11McpsConfirmP12sMcpsConfirm) refers to main.o(.data) for .data
    main.o(i._Z11McpsConfirmP12sMcpsConfirm) refers to main.o(.bss) for .bss
    main.o(i._Z11MlmeConfirmP12sMlmeConfirm) refers to main.o(.data) for .data
    main.o(i._Z11MlmeConfirmP12sMlmeConfirm) refers to main.o(.bss) for .bss
    main.o(i._Z14McpsIndicationP15sMcpsIndication) refers to loramac.o(i._Z27LoRaMacMibSetRequestConfirmP18eMibRequestConfirm) for LoRaMacMibSetRequestConfirm(eMibRequestConfirm*)
    main.o(i._Z14McpsIndicationP15sMcpsIndication) refers to loramac.o(i._Z18LoRaMacMlmeRequestP8sMlmeReq) for LoRaMacMlmeRequest(sMlmeReq*)
    main.o(i._Z14McpsIndicationP15sMcpsIndication) refers to timer.o(i._Z10TimerStartP12TimerEvent_s) for TimerStart(TimerEvent_s*)
    main.o(i._Z14McpsIndicationP15sMcpsIndication) refers to main.o(.bss) for .bss
    main.o(i._Z14McpsIndicationP15sMcpsIndication) refers to main.o(.data) for .data
    main.o(i._Z15SerialRxProcessv) refers to serialdisplay.o(i._Z21SerialDisplayReadablev) for SerialDisplayReadable()
    main.o(i._Z15SerialRxProcessv) refers to serialdisplay.o(i._Z20SerialDisplayGetCharv) for SerialDisplayGetChar()
    main.o(i._Z15SerialRxProcessv) refers to serialdisplay.o(i._Z17SerialDisplayInitv) for SerialDisplayInit()
    main.o(i._Z15SerialRxProcessv) refers to serialdisplay.o(i._Z33SerialDisplayUpdateActivationModeb) for SerialDisplayUpdateActivationMode(bool)
    main.o(i._Z15SerialRxProcessv) refers to serialdisplay.o(i._Z22SerialDisplayUpdateEuihPh) for SerialDisplayUpdateEui(unsigned char, unsigned char*)
    main.o(i._Z15SerialRxProcessv) refers to serialdisplay.o(i._Z22SerialDisplayUpdateKeyhPh) for SerialDisplayUpdateKey(unsigned char, unsigned char*)
    main.o(i._Z15SerialRxProcessv) refers to loramac.o(i._Z27LoRaMacMibGetRequestConfirmP18eMibRequestConfirm) for LoRaMacMibGetRequestConfirm(eMibRequestConfirm*)
    main.o(i._Z15SerialRxProcessv) refers to serialdisplay.o(i._Z34SerialDisplayUpdateNetworkIsJoinedb) for SerialDisplayUpdateNetworkIsJoined(bool)
    main.o(i._Z15SerialRxProcessv) refers to serialdisplay.o(i._Z22SerialDisplayUpdateAdrb) for SerialDisplayUpdateAdr(bool)
==============================================================================

Removing Unused input sections from the image.

    Removing main.o(.rev16_text), (4 bytes).
    Removing main.o(.revsh_text), (4 bytes).
    Removing main.o(i._Z15SerialRxProcessv), (124 bytes).
    Removing main.o(i._Z20SerialDisplayRefreshv), (104 bytes).
    Removing main.o(.ARM.exidx), (8 bytes).
    Removing main.o(.ARM.exidx), (8 bytes).
    Removing main.o(.ARM.exidx), (8 bytes).
    Removing main.o(.ARM.exidx), (8 bytes).
    Removing main.o(.ARM.exidx), (8 bytes).
    Removing main.o(.ARM.exidx), (8 bytes).
    Removing main.o(.ARM.exidx), (8 bytes).
    Removing main.o(.ARM.exidx), (8 bytes).
    Removing main.o(.ARM.exidx), (8 bytes).
    Removing main.o(.ARM.exidx), (8 bytes).
    Removing serialdisplay.o(.rev16_text), (4 bytes).
    Removing serialdisplay.o(.revsh_text), (4 bytes).
    Removing serialdisplay.o(i._Z24SerialDisplayUpdateNwkIdh), (44 bytes).
    Removing serialdisplay.o(i._Z26SerialDisplayUpdateDevAddrj), (76 bytes).
==============================================================================

Image Symbol Table

    Local Symbols

    Symbol Name                              Value     Ov Type        Size  Object(Section)

    ../../../clib/unwind_pr.c                0x00000000   Number         0  unwind_pr0.o ABSOLUTE
    ../../../clib/unwind_pr.c                0x00000000   Number         0  unwind_prcommon.o ABSOLUTE
    ../../../clib/unwinder.c                 0x00000000   Number         0  unwinder.o ABSOLUTE
    ../../../clib/unwinder.c                 0x00000000   Number         0  unwind_activity.o ABSOLUTE
    ../../../clib/unwinder.c                 0x00000000   Number         0  unwind_activity.o ABSOLUTE
    ../../../clib/unwinder.c                 0x00000000   Number         0  unwinder.o ABSOLUTE
    ../../../edgfe/lib_src/arm_exceptions.c  0x00000000   Number         0  arm_exceptions_terminate.o ABSOLUTE
    ../../../edgfe/lib_src/arm_exceptions.c  0x00000000   Number         0  arm_exceptions_support.o ABSOLUTE
    ../../../edgfe/lib_src/arm_exceptions.c  0x00000000   Number         0  arm_exceptions_mem.o ABSOLUTE
    ../../../edgfe/lib_src/arm_exceptions.c  0x00000000   Number         0  arm_exceptions_callterm.o ABSOLUTE
    ../../../edgfe/lib_src/arm_exceptions.c  0x00000000   Number         0  arm_exceptions_globs.o ABSOLUTE
    ../../../edgfe/lib_src/arm_noexceptions.c 0x00000000   Number         0  arm_callunex_noexceptions.o ABSOLUTE
    ../../../edgfe/lib_src/arm_noexceptions.c 0x00000000   Number         0  arm_begincatch_noexceptions.o ABSOLUTE
    ../../../edgfe/lib_src/arm_noexceptions.c 0x00000000   Number         0  arm_newhandler_noexceptions.o ABSOLUTE
    ../../../edgfe/lib_src/array_del.c       0x00000000   Number         0  array_del.o ABSOLUTE
    ../../../edgfe/lib_src/array_new.c       0x00000000   Number         0  array_new.o ABSOLUTE
    ../../../edgfe/lib_src/bad_alloc.c       0x00000000   Number         0  bad_alloc_dtor.o ABSOLUTE
    ../../../edgfe/lib_src/bad_alloc.c       0x00000000   Number         0  bad_alloc_what.o ABSOLUTE
    ../../../edgfe/lib_src/delete.c          0x00000000   Number         0  delete.o ABSOLUTE
    ../../../edgfe/lib_src/exception.c       0x00000000   Number         0  exception_dtor.o ABSOLUTE
    ../../../edgfe/lib_src/exception.c       0x00000000   Number         0  exception_what.o ABSOLUTE
    ../../../edgfe/lib_src/new.c             0x00000000   Number         0  new.o ABSOLUTE
    ../../../edgfe/lib_src/pure_virt.c       0x00000000   Number         0  pure_virt.o ABSOLUTE
    ../../../edgfe/lib_src/typeinfo.c        0x00000000   Number         0  lib_rtti_impl.o ABSOLUTE
    ../../../edgfe/lib_src/typeinfo.c        0x00000000   Number         0  type_info_dtor.o ABSOLUTE
    ../../array_helpers.cpp                  0x00000000   Number         0  aeabi_vec_ctor_nocookie_nodtor.o ABSOLUTE
    ../clib/../cmprslib/zerorunl2.c          0x00000000   Number         0  __dczerorl2.o ABSOLUTE
    ../clib/angel/boardlib.s                 0x00000000   Number         0  boardinit2.o ABSOLUTE
    ../clib/angel/boardlib.s                 0x00000000   Number         0  boardinit3.o ABSOLUTE
    ../clib/angel/boardlib.s                 0x00000000   Number         0  boardinit1.o ABSOLUTE
    ../clib/angel/handlers.s                 0x00000000   Number         0  __scatter_zi.o ABSOLUTE
    ../clib/angel/kernel.s                   0x00000000   Number         0  __rtentry2.o ABSOLUTE
    ../clib/angel/kernel.s                   0x00000000   Number         0  __rtentry4.o ABSOLUTE
    ../clib/angel/kernel.s                   0x00000000   Number         0  __rtentry.o ABSOLUTE
    ../clib/angel/rt.s                       0x00000000   Number         0  rt_new_handler_addr_intlibspace.o ABSOLUTE
    ../clib/angel/rt.s                       0x00000000   Number         0  rt_new_handler_addr.o ABSOLUTE
    ../clib/angel/rt.s                       0x00000000   Number         0  aeabi_idiv0_sigfpe.o ABSOLUTE
    ../clib/angel/rt.s                       0x00000000   Number         0  aeabi_idiv0.o ABSOLUTE
    ../clib/angel/rt.s                       0x00000000   Number         0  rt_locale.o ABSOLUTE
    ../clib/angel/rt.s                       0x00000000   Number         0  rt_ctype_table.o ABSOLUTE
    ../clib/angel/rt.s                       0x00000000   Number         0  rt_ddtor_pointer_addr_intlibspace.o ABSOLUTE
    ../clib/angel/rt.s                       0x00000000   Number         0  rt_div0.o ABSOLUTE
    ../clib/angel/rt.s                       0x00000000   Number         0  rt_raise.o ABSOLUTE
    ../clib/angel/rt.s                       0x00000000   Number         0  rt_heap_descriptor.o ABSOLUTE
    ../clib/angel/rt.s                       0x00000000   Number         0  rt_heap_descriptor_intlibspace.o ABSOLUTE
    ../clib/angel/rt.s                       0x00000000   Number         0  rt_errno_addr_intlibspace.o ABSOLUTE
    ../clib/angel/rt.s                       0x00000000   Number         0  rt_errno_addr.o ABSOLUTE
    ../clib/angel/rt.s                       0x00000000   Number         0  rt_eh_globals_addr_intlibspace.o ABSOLUTE
    ../clib/angel/rt.s                       0x00000000   Number         0  rt_eh_globals_addr.o ABSOLUTE
    ../clib/angel/rt.s                       0x00000000   Number         0  rt_locale_intlibspace.o ABSOLUTE
    ../clib/angel/rt.s                       0x00000000   Number         0  rt_ddtor_pointer_addr.o ABSOLUTE
    ../clib/angel/scatterp.s                 0x00000000   Number         0  __scatter.o ABSOLUTE
    ../clib/angel/startup.s                  0x00000000   Number         0  __main.o ABSOLUTE
    ../clib/angel/sys.s                      0x00000000   Number         0  libspace.o ABSOLUTE
    ../clib/angel/sys.s                      0x00000000   Number         0  use_no_semi.o ABSOLUTE
    ../clib/angel/sys.s                      0x00000000   Number         0  indicate_semi.o ABSOLUTE
    ../clib/angel/sys.s                      0x00000000   Number         0  mutex_dummy.o ABSOLUTE
    ../clib/angel/sysapp.c                   0x00000000   Number         0  sys_wrch.o ABSOLUTE
    ../clib/angel/sysapp.c                   0x00000000   Number         0  sys_exit.o ABSOLUTE
    ../clib/arm_runtime.c                    0x00000000   Number         0  init_aeabi.o ABSOLUTE
    ../clib/arm_runtime.c                    0x00000000   Number         0  init_aeabi.o ABSOLUTE
    ../clib/armsys.c                         0x00000000   Number         0  argv_veneer.o ABSOLUTE
    ../clib/armsys.c                         0x00000000   Number         0  _get_argv_nomalloc.o ABSOLUTE
    ../clib/armsys.c                         0x00000000   Number         0  _get_argv.o ABSOLUTE
    ../clib/armsys.c                         0x00000000   Number         0  no_argv.o ABSOLUTE
    ../clib/assert.c                         0x00000000   Number         0  assert_stdio.o ABSOLUTE
    ../clib/bigflt.c                         0x00000000   Number         0  bigflt0.o ABSOLUTE
    ../clib/btod.c                           0x00000000   Number         0  btod.o ABSOLUTE
    ../clib/ctype.c                          0x00000000   Number         0  isspace.o ABSOLUTE
    ../clib/division.c                       0x00000000   Number         0  rtudiv10.o ABSOLUTE
    ../clib/division.c                       0x00000000   Number         0  lludiv10.o ABSOLUTE
    ../clib/division.s                       0x00000000   Number         0  aeabi_sdivfast.o ABSOLUTE
    ../clib/division.s                       0x00000000   Number         0  aeabi_sdivfast_div0.o ABSOLUTE
    ../clib/heap1.c                          0x00000000   Number         0  h1_extend_mt.o ABSOLUTE
    ../clib/heap1.c                          0x00000000   Number         0  h1_extend.o ABSOLUTE
    ../clib/heap1.c                          0x00000000   Number         0  h1_init.o ABSOLUTE
    ../clib/heap1.c                          0x00000000   Number         0  h1_init_mt.o ABSOLUTE
    ../clib/heap1.c                          0x00000000   Number         0  h1_final_mt.o ABSOLUTE
    ../clib/heap1.c                          0x00000000   Number         0  h1_alloc_mt.o ABSOLUTE
    ../clib/heap1.c                          0x00000000   Number         0  h1_alloc.o ABSOLUTE
    ../clib/heap1.c                          0x00000000   Number         0  h1_free_mt.o ABSOLUTE
    ../clib/heap1.c                          0x00000000   Number         0  h1_final.o ABSOLUTE
    ../clib/heap1.c                          0x00000000   Number         0  h1_free.o ABSOLUTE
    ../clib/heap2.c                          0x00000000   Number         0  fdtree.o ABSOLUTE
    ../clib/heap2.c                          0x00000000   Number         0  heap2.o ABSOLUTE
    ../clib/heap2.c                          0x00000000   Number         0  heap2mt.o ABSOLUTE
    ../clib/heapalloc.c                      0x00000000   Number         0  term_alloc.o ABSOLUTE
    ../clib/heapalloc.c                      0x00000000   Number         0  maybetermalloc1.o ABSOLUTE
    ../clib/heapalloc.c                      0x00000000   Number         0  malloc.o ABSOLUTE
    ../clib/heapalloc.c                      0x00000000   Number         0  maybetermalloc2.o ABSOLUTE
    ../clib/heapalloc.c                      0x00000000   Number         0  maybetermalloc2.o ABSOLUTE
    ../clib/heapalloc.c                      0x00000000   Number         0  maybetermalloc1.o ABSOLUTE
    ../clib/heapalloc.c                      0x00000000   Number         0  hrguard.o ABSOLUTE
    ../clib/heapalloc.c                      0x00000000   Number         0  hguard.o ABSOLUTE
    ../clib/heapalloc.c                      0x00000000   Number         0  init_alloc.o ABSOLUTE
    ../clib/heapalloc.c                      0x00000000   Number         0  heapstubs.o ABSOLUTE
    ../clib/heapalloc.c                      0x00000000   Number         0  free.o ABSOLUTE
    ../clib/heapaux.c                        0x00000000   Number         0  heapauxi.o ABSOLUTE
    ../clib/heapaux.c                        0x00000000   Number         0  heapauxa.o ABSOLUTE
    ../clib/libinit.s                        0x00000000   Number         0  libinit2.o ABSOLUTE
    ../clib/libinit.s                        0x00000000   Number         0  libinit.o ABSOLUTE
    ../clib/libinit.s                        0x00000000   Number         0  libshutdown2.o ABSOLUTE
    ../clib/locale.c                         0x00000000   Number         0  _wcrtomb.o ABSOLUTE
    ../clib/locale.s                         0x00000000   Number         0  lc_ctype_c.o ABSOLUTE
    ../clib/locale.s                         0x00000000   Number         0  lc_numeric_c.o ABSOLUTE
    ../clib/memcpset.c                       0x00000000   Number         0  rt_memclr.o ABSOLUTE
    ../clib/memcpset.c                       0x00000000   Number         0  rt_memcpy.o ABSOLUTE
    ../clib/memcpset.c                       0x00000000   Number         0  rt_memcpy.o ABSOLUTE
    ../clib/memcpset.s                       0x00000000   Number         0  strcmpv6m.o ABSOLUTE
    ../clib/misc.s                           0x00000000   Number         0  printf_stubs.o ABSOLUTE
    ../clib/printf.c                         0x00000000   Number         0  _printf_char_common.o ABSOLUTE
    ../clib/printf.c                         0x00000000   Number         0  _printf_charcount.o ABSOLUTE
    ../clib/printf.c                         0x00000000   Number         0  _printf_dec.o ABSOLUTE
    ../clib/printf.c                         0x00000000   Number         0  _printf_str.o ABSOLUTE
    ../clib/printf.c                         0x00000000   Number         0  _printf_truncate.o ABSOLUTE
    ../clib/printf.c                         0x00000000   Number         0  _printf_pad.o ABSOLUTE
    ../clib/printf.c                         0x00000000   Number         0  __printf.o ABSOLUTE
    ../clib/printf.c                         0x00000000   Number         0  __printf_flags.o ABSOLUTE
    ../clib/printf.c                         0x00000000   Number         0  c89vsnprintf.o ABSOLUTE
    ../clib/printf.c                         0x00000000   Number         0  c89vsprintf.o ABSOLUTE
    ../clib/printf.c                         0x00000000   Number         0  vfprintf.o ABSOLUTE
    ../clib/printf.c                         0x00000000   Number         0  _printf_intcommon.o ABSOLUTE
    ../clib/printf.c                         0x00000000   Number         0  _printf_fp_dec.o ABSOLUTE
    ../clib/printf.c                         0x00000000   Number         0  _printf_fp_hex.o ABSOLUTE
    ../clib/printf.c                         0x00000000   Number         0  __printf_nopercent.o ABSOLUTE
    ../clib/printf.c                         0x00000000   Number         0  _printf_char.o ABSOLUTE
    ../clib/printf.c                         0x00000000   Number         0  _printf_wchar.o ABSOLUTE
    ../clib/printf.c                         0x00000000   Number         0  __printf_ss.o ABSOLUTE
    ../clib/printf.c                         0x00000000   Number         0  _printf_char_file_locked.o ABSOLUTE
    ../clib/printf.c                         0x00000000   Number         0  _printf_fp_infnan.o ABSOLUTE
    ../clib/printf.c                         0x00000000   Number         0  _printf_hex_int_ll_ptr.o ABSOLUTE
    ../clib/printf.c                         0x00000000   Number         0  _printf_hex_ll_ptr.o ABSOLUTE
    ../clib/printf.c                         0x00000000   Number         0  _printf_hex_int_ptr.o ABSOLUTE
    ../clib/printf.c                         0x00000000   Number         0  _printf_hex_ptr.o ABSOLUTE
    ../clib/printf.c                         0x00000000   Number         0  _printf_hex_int_ll.o ABSOLUTE
    ../clib/printf.c                         0x00000000   Number         0  _printf_hex_int.o ABSOLUTE
    ../clib/printf.c                         0x00000000   Number         0  _printf_hex_ll.o ABSOLUTE
    ../clib/printf.c                         0x00000000   Number         0  _printf_oct_int_ll.o ABSOLUTE
    ../clib/printf.c                         0x00000000   Number         0  _printf_oct_int.o ABSOLUTE
    ../clib/printf.c                         0x00000000   Number         0  _printf_oct_ll.o ABSOLUTE
    ../clib/printf.c                         0x00000000   Number         0  _printf_longlong_dec.o ABSOLUTE
    ../clib/printf.c                         0x00000000   Number         0  _printf_wctomb.o ABSOLUTE
    ../clib/printf.c                         0x00000000   Number         0  _printf_char_file.o ABSOLUTE
    ../clib/printf.c                         0x00000000   Number         0  _snputc.o ABSOLUTE
    ../clib/printf.c                         0x00000000   Number         0  _sputc.o ABSOLUTE
    ../clib/printf.c                         0x00000000   Number         0  __printf_flags_ss_wp.o ABSOLUTE
    ../clib/printf.c                         0x00000000   Number         0  __printf_ss_wp.o ABSOLUTE
    ../clib/printf.c                         0x00000000   Number         0  __printf_flags_wp.o ABSOLUTE
    ../clib/printf.c                         0x00000000   Number         0  __printf_wp.o ABSOLUTE
    ../clib/printf.c                         0x00000000   Number         0  __printf_flags_ss.o ABSOLUTE
    ../clib/printf_percent.s                 0x00000000   Number         0  _printf_d.o ABSOLUTE
    ../clib/printf_percent.s                 0x00000000   Number         0  _printf_l.o ABSOLUTE
    ../clib/printf_percent.s                 0x00000000   Number         0  _printf_lc.o ABSOLUTE
    ../clib/printf_percent.s                 0x00000000   Number         0  _printf_ls.o ABSOLUTE
    ../clib/printf_percent.s                 0x00000000   Number         0  _printf_llu.o ABSOLUTE
    ../clib/printf_percent.s                 0x00000000   Number         0  _printf_x.o ABSOLUTE
    ../clib/printf_percent.s                 0x00000000   Number         0  _printf_ll.o ABSOLUTE
    ../clib/printf_percent.s                 0x00000000   Number         0  _printf_llo.o ABSOLUTE
    ../clib/printf_percent.s                 0x00000000   Number         0  _printf_llx.o ABSOLUTE
    ../clib/printf_percent.s                 0x00000000   Number         0  _printf_lld.o ABSOLUTE
    ../clib/printf_percent.s                 0x00000000   Number         0  _printf_lli.o ABSOLUTE
    ../clib/printf_percent.s                 0x00000000   Number         0  _printf_percent.o ABSOLUTE
    ../clib/printf_percent.s                 0x00000000   Number         0  _printf_a.o ABSOLUTE
    ../clib/printf_percent.s                 0x00000000   Number         0  _printf_g.o ABSOLUTE
    ../clib/printf_percent.s                 0x00000000   Number         0  _printf_e.o ABSOLUTE
    ../clib/printf_percent.s                 0x00000000   Number         0  _printf_f.o ABSOLUTE
    ../clib/printf_percent.s                 0x00000000   Number         0  _printf_u.o ABSOLUTE
    ../clib/printf_percent.s                 0x00000000   Number         0  _printf_i.o ABSOLUTE
    ../clib/printf_percent.s                 0x00000000   Number         0  _printf_o.o ABSOLUTE
    ../clib/printf_percent.s                 0x00000000   Number         0  _printf_p.o ABSOLUTE
    ../clib/printf_percent.s                 0x00000000   Number         0  _printf_n.o ABSOLUTE
    ../clib/printf_percent.s                 0x00000000   Number         0  _printf_s.o ABSOLUTE
    ../clib/printf_percent.s                 0x00000000   Number         0  _printf_c.o ABSOLUTE
    ../clib/printf_percent.s                 0x00000000   Number         0  _printf_percent_end.o ABSOLUTE
    ../clib/scanf.c                          0x00000000   Number         0  _scanf.o ABSOLUTE
    ../clib/scanf.c                          0x00000000   Number         0  _sgetc.o ABSOLUTE
    ../clib/scanf.c                          0x00000000   Number         0  _chval.o ABSOLUTE
    ../clib/scanf.c                          0x00000000   Number         0  scanf_char.o ABSOLUTE
    ../clib/scanf.c                          0x00000000   Number         0  __0sscanf.o ABSOLUTE
    ../clib/scanf.c                          0x00000000   Number         0  _scanf_int.o ABSOLUTE
    ../clib/signal.c                         0x00000000   Number         0  defsig_rtred_formal.o ABSOLUTE
    ../clib/signal.c                         0x00000000   Number         0  defsig_rtred_outer.o ABSOLUTE
    ../clib/signal.c                         0x00000000   Number         0  defsig_pvfn_formal.o ABSOLUTE
    ../clib/signal.c                         0x00000000   Number         0  defsig_pvfn_outer.o ABSOLUTE
    ../clib/signal.c                         0x00000000   Number         0  defsig_exit.o ABSOLUTE
    ../clib/signal.c                         0x00000000   Number         0  defsig_other.o ABSOLUTE
    ../clib/signal.c                         0x00000000   Number         0  defsig_segv_inner.o ABSOLUTE
    ../clib/signal.c                         0x00000000   Number         0  defsig_cppl_inner.o ABSOLUTE
    ../clib/signal.c                         0x00000000   Number         0  defsig_stak_inner.o ABSOLUTE
    ../clib/signal.c                         0x00000000   Number         0  defsig_rtmem_outer.o ABSOLUTE
    ../clib/signal.c                         0x00000000   Number         0  defsig_rtred_inner.o ABSOLUTE
    ../clib/signal.c                         0x00000000   Number         0  defsig_fpe_formal.o ABSOLUTE
    ../clib/signal.c                         0x00000000   Number         0  defsig_fpe_outer.o ABSOLUTE
    ../clib/signal.c                         0x00000000   Number         0  defsig_fpe_inner.o ABSOLUTE
    ../clib/signal.c                         0x00000000   Number         0  defsig_abrt_formal.o ABSOLUTE
    ../clib/signal.c                         0x00000000   Number         0  __raise.o ABSOLUTE
    ../clib/signal.c                         0x00000000   Number         0  defsig_abrt_outer.o ABSOLUTE
    ../clib/signal.c                         0x00000000   Number         0  defsig_general.o ABSOLUTE
    ../clib/signal.c                         0x00000000   Number         0  defsig_abrt_inner.o ABSOLUTE
    ../clib/signal.c                         0x00000000   Number         0  defsig_rtmem_inner.o ABSOLUTE
    ../clib/signal.c                         0x00000000   Number         0  defsig_rtmem_formal.o ABSOLUTE
    ../clib/signal.c                         0x00000000   Number         0  defsig_pvfn_inner.o ABSOLUTE
    ../clib/signal.s                         0x00000000   Number         0  defsig.o ABSOLUTE
    ../clib/stdio.c                          0x00000000   Number         0  flsbuf.o ABSOLUTE
    ../clib/stdio.c                          0x00000000   Number         0  filbuf.o ABSOLUTE
    ../clib/stdio.c                          0x00000000   Number         0  ferror.o ABSOLUTE
    ../clib/stdio.c                          0x00000000   Number         0  freadfast.o ABSOLUTE
    ../clib/stdio.c                          0x00000000   Number         0  fread_bytes_avail.o ABSOLUTE
    ../clib/stdio.c                          0x00000000   Number         0  fopen.o ABSOLUTE
    ../clib/stdio.c                          0x00000000   Number         0  fclose.o ABSOLUTE
    ../clib/stdio.c                          0x00000000   Number         0  flushlinebuffered.o ABSOLUTE
    ../clib/stdio.c                          0x00000000   Number         0  fputc_locked.o ABSOLUTE
    ../clib/stdio.c                          0x00000000   Number         0  fgets_locked.o ABSOLUTE
    ../clib/stdio.c                          0x00000000   Number         0  freadfast_locked.o ABSOLUTE
    ../clib/stdio.c                          0x00000000   Number         0  fopen_locked.o ABSOLUTE
    ../clib/stdio.c                          0x00000000   Number         0  fread_bytes_avail_locked.o ABSOLUTE
    ../clib/stdio.c                          0x00000000   Number         0  flushlinebuffered_locked.o ABSOLUTE
    ../clib/stdio.c                          0x00000000   Number         0  fputc.o ABSOLUTE
    ../clib/stdio.c                          0x00000000   Number         0  stdio_streams.o ABSOLUTE
    ../clib/stdio.c                          0x00000000   Number         0  fputs_locked.o ABSOLUTE
    ../clib/stdio.c                          0x00000000   Number         0  fputs.o ABSOLUTE
    ../clib/stdio.c                          0x00000000   Number         0  fgetc_locked.o ABSOLUTE
    ../clib/stdio.c                          0x00000000   Number         0  fflush_locked.o ABSOLUTE
    ../clib/stdio.c                          0x00000000   Number         0  fwritefast_locked.o ABSOLUTE
    ../clib/stdio.c                          0x00000000   Number         0  fwritefast.o ABSOLUTE
    ../clib/stdio.c                          0x00000000   Number         0  fseek.o ABSOLUTE
    ../clib/stdio.c                          0x00000000   Number         0  ftell.o ABSOLUTE
    ../clib/stdio.c                          0x00000000   Number         0  fflush.o ABSOLUTE
    ../clib/stdio.c                          0x00000000   Number         0  initio_locked.o ABSOLUTE
    ../clib/stdio.c                          0x00000000   Number         0  setvbuf_locked.o ABSOLUTE
    ../clib/stdio.c                          0x00000000   Number         0  ferror_locked.o ABSOLUTE
    ../clib/stdio.c                          0x00000000   Number         0  initio.o ABSOLUTE
    ../clib/stdio.c                          0x00000000   Number         0  streamlock.o ABSOLUTE
    ../clib/stdio.c                          0x00000000   Number         0  stdio.o ABSOLUTE
    ../clib/stdio.c                          0x00000000   Number         0  setvbuf.o ABSOLUTE
    ../clib/stdio.c                          0x00000000   Number         0  setbuf.o ABSOLUTE
    ../clib/stdio.c                          0x00000000   Number         0  fgetc.o ABSOLUTE
    ../clib/stdio.c                          0x00000000   Number         0  fgets.o ABSOLUTE
    ../clib/stdlib.c                         0x00000000   Number         0  abort.o ABSOLUTE
    ../clib/stdlib.c                         0x00000000   Number         0  aeabi_atexit.o ABSOLUTE
    ../clib/stdlib.c                         0x00000000   Number         0  bsearchnoex.o ABSOLUTE
    ../clib/stdlib.c                         0x00000000   Number         0  atexit_aeabi.o ABSOLUTE
    ../clib/stdlib.c                         0x00000000   Number         0  cxa_finalize.o ABSOLUTE
    ../clib/string.c                         0x00000000   Number         0  strncpy.o ABSOLUTE
    ../clib/string.c                         0x00000000   Number         0  strncmp.o ABSOLUTE
    ../clib/string.c                         0x00000000   Number         0  strlen.o ABSOLUTE
    ../clib/wchar.c                          0x00000000   Number         0  flsbuf_fwide.o ABSOLUTE
    ../clib/wchar.c                          0x00000000   Number         0  filbuf_fwide.o ABSOLUTE
    ../fplib/cfplib/cmpret.c                 0x00000000   Number         0  cmpret.o ABSOLUTE
    ../fplib/cfplib/daddsub.c                0x00000000   Number         0  daddsub.o ABSOLUTE
    ../fplib/cfplib/dcmpin.c                 0x00000000   Number         0  dcmpin.o ABSOLUTE
    ../fplib/cfplib/ddiv.c                   0x00000000   Number         0  ddiv.o ABSOLUTE
    ../fplib/cfplib/dmul.c                   0x00000000   Number         0  dmul.o ABSOLUTE
    ../fplib/cfplib/drnd.c                   0x00000000   Number         0  drnd.o ABSOLUTE
    ../fplib/cfplib/fdiv.c                   0x00000000   Number         0  fdiv.o ABSOLUTE
    ../fplib/cfplib/ffix.c                   0x00000000   Number         0  dfixi.o ABSOLUTE
    ../fplib/cfplib/ffix.c                   0x00000000   Number         0  ffixi.o ABSOLUTE
    ../fplib/cfplib/ffix.c                   0x00000000   Number         0  dfixui.o ABSOLUTE
    ../fplib/cfplib/fflt.c                   0x00000000   Number         0  fflti.o ABSOLUTE
    ../fplib/cfplib/fflt.c                   0x00000000   Number         0  dflti.o ABSOLUTE
    ../fplib/cfplib/fpinit.c                 0x00000000   Number         0  fpinit.o ABSOLUTE
    ../fplib/cfplib/ieee_status.c            0x00000000   Number         0  ieee_status.o ABSOLUTE
    ../fplib/cfplib/nan2.c                   0x00000000   Number         0  dnan2.o ABSOLUTE
    ../fplib/cfplib/retnan.c                 0x00000000   Number         0  retnan.o ABSOLUTE
    ../fplib/cfplib/scalbn.c                 0x00000000   Number         0  dscalbn.o ABSOLUTE
    ../fplib/drleqf6m.s                      0x00000000   Number         0  drlef.o ABSOLUTE
    ../fplib/fmul6m.s                        0x00000000   Number         0  fmul.o ABSOLUTE
    ../fplib/printf1.s                       0x00000000   Number         0  printf1.o ABSOLUTE
    ../fplib/printf2.s                       0x00000000   Number         0  printf2.o ABSOLUTE
    ../fplib/printf2a.s                      0x00000000   Number         0  printf2a.o ABSOLUTE
    ../fplib/printf2b.s                      0x00000000   Number         0  printf2b.o ABSOLUTE
    ../fplib/usenofp.s                       0x00000000   Number         0  usenofp.o ABSOLUTE
    ../mathlib/ceil.c                        0x00000000   Number         0  ceil.o ABSOLUTE
    ../mathlib/floor.c                       0x00000000   Number         0  floor.o ABSOLUTE
    ../mathlib/fpclassify.c                  0x00000000   Number         0  fpclassify.o ABSOLUTE
    ../mathlib/rint.c                        0x00000000   Number         0  rint.o ABSOLUTE
    C:\Jenkins\workspace\mbed-2-build-library\libraries\mbed\common\FileBase.cpp 0x00000000   Number         0  FileBase.o ABSOLUTE
    C:\Jenkins\workspace\mbed-2-build-library\libraries\mbed\common\FilePath.cpp 0x00000000   Number         0  FilePath.o ABSOLUTE
    C:\Jenkins\workspace\mbed-2-build-library\libraries\mbed\common\FileSystemLike.cpp 0x00000000   Number         0  FileSystemLike.o ABSOLUTE
    C:\Jenkins\workspace\mbed-2-build-library\libraries\mbed\common\InterruptIn.cpp 0x00000000   Number         0  InterruptIn.o ABSOLUTE
    C:\Jenkins\workspace\mbed-2-build-library\libraries\mbed\common\SPI.cpp 0x00000000   Number         0  SPI.o ABSOLUTE
    C:\Jenkins\workspace\mbed-2-build-library\libraries\mbed\common\SerialBase.cpp 0x00000000   Number         0  SerialBase.o ABSOLUTE
    C:\Jenkins\workspace\mbed-2-build-library\libraries\mbed\common\Ticker.cpp 0x00000000   Number         0  Ticker.o ABSOLUTE
    C:\Jenkins\workspace\mbed-2-build-library\libraries\mbed\common\Timeout.cpp 0x00000000   Number         0  Timeout.o ABSOLUTE
    C:\Jenkins\workspace\mbed-2-build-library\libraries\mbed\common\Timer.cpp 0x00000000   Number         0  Timer.o ABSOLUTE
    C:\Jenkins\workspace\mbed-2-build-library\libraries\mbed\common\TimerEvent.cpp 0x00000000   Number         0  TimerEvent.o ABSOLUTE
    C:\Jenkins\workspace\mbed-2-build-library\libraries\mbed\common\assert.c 0x00000000   Number         0  assert.o ABSOLUTE
    C:\Jenkins\workspace\mbed-2-build-library\libraries\mbed\common\board.c 0x00000000   Number         0  board.o ABSOLUTE
    C:\Jenkins\workspace\mbed-2-build-library\libraries\mbed\common\error.c 0x00000000   Number         0  error.o ABSOLUTE
    C:\Jenkins\workspace\mbed-2-build-library\libraries\mbed\common\gpio.c 0x00000000   Number         0  gpio.o ABSOLUTE
    C:\Jenkins\workspace\mbed-2-build-library\libraries\mbed\common\pinmap_common.c 0x00000000   Number         0  pinmap_common.o ABSOLUTE
    C:\Jenkins\workspace\mbed-2-build-library\libraries\mbed\common\retarget.cpp 0x00000000   Number         0  retarget.o ABSOLUTE
    C:\Jenkins\workspace\mbed-2-build-library\libraries\mbed\common\ticker_api.c 0x00000000   Number         0  ticker_api.o ABSOLUTE
    C:\Jenkins\workspace\mbed-2-build-library\libraries\mbed\common\us_ticker_api.c 0x00000000   Number         0  us_ticker_api.o ABSOLUTE
    C:\Jenkins\workspace\mbed-2-build-library\libraries\mbed\common\wait_api.c 0x00000000   Number         0  wait_api.o ABSOLUTE
    C:\Jenkins\workspace\mbed-2-build-library\libraries\mbed\targets\cmsis\TARGET_STM\TARGET_STM32L0\TARGET_NUCLEO_L073RZ\TOOLCHAIN_ARM_STD\sys.cpp 0x00000000   Number         0  sys.o ABSOLUTE
    C:\Jenkins\workspace\mbed-2-build-library\libraries\mbed\targets\cmsis\TARGET_STM\TARGET_STM32L0\TARGET_NUCLEO_L073RZ\cmsis_nvic.c 0x00000000   Number         0  cmsis_nvic.o ABSOLUTE
    C:\Jenkins\workspace\mbed-2-build-library\libraries\mbed\targets\cmsis\TARGET_STM\TARGET_STM32L0\TARGET_NUCLEO_L073RZ\hal_tick.c 0x00000000   Number         0  hal_tick.o ABSOLUTE
    C:\Jenkins\workspace\mbed-2-build-library\libraries\mbed\targets\cmsis\TARGET_STM\TARGET_STM32L0\TARGET_NUCLEO_L073RZ\system_stm32l0xx.c 0x00000000   Number         0  system_stm32l0xx.o ABSOLUTE
    C:\Jenkins\workspace\mbed-2-build-library\libraries\mbed\targets\cmsis\TARGET_STM\TARGET_STM32L0\stm32l0xx_hal.c 0x00000000   Number         0  stm32l0xx_hal.o ABSOLUTE
    C:\Jenkins\workspace\mbed-2-build-library\libraries\mbed\targets\cmsis\TARGET_STM\TARGET_STM32L0\stm32l0xx_hal_adc.c 0x00000000   Number         0  stm32l0xx_hal_adc.o ABSOLUTE
    C:\Jenkins\workspace\mbed-2-build-library\libraries\mbed\targets\cmsis\TARGET_STM\TARGET_STM32L0\stm32l0xx_hal_adc_ex.c 0x00000000   Number         0  stm32l0xx_hal_adc_ex.o ABSOLUTE
    C:\Jenkins\workspace\mbed-2-build-library\libraries\mbed\targets\cmsis\TARGET_STM\TARGET_STM32L0\stm32l0xx_hal_comp.c 0x00000000   Number         0  stm32l0xx_hal_comp.o ABSOLUTE
    C:\Jenkins\workspace\mbed-2-build-library\libraries\mbed\targets\cmsis\TARGET_STM\TARGET_STM32L0\stm32l0xx_hal_comp_ex.c 0x00000000   Number         0  stm32l0xx_hal_comp_ex.o ABSOLUTE
    C:\Jenkins\workspace\mbed-2-build-library\libraries\mbed\targets\cmsis\TARGET_STM\TARGET_STM32L0\stm32l0xx_hal_cortex.c 0x00000000   Number         0  stm32l0xx_hal_cortex.o ABSOLUTE
    C:\Jenkins\workspace\mbed-2-build-library\libraries\mbed\targets\cmsis\TARGET_STM\TARGET_STM32L0\stm32l0xx_hal_crc.c 0x00000000   Number         0  stm32l0xx_hal_crc.o ABSOLUTE
    C:\Jenkins\workspace\mbed-2-build-library\libraries\mbed\targets\cmsis\TARGET_STM\TARGET_STM32L0\stm32l0xx_hal_crc_ex.c 0x00000000   Number         0  stm32l0xx_hal_crc_ex.o ABSOLUTE
    C:\Jenkins\workspace\mbed-2-build-library\libraries\mbed\targets\cmsis\TARGET_STM\TARGET_STM32L0\stm32l0xx_hal_cryp.c 0x00000000   Number         0  stm32l0xx_hal_cryp.o ABSOLUTE
    C:\Jenkins\workspace\mbed-2-build-library\libraries\mbed\targets\cmsis\TARGET_STM\TARGET_STM32L0\stm32l0xx_hal_cryp_ex.c 0x00000000   Number         0  stm32l0xx_hal_cryp_ex.o ABSOLUTE
    C:\Jenkins\workspace\mbed-2-build-library\libraries\mbed\targets\cmsis\TARGET_STM\TARGET_STM32L0\stm32l0xx_hal_dac.c 0x00000000   Number         0  stm32l0xx_hal_dac.o ABSOLUTE
    C:\Jenkins\workspace\mbed-2-build-library\libraries\mbed\targets\cmsis\TARGET_STM\TARGET_STM32L0\stm32l0xx_hal_dac_ex.c 0x00000000   Number         0  stm32l0xx_hal_dac_ex.o ABSOLUTE
    C:\Jenkins\workspace\mbed-2-build-library\libraries\mbed\targets\cmsis\TARGET_STM\TARGET_STM32L0\stm32l0xx_hal_dma.c 0x00000000   Number         0  stm32l0xx_hal_dma.o ABSOLUTE
    C:\Jenkins\workspace\mbed-2-build-library\libraries\mbed\targets\cmsis\TARGET_STM\TARGET_STM32L0\stm32l0xx_hal_firewall.c 0x00000000   Number         0  stm32l0xx_hal_firewall.o ABSOLUTE
    C:\Jenkins\workspace\mbed-2-build-library\libraries\mbed\targets\cmsis\TARGET_STM\TARGET_STM32L0\stm32l0xx_hal_flash.c 0x00000000   Number         0  stm32l0xx_hal_flash.o ABSOLUTE
    C:\Jenkins\workspace\mbed-2-build-library\libraries\mbed\targets\cmsis\TARGET_STM\TARGET_STM32L0\stm32l0xx_hal_flash_ex.c 0x00000000   Number         0  stm32l0xx_hal_flash_ex.o ABSOLUTE
    C:\Jenkins\workspace\mbed-2-build-library\libraries\mbed\targets\cmsis\TARGET_STM\TARGET_STM32L0\stm32l0xx_hal_flash_ramfunc.c 0x00000000   Number         0  stm32l0xx_hal_flash_ramfunc.o ABSOLUTE
    C:\Jenkins\workspace\mbed-2-build-library\libraries\mbed\targets\cmsis\TARGET_STM\TARGET_STM32L0\stm32l0xx_hal_gpio.c 0x00000000   Number         0  stm32l0xx_hal_gpio.o ABSOLUTE
    C:\Jenkins\workspace\mbed-2-build-library\libraries\mbed\targets\cmsis\TARGET_STM\TARGET_STM32L0\stm32l0xx_hal_i2c.c 0x00000000   Number         0  stm32l0xx_hal_i2c.o ABSOLUTE
    C:\Jenkins\workspace\mbed-2-build-library\libraries\mbed\targets\cmsis\TARGET_STM\TARGET_STM32L0\stm32l0xx_hal_i2c_ex.c 0x00000000   Number         0  stm32l0xx_hal_i2c_ex.o ABSOLUTE
    C:\Jenkins\workspace\mbed-2-build-library\libraries\mbed\targets\cmsis\TARGET_STM\TARGET_STM32L0\stm32l0xx_hal_i2s.c 0x00000000   Number         0  stm32l0xx_hal_i2s.o ABSOLUTE
    C:\Jenkins\workspace\mbed-2-build-library\libraries\mbed\targets\cmsis\TARGET_STM\TARGET_STM32L0\stm32l0xx_hal_irda.c 0x00000000   Number         0  stm32l0xx_hal_irda.o ABSOLUTE
    C:\Jenkins\workspace\mbed-2-build-library\libraries\mbed\targets\cmsis\TARGET_STM\TARGET_STM32L0\stm32l0xx_hal_iwdg.c 0x00000000   Number         0  stm32l0xx_hal_iwdg.o ABSOLUTE
    C:\Jenkins\workspace\mbed-2-build-library\libraries\mbed\targets\cmsis\TARGET_STM\TARGET_STM32L0\stm32l0xx_hal_lcd.c 0x00000000   Number         0  stm32l0xx_hal_lcd.o ABSOLUTE
    C:\Jenkins\workspace\mbed-2-build-library\libraries\mbed\targets\cmsis\TARGET_STM\TARGET_STM32L0\stm32l0xx_hal_lptim.c 0x00000000   Number         0  stm32l0xx_hal_lptim.o ABSOLUTE
    C:\Jenkins\workspace\mbed-2-build-library\libraries\mbed\targets\cmsis\TARGET_STM\TARGET_STM32L0\stm32l0xx_hal_pcd.c 0x00000000   Number         0  stm32l0xx_hal_pcd.o ABSOLUTE
    C:\Jenkins\workspace\mbed-2-build-library\libraries\mbed\targets\cmsis\TARGET_STM\TARGET_STM32L0\stm32l0xx_hal_pcd_ex.c 0x00000000   Number         0  stm32l0xx_hal_pcd_ex.o ABSOLUTE
    C:\Jenkins\workspace\mbed-2-build-library\libraries\mbed\targets\cmsis\TARGET_STM\TARGET_STM32L0\stm32l0xx_hal_pwr.c 0x00000000   Number         0  stm32l0xx_hal_pwr.o ABSOLUTE
    C:\Jenkins\workspace\mbed-2-build-library\libraries\mbed\targets\cmsis\TARGET_STM\TARGET_STM32L0\stm32l0xx_hal_pwr_ex.c 0x00000000   Number         0  stm32l0xx_hal_pwr_ex.o ABSOLUTE
    C:\Jenkins\workspace\mbed-2-build-library\libraries\mbed\targets\cmsis\TARGET_STM\TARGET_STM32L0\stm32l0xx_hal_rcc.c 0x00000000   Number         0  stm32l0xx_hal_rcc.o ABSOLUTE
    C:\Jenkins\workspace\mbed-2-build-library\libraries\mbed\targets\cmsis\TARGET_STM\TARGET_STM32L0\stm32l0xx_hal_rcc_ex.c 0x00000000   Number         0  stm32l0xx_hal_rcc_ex.o ABSOLUTE
    C:\Jenkins\workspace\mbed-2-build-library\libraries\mbed\targets\cmsis\TARGET_STM\TARGET_STM32L0\stm32l0xx_hal_rng.c 0x00000000   Number         0  stm32l0xx_hal_rng.o ABSOLUTE
    C:\Jenkins\workspace\mbed-2-build-library\libraries\mbed\targets\cmsis\TARGET_STM\TARGET_STM32L0\stm32l0xx_hal_rtc.c 0x00000000   Number         0  stm32l0xx_hal_rtc.o ABSOLUTE
    C:\Jenkins\workspace\mbed-2-build-library\libraries\mbed\targets\cmsis\TARGET_STM\TARGET_STM32L0\stm32l0xx_hal_rtc_ex.c 0x00000000   Number         0  stm32l0xx_hal_rtc_ex.o ABSOLUTE
    C:\Jenkins\workspace\mbed-2-build-library\libraries\mbed\targets\cmsis\TARGET_STM\TARGET_STM32L0\stm32l0xx_hal_smartcard.c 0x00000000   Number         0  stm32l0xx_hal_smartcard.o ABSOLUTE
    C:\Jenkins\workspace\mbed-2-build-library\libraries\mbed\targets\cmsis\TARGET_STM\TARGET_STM32L0\stm32l0xx_hal_smartcard_ex.c 0x00000000   Number         0  stm32l0xx_hal_smartcard_ex.o ABSOLUTE
    C:\Jenkins\workspace\mbed-2-build-library\libraries\mbed\targets\cmsis\TARGET_STM\TARGET_STM32L0\stm32l0xx_hal_smbus.c 0x00000000   Number         0  stm32l0xx_hal_smbus.o ABSOLUTE
    C:\Jenkins\workspace\mbed-2-build-library\libraries\mbed\targets\cmsis\TARGET_STM\TARGET_STM32L0\stm32l0xx_hal_spi.c 0x00000000   Number         0  stm32l0xx_hal_spi.o ABSOLUTE
    C:\Jenkins\workspace\mbed-2-build-library\libraries\mbed\targets\cmsis\TARGET_STM\TARGET_STM32L0\stm32l0xx_hal_tim.c 0x00000000   Number         0  stm32l0xx_hal_tim.o ABSOLUTE
    C:\Jenkins\workspace\mbed-2-build-library\libraries\mbed\targets\cmsis\TARGET_STM\TARGET_STM32L0\stm32l0xx_hal_tim_ex.c 0x00000000   Number         0  stm32l0xx_hal_tim_ex.o ABSOLUTE
    C:\Jenkins\workspace\mbed-2-build-library\libraries\mbed\targets\cmsis\TARGET_STM\TARGET_STM32L0\stm32l0xx_hal_tsc.c 0x00000000   Number         0  stm32l0xx_hal_tsc.o ABSOLUTE
    C:\Jenkins\workspace\mbed-2-build-library\libraries\mbed\targets\cmsis\TARGET_STM\TARGET_STM32L0\stm32l0xx_hal_uart.c 0x00000000   Number         0  stm32l0xx_hal_uart.o ABSOLUTE
    C:\Jenkins\workspace\mbed-2-build-library\libraries\mbed\targets\cmsis\TARGET_STM\TARGET_STM32L0\stm32l0xx_hal_uart_ex.c 0x00000000   Number         0  stm32l0xx_hal_uart_ex.o ABSOLUTE
    C:\Jenkins\workspace\mbed-2-build-library\libraries\mbed\targets\cmsis\TARGET_STM\TARGET_STM32L0\stm32l0xx_hal_usart.c 0x00000000   Number         0  stm32l0xx_hal_usart.o ABSOLUTE
    C:\Jenkins\workspace\mbed-2-build-library\libraries\mbed\targets\cmsis\TARGET_STM\TARGET_STM32L0\stm32l0xx_hal_wwdg.c 0x00000000   Number         0  stm32l0xx_hal_wwdg.o ABSOLUTE
    C:\Jenkins\workspace\mbed-2-build-library\libraries\mbed\targets\hal\TARGET_STM\TARGET_STM32L0\TARGET_NUCLEO_L073RZ\PeripheralPins.c 0x00000000   Number         0  PeripheralPins.o ABSOLUTE
    C:\Jenkins\workspace\mbed-2-build-library\libraries\mbed\targets\hal\TARGET_STM\TARGET_STM32L0\gpio_api.c 0x00000000   Number         0  gpio_api.o ABSOLUTE
    C:\Jenkins\workspace\mbed-2-build-library\libraries\mbed\targets\hal\TARGET_STM\TARGET_STM32L0\gpio_irq_api.c 0x00000000   Number         0  gpio_irq_api.o ABSOLUTE
    C:\Jenkins\workspace\mbed-2-build-library\libraries\mbed\targets\hal\TARGET_STM\TARGET_STM32L0\mbed_overrides.c 0x00000000   Number         0  mbed_overrides.o ABSOLUTE
    C:\Jenkins\workspace\mbed-2-build-library\libraries\mbed\targets\hal\TARGET_STM\TARGET_STM32L0\pinmap.c 0x00000000   Number         0  pinmap.o ABSOLUTE
    C:\Jenkins\workspace\mbed-2-build-library\libraries\mbed\targets\hal\TARGET_STM\TARGET_STM32L0\serial_api.c 0x00000000   Number         0  serial_api.o ABSOLUTE
    C:\Jenkins\workspace\mbed-2-build-library\libraries\mbed\targets\hal\TARGET_STM\TARGET_STM32L0\spi_api.c 0x00000000   Number         0  spi_api.o ABSOLUTE
    C:\Jenkins\workspace\mbed-2-build-library\libraries\mbed\targets\hal\TARGET_STM\TARGET_STM32L0\us_ticker.c 0x00000000   Number         0  us_ticker.o ABSOLUTE
    C:\\Jenkins\\workspace\\mbed-2-build-library\\libraries\\mbed\\common\\FileBase.cpp 0x00000000   Number         0  FileBase.o ABSOLUTE
    C:\\Jenkins\\workspace\\mbed-2-build-library\\libraries\\mbed\\common\\FilePath.cpp 0x00000000   Number         0  FilePath.o ABSOLUTE
    C:\\Jenkins\\workspace\\mbed-2-build-library\\libraries\\mbed\\common\\FileSystemLike.cpp 0x00000000   Number         0  FileSystemLike.o ABSOLUTE
    C:\\Jenkins\\workspace\\mbed-2-build-library\\libraries\\mbed\\common\\InterruptIn.cpp 0x00000000   Number         0  InterruptIn.o ABSOLUTE
    C:\\Jenkins\\workspace\\mbed-2-build-library\\libraries\\mbed\\common\\SPI.cpp 0x00000000   Number         0  SPI.o ABSOLUTE
    C:\\Jenkins\\workspace\\mbed-2-build-library\\libraries\\mbed\\common\\SerialBase.cpp 0x00000000   Number         0  SerialBase.o ABSOLUTE
    C:\\Jenkins\\workspace\\mbed-2-build-library\\libraries\\mbed\\common\\Ticker.cpp 0x00000000   Number         0  Ticker.o ABSOLUTE
    C:\\Jenkins\\workspace\\mbed-2-build-library\\libraries\\mbed\\common\\Timeout.cpp 0x00000000   Number         0  Timeout.o ABSOLUTE
    C:\\Jenkins\\workspace\\mbed-2-build-library\\libraries\\mbed\\common\\Timer.cpp 0x00000000   Number         0  Timer.o ABSOLUTE
    C:\\Jenkins\\workspace\\mbed-2-build-library\\libraries\\mbed\\common\\TimerEvent.cpp 0x00000000   Number         0  TimerEvent.o ABSOLUTE
    C:\\Jenkins\\workspace\\mbed-2-build-library\\libraries\\mbed\\common\\board.c 0x00000000   Number         0  board.o ABSOLUTE
    C:\\Jenkins\\workspace\\mbed-2-build-library\\libraries\\mbed\\common\\error.c 0x00000000   Number         0  error.o ABSOLUTE
    C:\\Jenkins\\workspace\\mbed-2-build-library\\libraries\\mbed\\common\\gpio.c 0x00000000   Number         0  gpio.o ABSOLUTE
    C:\\Jenkins\\workspace\\mbed-2-build-library\\libraries\\mbed\\common\\pinmap_common.c 0x00000000   Number         0  pinmap_common.o ABSOLUTE
    C:\\Jenkins\\workspace\\mbed-2-build-library\\libraries\\mbed\\common\\retarget.cpp 0x00000000   Number         0  retarget.o ABSOLUTE
    C:\\Jenkins\\workspace\\mbed-2-build-library\\libraries\\mbed\\common\\ticker_api.c 0x00000000   Number         0  ticker_api.o ABSOLUTE
    C:\\Jenkins\\workspace\\mbed-2-build-library\\libraries\\mbed\\common\\us_ticker_api.c 0x00000000   Number         0  us_ticker_api.o ABSOLUTE
    C:\\Jenkins\\workspace\\mbed-2-build-library\\libraries\\mbed\\common\\wait_api.c 0x00000000   Number         0  wait_api.o ABSOLUTE
    C:\\Jenkins\\workspace\\mbed-2-build-library\\libraries\\mbed\\targets\\cmsis\\TARGET_STM\\TARGET_STM32L0\\TARGET_NUCLEO_L073RZ\\TOOLCHAIN_ARM_STD\\startup_stm32l073xx.S 0x00000000   Number         0  startup_stm32l073xx.o ABSOLUTE
    C:\\Jenkins\\workspace\\mbed-2-build-library\\libraries\\mbed\\targets\\cmsis\\TARGET_STM\\TARGET_STM32L0\\TARGET_NUCLEO_L073RZ\\cmsis_nvic.c 0x00000000   Number         0  cmsis_nvic.o ABSOLUTE
    C:\\Jenkins\\workspace\\mbed-2-build-library\\libraries\\mbed\\targets\\cmsis\\TARGET_STM\\TARGET_STM32L0\\TARGET_NUCLEO_L073RZ\\hal_tick.c 0x00000000   Number         0  hal_tick.o ABSOLUTE
    C:\\Jenkins\\workspace\\mbed-2-build-library\\libraries\\mbed\\targets\\cmsis\\TARGET_STM\\TARGET_STM32L0\\TARGET_NUCLEO_L073RZ\\system_stm32l0xx.c 0x00000000   Number         0  system_stm32l0xx.o ABSOLUTE
    C:\\Jenkins\\workspace\\mbed-2-build-library\\libraries\\mbed\\targets\\cmsis\\TARGET_STM\\TARGET_STM32L0\\stm32l0xx_hal.c 0x00000000   Number         0  stm32l0xx_hal.o ABSOLUTE
    C:\\Jenkins\\workspace\\mbed-2-build-library\\libraries\\mbed\\targets\\cmsis\\TARGET_STM\\TARGET_STM32L0\\stm32l0xx_hal_adc.c 0x00000000   Number         0  stm32l0xx_hal_adc.o ABSOLUTE
    C:\\Jenkins\\workspace\\mbed-2-build-library\\libraries\\mbed\\targets\\cmsis\\TARGET_STM\\TARGET_STM32L0\\stm32l0xx_hal_adc_ex.c 0x00000000   Number         0  stm32l0xx_hal_adc_ex.o ABSOLUTE
    C:\\Jenkins\\workspace\\mbed-2-build-library\\libraries\\mbed\\targets\\cmsis\\TARGET_STM\\TARGET_STM32L0\\stm32l0xx_hal_comp.c 0x00000000   Number         0  stm32l0xx_hal_comp.o ABSOLUTE
    C:\\Jenkins\\workspace\\mbed-2-build-library\\libraries\\mbed\\targets\\cmsis\\TARGET_STM\\TARGET_STM32L0\\stm32l0xx_hal_comp_ex.c 0x00000000   Number         0  stm32l0xx_hal_comp_ex.o ABSOLUTE
    C:\\Jenkins\\workspace\\mbed-2-build-library\\libraries\\mbed\\targets\\cmsis\\TARGET_STM\\TARGET_STM32L0\\stm32l0xx_hal_cortex.c 0x00000000   Number         0  stm32l0xx_hal_cortex.o ABSOLUTE
    C:\\Jenkins\\workspace\\mbed-2-build-library\\libraries\\mbed\\targets\\cmsis\\TARGET_STM\\TARGET_STM32L0\\stm32l0xx_hal_crc.c 0x00000000   Number         0  stm32l0xx_hal_crc.o ABSOLUTE
    C:\\Jenkins\\workspace\\mbed-2-build-library\\libraries\\mbed\\targets\\cmsis\\TARGET_STM\\TARGET_STM32L0\\stm32l0xx_hal_crc_ex.c 0x00000000   Number         0  stm32l0xx_hal_crc_ex.o ABSOLUTE
    C:\\Jenkins\\workspace\\mbed-2-build-library\\libraries\\mbed\\targets\\cmsis\\TARGET_STM\\TARGET_STM32L0\\stm32l0xx_hal_dac.c 0x00000000   Number         0  stm32l0xx_hal_dac.o ABSOLUTE
    C:\\Jenkins\\workspace\\mbed-2-build-library\\libraries\\mbed\\targets\\cmsis\\TARGET_STM\\TARGET_STM32L0\\stm32l0xx_hal_dac_ex.c 0x00000000   Number         0  stm32l0xx_hal_dac_ex.o ABSOLUTE
    C:\\Jenkins\\workspace\\mbed-2-build-library\\libraries\\mbed\\targets\\cmsis\\TARGET_STM\\TARGET_STM32L0\\stm32l0xx_hal_dma.c 0x00000000   Number         0  stm32l0xx_hal_dma.o ABSOLUTE
    C:\\Jenkins\\workspace\\mbed-2-build-library\\libraries\\mbed\\targets\\cmsis\\TARGET_STM\\TARGET_STM32L0\\stm32l0xx_hal_firewall.c 0x00000000   Number         0  stm32l0xx_hal_firewall.o ABSOLUTE
    C:\\Jenkins\\workspace\\mbed-2-build-library\\libraries\\mbed\\targets\\cmsis\\TARGET_STM\\TARGET_STM32L0\\stm32l0xx_hal_flash.c 0x00000000   Number         0  stm32l0xx_hal_flash.o ABSOLUTE
    C:\\Jenkins\\workspace\\mbed-2-build-library\\libraries\\mbed\\targets\\cmsis\\TARGET_STM\\TARGET_STM32L0\\stm32l0xx_hal_flash_ex.c 0x00000000   Number         0  stm32l0xx_hal_flash_ex.o ABSOLUTE
    C:\\Jenkins\\workspace\\mbed-2-build-library\\libraries\\mbed\\targets\\cmsis\\TARGET_STM\\TARGET_STM32L0\\stm32l0xx_hal_flash_ramfunc.c 0x00000000   Number         0  stm32l0xx_hal_flash_ramfunc.o ABSOLUTE
    C:\\Jenkins\\workspace\\mbed-2-build-library\\libraries\\mbed\\targets\\cmsis\\TARGET_STM\\TARGET_STM32L0\\stm32l0xx_hal_gpio.c 0x00000000   Number         0  stm32l0xx_hal_gpio.o ABSOLUTE
    C:\\Jenkins\\workspace\\mbed-2-build-library\\libraries\\mbed\\targets\\cmsis\\TARGET_STM\\TARGET_STM32L0\\stm32l0xx_hal_i2c.c 0x00000000   Number         0  stm32l0xx_hal_i2c.o ABSOLUTE
    C:\\Jenkins\\workspace\\mbed-2-build-library\\libraries\\mbed\\targets\\cmsis\\TARGET_STM\\TARGET_STM32L0\\stm32l0xx_hal_i2c_ex.c 0x00000000   Number         0  stm32l0xx_hal_i2c_ex.o ABSOLUTE
    C:\\Jenkins\\workspace\\mbed-2-build-library\\libraries\\mbed\\targets\\cmsis\\TARGET_STM\\TARGET_STM32L0\\stm32l0xx_hal_i2s.c 0x00000000   Number         0  stm32l0xx_hal_i2s.o ABSOLUTE
    C:\\Jenkins\\workspace\\mbed-2-build-library\\libraries\\mbed\\targets\\cmsis\\TARGET_STM\\TARGET_STM32L0\\stm32l0xx_hal_irda.c 0x00000000   Number         0  stm32l0xx_hal_irda.o ABSOLUTE
    C:\\Jenkins\\workspace\\mbed-2-build-library\\libraries\\mbed\\targets\\cmsis\\TARGET_STM\\TARGET_STM32L0\\stm32l0xx_hal_iwdg.c 0x00000000   Number         0  stm32l0xx_hal_iwdg.o ABSOLUTE
    C:\\Jenkins\\workspace\\mbed-2-build-library\\libraries\\mbed\\targets\\cmsis\\TARGET_STM\\TARGET_STM32L0\\stm32l0xx_hal_lcd.c 0x00000000   Number         0  stm32l0xx_hal_lcd.o ABSOLUTE
    C:\\Jenkins\\workspace\\mbed-2-build-library\\libraries\\mbed\\targets\\cmsis\\TARGET_STM\\TARGET_STM32L0\\stm32l0xx_hal_lptim.c 0x00000000   Number         0  stm32l0xx_hal_lptim.o ABSOLUTE
    C:\\Jenkins\\workspace\\mbed-2-build-library\\libraries\\mbed\\targets\\cmsis\\TARGET_STM\\TARGET_STM32L0\\stm32l0xx_hal_pcd.c 0x00000000   Number         0  stm32l0xx_hal_pcd.o ABSOLUTE
    C:\\Jenkins\\workspace\\mbed-2-build-library\\libraries\\mbed\\targets\\cmsis\\TARGET_STM\\TARGET_STM32L0\\stm32l0xx_hal_pcd_ex.c 0x00000000   Number         0  stm32l0xx_hal_pcd_ex.o ABSOLUTE
    C:\\Jenkins\\workspace\\mbed-2-build-library\\libraries\\mbed\\targets\\cmsis\\TARGET_STM\\TARGET_STM32L0\\stm32l0xx_hal_pwr.c 0x00000000   Number         0  stm32l0xx_hal_pwr.o ABSOLUTE
    C:\\Jenkins\\workspace\\mbed-2-build-library\\libraries\\mbed\\targets\\cmsis\\TARGET_STM\\TARGET_STM32L0\\stm32l0xx_hal_pwr_ex.c 0x00000000   Number         0  stm32l0xx_hal_pwr_ex.o ABSOLUTE
    C:\\Jenkins\\workspace\\mbed-2-build-library\\libraries\\mbed\\targets\\cmsis\\TARGET_STM\\TARGET_STM32L0\\stm32l0xx_hal_rcc.c 0x00000000   Number         0  stm32l0xx_hal_rcc.o ABSOLUTE
    C:\\Jenkins\\workspace\\mbed-2-build-library\\libraries\\mbed\\targets\\cmsis\\TARGET_STM\\TARGET_STM32L0\\stm32l0xx_hal_rcc_ex.c 0x00000000   Number         0  stm32l0xx_hal_rcc_ex.o ABSOLUTE
    C:\\Jenkins\\workspace\\mbed-2-build-library\\libraries\\mbed\\targets\\cmsis\\TARGET_STM\\TARGET_STM32L0\\stm32l0xx_hal_rng.c 0x00000000   Number         0  stm32l0xx_hal_rng.o ABSOLUTE
    C:\\Jenkins\\workspace\\mbed-2-build-library\\libraries\\mbed\\targets\\cmsis\\TARGET_STM\\TARGET_STM32L0\\stm32l0xx_hal_rtc.c 0x00000000   Number         0  stm32l0xx_hal_rtc.o ABSOLUTE
    C:\\Jenkins\\workspace\\mbed-2-build-library\\libraries\\mbed\\targets\\cmsis\\TARGET_STM\\TARGET_STM32L0\\stm32l0xx_hal_rtc_ex.c 0x00000000   Number         0  stm32l0xx_hal_rtc_ex.o ABSOLUTE
    C:\\Jenkins\\workspace\\mbed-2-build-library\\libraries\\mbed\\targets\\cmsis\\TARGET_STM\\TARGET_STM32L0\\stm32l0xx_hal_smartcard.c 0x00000000   Number         0  stm32l0xx_hal_smartcard.o ABSOLUTE
    C:\\Jenkins\\workspace\\mbed-2-build-library\\libraries\\mbed\\targets\\cmsis\\TARGET_STM\\TARGET_STM32L0\\stm32l0xx_hal_smartcard_ex.c 0x00000000   Number         0  stm32l0xx_hal_smartcard_ex.o ABSOLUTE
    C:\\Jenkins\\workspace\\mbed-2-build-library\\libraries\\mbed\\targets\\cmsis\\TARGET_STM\\TARGET_STM32L0\\stm32l0xx_hal_smbus.c 0x00000000   Number         0  stm32l0xx_hal_smbus.o ABSOLUTE
    C:\\Jenkins\\workspace\\mbed-2-build-library\\libraries\\mbed\\targets\\cmsis\\TARGET_STM\\TARGET_STM32L0\\stm32l0xx_hal_spi.c 0x00000000   Number         0  stm32l0xx_hal_spi.o ABSOLUTE
    C:\\Jenkins\\workspace\\mbed-2-build-library\\libraries\\mbed\\targets\\cmsis\\TARGET_STM\\TARGET_STM32L0\\stm32l0xx_hal_tim.c 0x00000000   Number         0  stm32l0xx_hal_tim.o ABSOLUTE
    C:\\Jenkins\\workspace\\mbed-2-build-library\\libraries\\mbed\\targets\\cmsis\\TARGET_STM\\TARGET_STM32L0\\stm32l0xx_hal_tim_ex.c 0x00000000   Number         0  stm32l0xx_hal_tim_ex.o ABSOLUTE
    C:\\Jenkins\\workspace\\mbed-2-build-library\\libraries\\mbed\\targets\\cmsis\\TARGET_STM\\TARGET_STM32L0\\stm32l0xx_hal_tsc.c 0x00000000   Number         0  stm32l0xx_hal_tsc.o ABSOLUTE
    C:\\Jenkins\\workspace\\mbed-2-build-library\\libraries\\mbed\\targets\\cmsis\\TARGET_STM\\TARGET_STM32L0\\stm32l0xx_hal_uart.c 0x00000000   Number         0  stm32l0xx_hal_uart.o ABSOLUTE
    C:\\Jenkins\\workspace\\mbed-2-build-library\\libraries\\mbed\\targets\\cmsis\\TARGET_STM\\TARGET_STM32L0\\stm32l0xx_hal_uart_ex.c 0x00000000   Number         0  stm32l0xx_hal_uart_ex.o ABSOLUTE
    C:\\Jenkins\\workspace\\mbed-2-build-library\\libraries\\mbed\\targets\\cmsis\\TARGET_STM\\TARGET_STM32L0\\stm32l0xx_hal_usart.c 0x00000000   Number         0  stm32l0xx_hal_usart.o ABSOLUTE
    C:\\Jenkins\\workspace\\mbed-2-build-library\\libraries\\mbed\\targets\\cmsis\\TARGET_STM\\TARGET_STM32L0\\stm32l0xx_hal_wwdg.c 0x00000000   Number         0  stm32l0xx_hal_wwdg.o ABSOLUTE
    C:\\Jenkins\\workspace\\mbed-2-build-library\\libraries\\mbed\\targets\\hal\\TARGET_STM\\TARGET_STM32L0\\TARGET_NUCLEO_L073RZ\\PeripheralPins.c 0x00000000   Number         0  PeripheralPins.o ABSOLUTE
    C:\\Jenkins\\workspace\\mbed-2-build-library\\libraries\\mbed\\targets\\hal\\TARGET_STM\\TARGET_STM32L0\\gpio_api.c 0x00000000   Number         0  gpio_api.o ABSOLUTE
    C:\\Jenkins\\workspace\\mbed-2-build-library\\libraries\\mbed\\targets\\hal\\TARGET_STM\\TARGET_STM32L0\\gpio_irq_api.c 0x00000000   Number         0  gpio_irq_api.o ABSOLUTE
    C:\\Jenkins\\workspace\\mbed-2-build-library\\libraries\\mbed\\targets\\hal\\TARGET_STM\\TARGET_STM32L0\\mbed_overrides.c 0x00000000   Number         0  mbed_overrides.o ABSOLUTE
    C:\\Jenkins\\workspace\\mbed-2-build-library\\libraries\\mbed\\targets\\hal\\TARGET_STM\\TARGET_STM32L0\\pinmap.c 0x00000000   Number         0  pinmap.o ABSOLUTE
    C:\\Jenkins\\workspace\\mbed-2-build-library\\libraries\\mbed\\targets\\hal\\TARGET_STM\\TARGET_STM32L0\\serial_api.c 0x00000000   Number         0  serial_api.o ABSOLUTE
    C:\\Jenkins\\workspace\\mbed-2-build-library\\libraries\\mbed\\targets\\hal\\TARGET_STM\\TARGET_STM32L0\\spi_api.c 0x00000000   Number         0  spi_api.o ABSOLUTE
    C:\\Jenkins\\workspace\\mbed-2-build-library\\libraries\\mbed\\targets\\hal\\TARGET_STM\\TARGET_STM32L0\\us_ticker.c 0x00000000   Number         0  us_ticker.o ABSOLUTE
    app/SerialDisplay.cpp                    0x00000000   Number         0  serialdisplay.o ABSOLUTE
    app/main.cpp                             0x00000000   Number         0  main.o ABSOLUTE
    app\SerialDisplay.cpp                    0x00000000   Number         0  serialdisplay.o ABSOLUTE
    app\main.cpp                             0x00000000   Number         0  main.o ABSOLUTE
    board/board.cpp                          0x00000000   Number         0  board.o ABSOLUTE
    board\board.cpp                          0x00000000   Number         0  board.o ABSOLUTE
    dc.s                                     0x00000000   Number         0  dc.o ABSOLUTE
    mac/LoRaWAN-lib/LoRaMac-api-v3.cpp       0x00000000   Number         0  loramac-api-v3.o ABSOLUTE
    mac/LoRaWAN-lib/LoRaMac.cpp              0x00000000   Number         0  loramac.o ABSOLUTE
    mac/LoRaWAN-lib/LoRaMacCrypto.cpp        0x00000000   Number         0  loramaccrypto.o ABSOLUTE
    mac\LoRaWAN-lib\LoRaMac-api-v3.cpp       0x00000000   Number         0  loramac-api-v3.o ABSOLUTE
    mac\LoRaWAN-lib\LoRaMac.cpp              0x00000000   Number         0  loramac.o ABSOLUTE
    radio/SX1276Lib/radio/radio.cpp          0x00000000   Number         0  radio.o ABSOLUTE
    radio/SX1276Lib/sx1276/sx1276-hal.cpp    0x00000000   Number         0  sx1276-hal.o ABSOLUTE
    radio/SX1276Lib/sx1276/sx1276.cpp        0x00000000   Number         0  sx1276.o ABSOLUTE
    radio\SX1276Lib\radio\radio.cpp          0x00000000   Number         0  radio.o ABSOLUTE
    radio\SX1276Lib\sx1276\sx1276-hal.cpp    0x00000000   Number         0  sx1276-hal.o ABSOLUTE
    radio\SX1276Lib\sx1276\sx1276.cpp        0x00000000   Number         0  sx1276.o ABSOLUTE
    system/crypto/aes.cpp                    0x00000000   Number         0  aes.o ABSOLUTE
    system/crypto/cmac.cpp                   0x00000000   Number         0  cmac.o ABSOLUTE
    system/timer.cpp                         0x00000000   Number         0  timer.o ABSOLUTE
    system/utilities.cpp                     0x00000000   Number         0  utilities.o ABSOLUTE
    system\timer.cpp                         0x00000000   Number         0  timer.o ABSOLUTE
    system\utilities.cpp                     0x00000000   Number         0  utilities.o ABSOLUTE
    RESET                                    0x08000000   Section      192  startup_stm32l073xx.o(RESET)
    !!!main                                  0x080000c0   Section        8  __main.o(!!!main)
    !!!scatter                               0x080000c8   Section       60  __scatter.o(!!!scatter)
    !!handler_zi                             0x08000104   Section       28  __scatter_zi.o(!!handler_zi)
    .ARM.Collect$$_printf_percent$$00000000  0x08000120   Section        2  _printf_percent.o(.ARM.Collect$$_printf_percent$$00000000)
    .ARM.Collect$$_printf_percent$$00000001  0x08000122   Section       10  _printf_n.o(.ARM.Collect$$_printf_percent$$00000001)
    .ARM.Collect$$_printf_percent$$00000002  0x0800012c   Section       10  _printf_p.o(.ARM.Collect$$_printf_percent$$00000002)
    .ARM.Collect$$_printf_percent$$00000003  0x08000136   Section       10  _printf_f.o(.ARM.Collect$$_printf_percent$$00000003)
    .ARM.Collect$$_printf_percent$$00000004  0x08000140   Section       10  _printf_e.o(.ARM.Collect$$_printf_percent$$00000004)
    .ARM.Collect$$_printf_percent$$00000005  0x0800014a   Section       10  _printf_g.o(.ARM.Collect$$_printf_percent$$00000005)
    .ARM.Collect$$_printf_percent$$00000006  0x08000154   Section       10  _printf_a.o(.ARM.Collect$$_printf_percent$$00000006)
    .ARM.Collect$$_printf_percent$$00000007  0x0800015e   Section       10  _printf_ll.o(.ARM.Collect$$_printf_percent$$00000007)
    .ARM.Collect$$_printf_percent$$00000008  0x08000168   Section       10  _printf_i.o(.ARM.Collect$$_printf_percent$$00000008)
    .ARM.Collect$$_printf_percent$$00000009  0x08000172   Section       10  _printf_d.o(.ARM.Collect$$_printf_percent$$00000009)
    .ARM.Collect$$_printf_percent$$0000000A  0x0800017c   Section       10  _printf_u.o(.ARM.Collect$$_printf_percent$$0000000A)
    .ARM.Collect$$_printf_percent$$0000000B  0x08000186   Section       10  _printf_o.o(.ARM.Collect$$_printf_percent$$0000000B)
    .ARM.Collect$$_printf_percent$$0000000C  0x08000190   Section       10  _printf_x.o(.ARM.Collect$$_printf_percent$$0000000C)
    .ARM.Collect$$_printf_percent$$0000000D  0x0800019a   Section       10  _printf_lli.o(.ARM.Collect$$_printf_percent$$0000000D)
    .ARM.Collect$$_printf_percent$$0000000E  0x080001a4   Section       10  _printf_lld.o(.ARM.Collect$$_printf_percent$$0000000E)
    .ARM.Collect$$_printf_percent$$0000000F  0x080001ae   Section       10  _printf_llu.o(.ARM.Collect$$_printf_percent$$0000000F)
    .ARM.Collect$$_printf_percent$$00000010  0x080001b8   Section       10  _printf_llo.o(.ARM.Collect$$_printf_percent$$00000010)
    .ARM.Collect$$_printf_percent$$00000011  0x080001c2   Section       10  _printf_llx.o(.ARM.Collect$$_printf_percent$$00000011)
    .ARM.Collect$$_printf_percent$$00000012  0x080001cc   Section       10  _printf_l.o(.ARM.Collect$$_printf_percent$$00000012)
    .ARM.Collect$$_printf_percent$$00000013  0x080001d6   Section       10  _printf_c.o(.ARM.Collect$$_printf_percent$$00000013)
    .ARM.Collect$$_printf_percent$$00000014  0x080001e0   Section       10  _printf_s.o(.ARM.Collect$$_printf_percent$$00000014)
    .ARM.Collect$$_printf_percent$$00000015  0x080001ea   Section       10  _printf_lc.o(.ARM.Collect$$_printf_percent$$00000015)
    .ARM.Collect$$_printf_percent$$00000016  0x080001f4   Section       10  _printf_ls.o(.ARM.Collect$$_printf_percent$$00000016)
    .ARM.Collect$$_printf_percent$$00000017  0x080001fe   Section        4  _printf_percent_end.o(.ARM.Collect$$_printf_percent$$00000017)
    .ARM.Collect$$libinit$$00000000          0x08000202   Section        2  libinit.o(.ARM.Collect$$libinit$$00000000)
    .ARM.Collect$$libinit$$00000002          0x08000204   Section        0  libinit2.o(.ARM.Collect$$libinit$$00000002)
    .ARM.Collect$$libinit$$00000004          0x08000204   Section        0  libinit2.o(.ARM.Collect$$libinit$$00000004)
    .ARM.Collect$$libinit$$00000005          0x08000204   Section        8  libinit2.o(.ARM.Collect$$libinit$$00000005)
    .ARM.Collect$$libinit$$0000000A          0x0800020c   Section        0  libinit2.o(.ARM.Collect$$libinit$$0000000A)
    .ARM.Collect$$libinit$$0000000C          0x0800020c   Section        0  libinit2.o(.ARM.Collect$$libinit$$0000000C)
    .ARM.Collect$$libinit$$0000000E          0x0800020c   Section        0  libinit2.o(.ARM.Collect$$libinit$$0000000E)
    .ARM.Collect$$libinit$$0000000F          0x0800020c   Section        6  libinit2.o(.ARM.Collect$$libinit$$0000000F)
    .ARM.Collect$$libinit$$00000011          0x08000212   Section        0  libinit2.o(.ARM.Collect$$libinit$$00000011)
    .ARM.Collect$$libinit$$00000012          0x08000212   Section       12  libinit2.o(.ARM.Collect$$libinit$$00000012)
    .ARM.Collect$$libinit$$00000013          0x0800021e   Section        0  libinit2.o(.ARM.Collect$$libinit$$00000013)
    .ARM.Collect$$libinit$$00000015          0x0800021e   Section        0  libinit2.o(.ARM.Collect$$libinit$$00000015)
    .ARM.Collect$$libinit$$00000016          0x0800021e   Section       10  libinit2.o(.ARM.Collect$$libinit$$00000016)
    .ARM.Collect$$libinit$$00000017          0x08000228   Section        0  libinit2.o(.ARM.Collect$$libinit$$00000017)
    .ARM.Collect$$libinit$$00000019          0x08000228   Section        0  libinit2.o(.ARM.Collect$$libinit$$00000019)
    .ARM.Collect$$libinit$$0000001B          0x08000228   Section        0  libinit2.o(.ARM.Collect$$libinit$$0000001B)
    .ARM.Collect$$libinit$$0000001D          0x08000228   Section        0  libinit2.o(.ARM.Collect$$libinit$$0000001D)
    .ARM.Collect$$libinit$$0000001F          0x08000228   Section        0  libinit2.o(.ARM.Collect$$libinit$$0000001F)
    .ARM.Collect$$libinit$$00000021          0x08000228   Section        0  libinit2.o(.ARM.Collect$$libinit$$00000021)
    .ARM.Collect$$libinit$$00000023          0x08000228   Section        0  libinit2.o(.ARM.Collect$$libinit$$00000023)
    .ARM.Collect$$libinit$$00000024          0x08000228   Section        4  libinit2.o(.ARM.Collect$$libinit$$00000024)
    .ARM.Collect$$libinit$$00000025          0x0800022c   Section        0  libinit2.o(.ARM.Collect$$libinit$$00000025)
    .ARM.Collect$$libinit$$0000002C          0x0800022c   Section        0  libinit2.o(.ARM.Collect$$libinit$$0000002C)
    .ARM.Collect$$libinit$$0000002E          0x0800022c   Section        0  libinit2.o(.ARM.Collect$$libinit$$0000002E)
    .ARM.Collect$$libinit$$00000030          0x0800022c   Section        0  libinit2.o(.ARM.Collect$$libinit$$00000030)
    .ARM.Collect$$libinit$$00000031          0x0800022c   Section        4  libinit2.o(.ARM.Collect$$libinit$$00000031)
    .ARM.Collect$$libinit$$00000032          0x08000230   Section        0  libinit2.o(.ARM.Collect$$libinit$$00000032)
    .ARM.Collect$$libinit$$00000033          0x08000230   Section        2  libinit2.o(.ARM.Collect$$libinit$$00000033)
    .ARM.Collect$$libshutdown$$00000002      0x08000232   Section        0  libshutdown2.o(.ARM.Collect$$libshutdown$$00000002)
    .ARM.Collect$$libshutdown$$00000004      0x08000232   Section        0  libshutdown2.o(.ARM.Collect$$libshutdown$$00000004)
    .ARM.Collect$$rtentry$$00000000          0x08000232   Section        0  __rtentry.o(.ARM.Collect$$rtentry$$00000000)
    .ARM.Collect$$rtentry$$00000002          0x08000232   Section        0  __rtentry2.o(.ARM.Collect$$rtentry$$00000002)
    .ARM.Collect$$rtentry$$00000004          0x08000232   Section        6  __rtentry4.o(.ARM.Collect$$rtentry$$00000004)
    .ARM.Collect$$rtentry$$00000009          0x08000238   Section        0  __rtentry2.o(.ARM.Collect$$rtentry$$00000009)
    .ARM.Collect$$rtentry$$0000000A          0x08000238   Section        4  __rtentry2.o(.ARM.Collect$$rtentry$$0000000A)
    .ARM.Collect$$rtentry$$0000000C          0x0800023c   Section        0  __rtentry2.o(.ARM.Collect$$rtentry$$0000000C)
    .ARM.Collect$$rtentry$$0000000D          0x0800023c   Section        8  __rtentry2.o(.ARM.Collect$$rtentry$$0000000D)
    .emb_text                                0x08000244   Section       56  rt_memcpy.o(.emb_text)
    .emb_text                                0x0800027c   Section        0  maybetermalloc1.o(.emb_text)
    .text                                    0x0800027c   Section       28  startup_stm32l073xx.o(.text)
    .text                                    0x08000298   Section        0  vfprintf.o(.text)
    .text                                    0x080002a8   Section        0  c89vsprintf.o(.text)
    .text                                    0x080002cc   Section        0  c89vsnprintf.o(.text)
    .text                                    0x08000304   Section        0  __0sscanf.o(.text)
    .text                                    0x08000344   Section        0  _scanf_int.o(.text)
    .text                                    0x08000490   Section        0  fflush.o(.text)
    .text                                    0x080004f8   Section        0  aeabi_atexit.o(.text)
    .text                                    0x08000524   Section        0  strlen.o(.text)
    .text                                    0x08000568   Section        0  strncmp.o(.text)
    .text                                    0x08000608   Section        0  rt_memcpy.o(.text)
    .text                                    0x0800068a   Section        0  rt_memclr.o(.text)
    .text                                    0x080006cc   Section      160  strcmpv6m.o(.text)
    .text                                    0x0800076c   Section      488  aeabi_sdivfast.o(.text)
    .text                                    0x08000954   Section        0  init_aeabi.o(.text)
    .text                                    0x08000978   Section        0  daddsub.o(.text)
    _dadd1                                   0x08000979   Thumb Code   290  daddsub.o(.text)
    _dsub1                                   0x08000a9b   Thumb Code   470  daddsub.o(.text)
    .text                                    0x08000cd0   Section        0  ddiv.o(.text)
    .text                                    0x08001118   Section        0  dfixi.o(.text)
    .text                                    0x08001184   Section        0  dfixui.o(.text)
    .text                                    0x080011cc   Section        0  dflti.o(.text)
    .text                                    0x08001224   Section        0  dmul.o(.text)
    .text                                    0x0800146c   Section        0  dscalbn.o(.text)
    .text                                    0x080014cc   Section        0  ffixi.o(.text)
    .text                                    0x08001518   Section        8  rt_new_handler_addr.o(.text)
    .text                                    0x08001520   Section        8  rt_ddtor_pointer_addr.o(.text)
    .text                                    0x08001528   Section        0  h1_alloc.o(.text)
    .text                                    0x0800158a   Section        0  h1_free.o(.text)
    .text                                    0x080015d6   Section        0  _printf_pad.o(.text)
    .text                                    0x08001624   Section        0  _printf_truncate.o(.text)
    .text                                    0x08001648   Section        0  _printf_str.o(.text)
    .text                                    0x0800169c   Section        0  _printf_dec.o(.text)
    .text                                    0x08001708   Section        0  _printf_charcount.o(.text)
    .text                                    0x08001730   Section        0  _printf_char_common.o(.text)
    _printf_input_char                       0x08001731   Thumb Code    10  _printf_char_common.o(.text)
    .text                                    0x08001760   Section        0  _sputc.o(.text)
    .text                                    0x0800176a   Section        0  _snputc.o(.text)
    .text                                    0x0800177c   Section        0  _printf_char_file.o(.text)
    .text                                    0x080017a4   Section        0  _printf_wctomb.o(.text)
    .text                                    0x08001860   Section        0  _printf_longlong_dec.o(.text)
    .text                                    0x080018d0   Section        0  _printf_oct_int_ll.o(.text)
    _printf_longlong_oct_internal            0x080018d1   Thumb Code     0  _printf_oct_int_ll.o(.text)
    .text                                    0x08001940   Section        0  _printf_hex_int_ll_ptr.o(.text)
    _printf_hex_common                       0x08001941   Thumb Code     0  _printf_hex_int_ll_ptr.o(.text)
    .text                                    0x080019d8   Section        0  __printf_flags_ss_wp.o(.text)
    .text                                    0x08001b60   Section        0  _chval.o(.text)
    .text                                    0x08001b80   Section        0  scanf_char.o(.text)
    _scanf_char_input                        0x08001b81   Thumb Code    12  scanf_char.o(.text)
    .text                                    0x08001bb0   Section        0  _sgetc.o(.text)
    .text                                    0x08001bf4   Section        0  ferror.o(.text)
    .text                                    0x08001bfc   Section        0  fseek.o(.text)
    .text                                    0x08001cf0   Section        0  setvbuf.o(.text)
    .text                                    0x08001d3c   Section        0  stdio.o(.text)
    .text                                    0x08001e2c   Section        0  initio.o(.text)
    .text                                    0x08001f68   Section        0  cxa_finalize.o(.text)
    .text                                    0x08001faa   Section        0  defsig_pvfn_outer.o(.text)
    .text                                    0x08001fb6   Section        0  arm_newhandler_noexceptions.o(.text)
    .text                                    0x08001fc0   Section        0  dcmpin.o(.text)
    .text                                    0x08002050   Section        0  drnd.o(.text)
    .text                                    0x08002140   Section        8  rt_heap_descriptor.o(.text)
    .text                                    0x08002148   Section        0  hguard.o(.text)
    .text                                    0x0800214c   Section        0  init_alloc.o(.text)
    .text                                    0x080021d4   Section        0  h1_init.o(.text)
    .text                                    0x080021e2   Section        0  lludiv10.o(.text)
    .text                                    0x0800225c   Section        0  isspace.o(.text)
    .text                                    0x0800226e   Section        0  _printf_intcommon.o(.text)
    .text                                    0x08002320   Section        0  _printf_fp_dec.o(.text)
    _fp_digits                               0x08002323   Thumb Code   408  _printf_fp_dec.o(.text)
    .text                                    0x08002734   Section        0  _printf_fp_hex.o(.text)
    .text                                    0x08002a0c   Section        0  _printf_char.o(.text)
    .text                                    0x08002a3a   Section        0  _printf_wchar.o(.text)
    .text                                    0x08002a68   Section        0  _scanf.o(.text)
    .text                                    0x08002de8   Section        0  ftell.o(.text)
    .text                                    0x08002e2c   Section        0  fopen.o(.text)
    _freopen_locked                          0x08002e2d   Thumb Code     0  fopen.o(.text)
    .text                                    0x08002f14   Section        0  fclose.o(.text)
    .text                                    0x08002f60   Section        0  _wcrtomb.o(.text)
    .text                                    0x08002fa0   Section        0  defsig_exit.o(.text)
    .text                                    0x08002fac   Section        0  defsig_rtred_outer.o(.text)
    .text                                    0x08002fb8   Section        0  defsig_pvfn_inner.o(.text)
    .text                                    0x08002fe8   Section        0  rtudiv10.o(.text)
    .text                                    0x08003010   Section        0  arm_exceptions_terminate.o(.text)
    .text                                    0x0800302c   Section        0  arm_exceptions_globs.o(.text)
    [local to arm_exceptions_c]::__default_terminate_handler() 0x0800302d   Thumb Code     6  arm_exceptions_globs.o(.text)
    .text                                    0x08003080   Section        0  cmpret.o(.text)
    .text                                    0x080030b0   Section        0  dnan2.o(.text)
    .text                                    0x080030c4   Section        0  sys_exit.o(.text)
    .text                                    0x080030d0   Section       16  rt_ctype_table.o(.text)
    .text                                    0x080030e0   Section        8  rt_locale.o(.text)
    .text                                    0x080030e8   Section        8  rt_eh_globals_addr.o(.text)
    .text                                    0x080030f0   Section        8  rt_errno_addr.o(.text)
    .text                                    0x080030f8   Section        0  h1_extend.o(.text)
    .text                                    0x0800312c   Section        0  _printf_fp_infnan.o(.text)
    .text                                    0x080031b4   Section        0  bigflt0.o(.text)
    .text                                    0x0800327c   Section        0  btod.o(.text)
    btod_internal_mul                        0x080032bd   Thumb Code   456  btod.o(.text)
    btod_internal_div                        0x08003485   Thumb Code   494  btod.o(.text)
    .text                                    0x08003724   Section        0  flsbuf.o(.text)
    .text                                    0x08003914   Section        0  abort.o(.text)
    .text                                    0x08003928   Section        0  defsig_general.o(.text)
    .text                                    0x0800395c   Section        0  defsig_rtred_inner.o(.text)
    .text                                    0x08003990   Section        0  defsig_rtmem_outer.o(.text)
    .text                                    0x0800399c   Section        0  heapauxa.o(.text)
    .text                                    0x080039ec   Section        0  arm_exceptions_mem.o(.text)
    .text                                    0x08003a2e   Section        0  retnan.o(.text)
    .text                                    0x08003a8c   Section        0  sys_wrch.o(.text)
    .text                                    0x08003a98   Section        2  use_no_semi.o(.text)
    .text                                    0x08003a9a   Section        0  defsig_abrt_outer.o(.text)
    .text                                    0x08003a9a   Section        0  indicate_semi.o(.text)
    .text                                    0x08003aa8   Section        0  defsig_rtmem_inner.o(.text)
    .text                                    0x08003af8   Section        0  defsig_abrt_inner.o(.text)
    .text                                    0x08003b28   Section        0  __dczerorl2.o(.text)
    i.$Sub$$main                             0x08003b7e   Section        0  retarget.o(i.$Sub$$main)
    i.<Func1>                                0x08003b8e   Section        0  SerialBase.o(i.<Func1>)
    <Func1>                                  0x08003b8f   Thumb Code     8  SerialBase.o(i.<Func1>)
    i.HAL_GPIO_Init                          0x08003b98   Section        0  stm32l0xx_hal_gpio.o(i.HAL_GPIO_Init)
    i.HAL_GetTick                            0x08003d1c   Section        0  stm32l0xx_hal.o(i.HAL_GetTick)
    i.HAL_IncTick                            0x08003d28   Section        0  stm32l0xx_hal.o(i.HAL_IncTick)
    i.HAL_Init                               0x08003d38   Section        0  stm32l0xx_hal.o(i.HAL_Init)
    i.HAL_InitTick                           0x08003d58   Section        0  hal_tick.o(i.HAL_InitTick)
    i.HAL_MspInit                            0x08003e04   Section        0  stm32l0xx_hal.o(i.HAL_MspInit)
    i.HAL_RCC_ClockConfig                    0x08003e08   Section        0  stm32l0xx_hal_rcc.o(i.HAL_RCC_ClockConfig)
    i.HAL_RCC_GetPCLK1Freq                   0x08003f80   Section        0  stm32l0xx_hal_rcc.o(i.HAL_RCC_GetPCLK1Freq)
    i.HAL_RCC_GetPCLK2Freq                   0x08003fb0   Section        0  stm32l0xx_hal_rcc.o(i.HAL_RCC_GetPCLK2Freq)
    i.HAL_RCC_GetSysClockFreq                0x08003fe0   Section        0  stm32l0xx_hal_rcc.o(i.HAL_RCC_GetSysClockFreq)
    i.HAL_RCC_OscConfig                      0x08004070   Section        0  stm32l0xx_hal_rcc.o(i.HAL_RCC_OscConfig)
    i.HAL_SPI_Init                           0x080044f8   Section        0  stm32l0xx_hal_spi.o(i.HAL_SPI_Init)
    i.HAL_SPI_MspInit                        0x0800457c   Section        0  stm32l0xx_hal_spi.o(i.HAL_SPI_MspInit)
    i.HAL_TIM_Base_Init                      0x0800457e   Section        0  stm32l0xx_hal_tim.o(i.HAL_TIM_Base_Init)
    i.HAL_TIM_Base_MspInit                   0x080045b0   Section        0  stm32l0xx_hal_tim.o(i.HAL_TIM_Base_MspInit)
    i.HAL_TIM_Base_Start                     0x080045b2   Section        0  stm32l0xx_hal_tim.o(i.HAL_TIM_Base_Start)
    i.HAL_TIM_OC_Start                       0x080045ca   Section        0  stm32l0xx_hal_tim.o(i.HAL_TIM_OC_Start)
    i.HAL_UART_Init                          0x080045ee   Section        0  stm32l0xx_hal_uart.o(i.HAL_UART_Init)
    i.HAL_UART_MspInit                       0x08004654   Section        0  stm32l0xx_hal_uart.o(i.HAL_UART_MspInit)
    i.NVIC_SetVector                         0x08004658   Section        0  cmsis_nvic.o(i.NVIC_SetVector)
    i.SetSysClock_PLL_HSE                    0x0800468c   Section        0  system_stm32l0xx.o(i.SetSysClock_PLL_HSE)
    i.Set_GPIO_Clock                         0x08004720   Section        0  pinmap.o(i.Set_GPIO_Clock)
    i.SystemCoreClockUpdate                  0x080047dc   Section        0  system_stm32l0xx.o(i.SystemCoreClockUpdate)
    i.SystemInit                             0x0800486c   Section        0  system_stm32l0xx.o(i.SystemInit)
    i.TIM_Base_SetConfig                     0x08004950   Section        0  stm32l0xx_hal_tim.o(i.TIM_Base_SetConfig)
    TIM_Base_SetConfig                       0x08004951   Thumb Code    84  stm32l0xx_hal_tim.o(i.TIM_Base_SetConfig)
    i.UART_AdvFeatureConfig                  0x080049b0   Section        0  stm32l0xx_hal_uart.o(i.UART_AdvFeatureConfig)
    i.UART_CheckIdleState                    0x08004a7c   Section        0  stm32l0xx_hal_uart.o(i.UART_CheckIdleState)
    i.UART_SetConfig                         0x08004ad0   Section        0  stm32l0xx_hal_uart.o(i.UART_SetConfig)
    i.UART_WaitOnFlagUntilTimeout            0x08004d64   Section        0  stm32l0xx_hal_uart.o(i.UART_WaitOnFlagUntilTimeout)
    i._Z10ScheduleTxv                        0x08004e3c   Section        0  loramac.o(i._Z10ScheduleTxv)
    ScheduleTx()                             0x08004e3d   Thumb Code   962  loramac.o(i._Z10ScheduleTxv)
    i._Z10TimerStartP12TimerEvent_s          0x08005214   Section        0  timer.o(i._Z10TimerStartP12TimerEvent_s)
    i._Z11McpsConfirmP12sMcpsConfirm         0x0800522c   Section        0  main.o(i._Z11McpsConfirmP12sMcpsConfirm)
    McpsConfirm(sMcpsConfirm*)               0x0800522d   Thumb Code    44  main.o(i._Z11McpsConfirmP12sMcpsConfirm)
    i._Z11MlmeConfirmP12sMlmeConfirm         0x08005260   Section        0  main.o(i._Z11MlmeConfirmP12sMlmeConfirm)
    MlmeConfirm(sMlmeConfirm*)               0x08005261   Thumb Code    54  main.o(i._Z11MlmeConfirmP12sMlmeConfirm)
    i._Z11aes_encryptPKhPhPK11aes_context    0x080052a0   Section        0  aes.o(i._Z11aes_encryptPKhPhPK11aes_context)
    i._Z11aes_set_keyPKhhP11aes_context      0x08005590   Section        0  aes.o(i._Z11aes_set_keyPKhhP11aes_context)
    i._Z12PrepareFrameP14uLoRaMacHeaderP17uLoRaMacFrameCtrlhPvt 0x080056b4   Section        0  loramac.o(i._Z12PrepareFrameP14uLoRaMacHeaderP17uLoRaMacFrameCtrlhPvt)
    i._Z13AES_CMAC_InitP13_AES_CMAC_CTX      0x080059b4   Section        0  cmac.o(i._Z13AES_CMAC_InitP13_AES_CMAC_CTX)
    i._Z13AddMacCommandhhh                   0x080059d4   Section        0  loramac.o(i._Z13AddMacCommandhhh)
    AddMacCommand(unsigned char, unsigned char, unsigned char) 0x080059d5   Thumb Code   142  loramac.o(i._Z13AddMacCommandhhh)
    i._Z13OnRadioRxDonePhtsa                 0x08005a6c   Section        0  loramac.o(i._Z13OnRadioRxDonePhtsa)
    OnRadioRxDone(unsigned char*, unsigned short, short, signed char) 0x08005a6d   Thumb Code  1208  loramac.o(i._Z13OnRadioRxDonePhtsa)
    i._Z13OnRadioTxDonev                     0x08005f34   Section        0  loramac.o(i._Z13OnRadioTxDonev)
    OnRadioTxDone()                          0x08005f35   Thumb Code   182  loramac.o(i._Z13OnRadioTxDonev)
    i._Z13RxWindowSetupjajtb                 0x0800601c   Section        0  loramac.o(i._Z13RxWindowSetupjajtb)
    RxWindowSetup(unsigned, signed char, unsigned, unsigned short, bool) 0x0800601d   Thumb Code   214  loramac.o(i._Z13RxWindowSetupjajtb)
    i._Z13TimerSetValueP12TimerEvent_sj      0x0800611c   Section        0  timer.o(i._Z13TimerSetValueP12TimerEvent_sj)
    i._Z14AES_CMAC_FinalPhP13_AES_CMAC_CTX   0x08006120   Section        0  cmac.o(i._Z14AES_CMAC_FinalPhP13_AES_CMAC_CTX)
    i._Z14McpsIndicationP15sMcpsIndication   0x080062d8   Section        0  main.o(i._Z14McpsIndicationP15sMcpsIndication)
    McpsIndication(sMcpsIndication*)         0x080062d9   Thumb Code   356  main.o(i._Z14McpsIndicationP15sMcpsIndication)
    i._Z14OnRadioRxErrorv                    0x08006450   Section        0  loramac.o(i._Z14OnRadioRxErrorv)
    OnRadioRxError()                         0x08006451   Thumb Code    56  loramac.o(i._Z14OnRadioRxErrorv)
    i._Z15AES_CMAC_SetKeyP13_AES_CMAC_CTXPKh 0x0800649c   Section        0  cmac.o(i._Z15AES_CMAC_SetKeyP13_AES_CMAC_CTXPKh)
    i._Z15AES_CMAC_UpdateP13_AES_CMAC_CTXPKhj 0x080064ac   Section        0  cmac.o(i._Z15AES_CMAC_UpdateP13_AES_CMAC_CTXPKhj)
    i._Z16OnLed1TimerEventv                  0x08006590   Section        0  main.o(i._Z16OnLed1TimerEventv)
    OnLed1TimerEvent()                       0x08006591   Thumb Code    20  main.o(i._Z16OnLed1TimerEventv)
    i._Z16OnLed2TimerEventv                  0x080065ac   Section        0  main.o(i._Z16OnLed2TimerEventv)
    OnLed2TimerEvent()                       0x080065ad   Thumb Code    20  main.o(i._Z16OnLed2TimerEventv)
    i._Z16OnRadioRxTimeoutv                  0x080065c8   Section        0  loramac.o(i._Z16OnRadioRxTimeoutv)
    OnRadioRxTimeout()                       0x080065c9   Thumb Code    56  loramac.o(i._Z16OnRadioRxTimeoutv)
    i._Z16OnRadioTxTimeoutv                  0x08006614   Section        0  loramac.o(i._Z16OnRadioTxTimeoutv)
    OnRadioTxTimeout()                       0x08006615   Thumb Code    44  loramac.o(i._Z16OnRadioTxTimeoutv)
    i._Z17LoRaMacChannelAddh14sChannelParams 0x08006654   Section        0  loramac.o(i._Z17LoRaMacChannelAddh14sChannelParams)
    i._Z17LoRaMacComputeMicPKhtS0_jhjPj      0x08006730   Section        0  loramaccrypto.o(i._Z17LoRaMacComputeMicPKhtS0_jhjPj)
    i._Z17SerialDisplayInitv                 0x080067c0   Section        0  serialdisplay.o(i._Z17SerialDisplayInitv)
    i._Z18LoRaMacJoinDecryptPKhtS0_Ph        0x08006b5c   Section        0  loramaccrypto.o(i._Z18LoRaMacJoinDecryptPKhtS0_Ph)
    i._Z18LoRaMacMcpsRequestP8sMcpsReq       0x08006b9c   Section        0  loramac.o(i._Z18LoRaMacMcpsRequestP8sMcpsReq)
    i._Z18LoRaMacMlmeRequestP8sMlmeReq       0x08006c80   Section        0  loramac.o(i._Z18LoRaMacMlmeRequestP8sMlmeReq)
    i._Z18PrepareRxDoneAbortv                0x08006d2c   Section        0  loramac.o(i._Z18PrepareRxDoneAbortv)
    PrepareRxDoneAbort()                     0x08006d2d   Thumb Code   102  loramac.o(i._Z18PrepareRxDoneAbortv)
    i._Z18ProcessMacCommandsPhhhh            0x08006da4   Section        0  loramac.o(i._Z18ProcessMacCommandsPhhhh)
    ProcessMacCommands(unsigned char*, unsigned char, unsigned char, unsigned char) 0x08006da5   Thumb Code   816  loramac.o(i._Z18ProcessMacCommandsPhhhh)
    i._Z18SendFrameOnChannel14sChannelParams 0x080070f0   Section        0  loramac.o(i._Z18SendFrameOnChannel14sChannelParams)
    i._Z19SerialPrintCheckBoxbh              0x08007264   Section        0  serialdisplay.o(i._Z19SerialPrintCheckBoxbh)
    i._Z19TimerGetCurrentTimev               0x080072b0   Section        0  timer.o(i._Z19TimerGetCurrentTimev)
    i._Z19TimerGetElapsedTimej               0x080072d8   Section        0  timer.o(i._Z19TimerGetElapsedTimej)
    i._Z20BoardGetBatteryLevelv              0x08007304   Section        0  board.o(i._Z20BoardGetBatteryLevelv)
    i._Z20SerialDisplayGetCharv              0x08007308   Section        0  serialdisplay.o(i._Z20SerialDisplayGetCharv)
    i._Z20TimerTimeCounterInitv              0x08007318   Section        0  timer.o(i._Z20TimerTimeCounterInitv)
    i._Z21LoRaMacInitializationP18sLoRaMacPrimitivesP16sLoRaMacCallback 0x08007344   Section        0  loramac.o(i._Z21LoRaMacInitializationP18sLoRaMacPrimitivesP16sLoRaMacCallback)
    i._Z21LoRaMacJoinComputeMicPKhtS0_Pj     0x08007498   Section        0  loramaccrypto.o(i._Z21LoRaMacJoinComputeMicPKhtS0_Pj)
    i._Z21LoRaMacPayloadDecryptPKhtS0_jhjPh  0x080074f4   Section        0  loramaccrypto.o(i._Z21LoRaMacPayloadDecryptPKhtS0_jhjPh)
    i._Z21LoRaMacPayloadEncryptPKhtS0_jhjPh  0x0800750c   Section        0  loramaccrypto.o(i._Z21LoRaMacPayloadEncryptPKhtS0_jhjPh)
    i._Z21OnRxWindow1TimerEventv             0x08007610   Section        0  loramac.o(i._Z21OnRxWindow1TimerEventv)
    OnRxWindow1TimerEvent()                  0x08007611   Thumb Code    96  loramac.o(i._Z21OnRxWindow1TimerEventv)
    i._Z21OnRxWindow2TimerEventv             0x08007680   Section        0  loramac.o(i._Z21OnRxWindow2TimerEventv)
    OnRxWindow2TimerEvent()                  0x08007681   Thumb Code    96  loramac.o(i._Z21OnRxWindow2TimerEventv)
    i._Z21OnTxDelayedTimerEventv             0x080076ec   Section        0  loramac.o(i._Z21OnTxDelayedTimerEventv)
    OnTxDelayedTimerEvent()                  0x080076ed   Thumb Code    24  loramac.o(i._Z21OnTxDelayedTimerEventv)
    i._Z21SerialDisplayDrawLinePKcS0_        0x0800770c   Section        0  serialdisplay.o(i._Z21SerialDisplayDrawLinePKcS0_)
    i._Z21SerialDisplayReadablev             0x08007760   Section        0  serialdisplay.o(i._Z21SerialDisplayReadablev)
    i._Z21TimerResetTimeCounterv             0x08007774   Section        0  timer.o(i._Z21TimerResetTimeCounterv)
    i._Z22LoRaMacQueryTxPossiblehP14sLoRaMacTxInfo 0x0800779c   Section        0  loramac.o(i._Z22LoRaMacQueryTxPossiblehP14sLoRaMacTxInfo)
    i._Z22OnAckTimeoutTimerEventv            0x08007838   Section        0  loramac.o(i._Z22OnAckTimeoutTimerEventv)
    OnAckTimeoutTimerEvent()                 0x08007839   Thumb Code    46  loramac.o(i._Z22OnAckTimeoutTimerEventv)
    i._Z22SerialDisplayDrawTitlePKc          0x08007874   Section        0  serialdisplay.o(i._Z22SerialDisplayDrawTitlePKc)
    i._Z22SerialDisplayUpdateAdrb            0x080078b0   Section        0  serialdisplay.o(i._Z22SerialDisplayUpdateAdrb)
    i._Z22SerialDisplayUpdateEuihPh          0x080078e8   Section        0  serialdisplay.o(i._Z22SerialDisplayUpdateEuihPh)
    i._Z22SerialDisplayUpdateKeyhPh          0x08007938   Section        0  serialdisplay.o(i._Z22SerialDisplayUpdateKeyhPh)
    i._Z23LoRaMacJoinComputeSKeysPKhS0_tPhS1_ 0x08007988   Section        0  loramaccrypto.o(i._Z23LoRaMacJoinComputeSKeysPKhS0_tPhS1_)
    i._Z23SerialDisplayUpdateDatahPhh        0x08007a10   Section        0  serialdisplay.o(i._Z23SerialDisplayUpdateDatahPhh)
    i._Z24OnTxNextPacketTimerEventv          0x08007af0   Section        0  main.o(i._Z24OnTxNextPacketTimerEventv)
    OnTxNextPacketTimerEvent()               0x08007af1   Thumb Code    50  main.o(i._Z24OnTxNextPacketTimerEventv)
    i._Z25OnMacStateCheckTimerEventv         0x08007b2c   Section        0  loramac.o(i._Z25OnMacStateCheckTimerEventv)
    OnMacStateCheckTimerEvent()              0x08007b2d   Thumb Code   426  loramac.o(i._Z25OnMacStateCheckTimerEventv)
    i._Z25SerialDisplayUpdateUplinkbhthPhh   0x08007cf8   Section        0  serialdisplay.o(i._Z25SerialDisplayUpdateUplinkbhthPhh)
    i._Z26SerialDisplayDrawFirstLinev        0x08007dc0   Section        0  serialdisplay.o(i._Z26SerialDisplayDrawFirstLinev)
    i._Z26SerialDisplayDrawSeparatorv        0x08007e00   Section        0  serialdisplay.o(i._Z26SerialDisplayDrawSeparatorv)
    i._Z27LoRaMacMibGetRequestConfirmP18eMibRequestConfirm 0x08007e60   Section        0  loramac.o(i._Z27LoRaMacMibGetRequestConfirmP18eMibRequestConfirm)
    i._Z27LoRaMacMibSetRequestConfirmP18eMibRequestConfirm 0x08007f40   Section        0  loramac.o(i._Z27LoRaMacMibSetRequestConfirmP18eMibRequestConfirm)
    i._Z27SerialDisplayUpdateDownlinkbsathPhh 0x080080d0   Section        0  serialdisplay.o(i._Z27SerialDisplayUpdateDownlinkbsathPhh)
    i._Z27SerialDisplayUpdateLedStatehh      0x08008198   Section        0  serialdisplay.o(i._Z27SerialDisplayUpdateLedStatehh)
    i._Z28SerialDisplayUpdateDutyCycleb      0x08008208   Section        0  serialdisplay.o(i._Z28SerialDisplayUpdateDutyCycleb)
    i._Z28SerialDisplayUpdateFrameTypeb      0x08008240   Section        0  serialdisplay.o(i._Z28SerialDisplayUpdateFrameTypeb)
    i._Z30SerialDisplayUpdateUplinkAckedb    0x08008278   Section        0  serialdisplay.o(i._Z30SerialDisplayUpdateUplinkAckedb)
    i._Z32SerialDisplayUpdatePublicNetworkb  0x0800829c   Section        0  serialdisplay.o(i._Z32SerialDisplayUpdatePublicNetworkb)
    i._Z33SerialDisplayUpdateActivationModeb 0x080082d4   Section        0  serialdisplay.o(i._Z33SerialDisplayUpdateActivationModeb)
    i._Z33SerialDisplayUpdateDonwlinkRxDatab 0x0800830c   Section        0  serialdisplay.o(i._Z33SerialDisplayUpdateDonwlinkRxDatab)
    i._Z34SerialDisplayUpdateNetworkIsJoinedb 0x08008330   Section        0  serialdisplay.o(i._Z34SerialDisplayUpdateNetworkIsJoinedb)
    i._Z4SendP14uLoRaMacHeaderhPvt           0x08008368   Section        0  loramac.o(i._Z4SendP14uLoRaMacHeaderhPvt)
    i._Z5randrii                             0x080083ac   Section        0  utilities.o(i._Z5randrii)
    i._Z6srand1j                             0x080083e4   Section        0  utilities.o(i._Z6srand1j)
    i._Z7memcpy1PhPKht                       0x080083f0   Section        0  utilities.o(i._Z7memcpy1PhPKht)
    i._Z7memcpyrPhPKht                       0x0800842a   Section        0  utilities.o(i._Z7memcpyrPhPKht)
    i._Z7memset1Phht                         0x0800846c   Section        0  utilities.o(i._Z7memset1Phht)
    i._Z9BoardInitv                          0x0800849a   Section        0  board.o(i._Z9BoardInitv)
    i._Z9TimerInitP12TimerEvent_sPFvvE       0x080084a2   Section        0  timer.o(i._Z9TimerInitP12TimerEvent_sPFvvE)
    i._Z9TimerStopP12TimerEvent_s            0x080084aa   Section        0  timer.o(i._Z9TimerStopP12TimerEvent_s)
    i._ZN12SX1276MB1xAS11AntSwDeInitEv       0x080084b4   Section        0  sx1276-hal.o(i._ZN12SX1276MB1xAS11AntSwDeInitEv)
    i._ZN12SX1276MB1xAS11GetPaSelectEj       0x080084e0   Section        0  sx1276-hal.o(i._ZN12SX1276MB1xAS11GetPaSelectEj)
    i._ZN12SX1276MB1xAS16CheckRfFrequencyEj  0x08008500   Section        0  sx1276-hal.o(i._ZN12SX1276MB1xAS16CheckRfFrequencyEj)
    i._ZN12SX1276MB1xAS16SetAntSwLowPowerEb  0x08008504   Section        0  sx1276-hal.o(i._ZN12SX1276MB1xAS16SetAntSwLowPowerEb)
    i._ZN12SX1276MB1xAS4ReadEh               0x08008526   Section        0  sx1276-hal.o(i._ZN12SX1276MB1xAS4ReadEh)
    i._ZN12SX1276MB1xAS4ReadEhPhh            0x08008538   Section        0  sx1276-hal.o(i._ZN12SX1276MB1xAS4ReadEhPhh)
    i._ZN12SX1276MB1xAS5ResetEv              0x080085ac   Section        0  sx1276-hal.o(i._ZN12SX1276MB1xAS5ResetEv)
    i._ZN12SX1276MB1xAS5WriteEhPhh           0x08008604   Section        0  sx1276-hal.o(i._ZN12SX1276MB1xAS5WriteEhPhh)
    i._ZN12SX1276MB1xAS5WriteEhh             0x08008674   Section        0  sx1276-hal.o(i._ZN12SX1276MB1xAS5WriteEhh)
    i._ZN12SX1276MB1xAS7SpiInitEv            0x08008684   Section        0  sx1276-hal.o(i._ZN12SX1276MB1xAS7SpiInitEv)
    i._ZN12SX1276MB1xAS8ReadFifoEPhh         0x080086c4   Section        0  sx1276-hal.o(i._ZN12SX1276MB1xAS8ReadFifoEPhh)
    i._ZN12SX1276MB1xAS8SetAntSwEh           0x080086d8   Section        0  sx1276-hal.o(i._ZN12SX1276MB1xAS8SetAntSwEh)
    i._ZN12SX1276MB1xAS9AntSwInitEv          0x08008724   Section        0  sx1276-hal.o(i._ZN12SX1276MB1xAS9AntSwInitEv)
    i._ZN12SX1276MB1xAS9IoIrqInitEPM6SX1276FvvE 0x08008750   Section        0  sx1276-hal.o(i._ZN12SX1276MB1xAS9IoIrqInitEPM6SX1276FvvE)
    i._ZN12SX1276MB1xAS9WriteFifoEPhh        0x080087ec   Section        0  sx1276-hal.o(i._ZN12SX1276MB1xAS9WriteFifoEPhh)
    i._ZN12SX1276MB1xASC1EP13RadioEvents_t   0x08008800   Section        0  sx1276-hal.o(i._ZN12SX1276MB1xASC1EP13RadioEvents_t)
    i._ZN12SX1276MB1xASD1Ev                  0x08008968   Section        0  board.o(i._ZN12SX1276MB1xASD1Ev)
    i._ZN12TimerEvent_sD1Ev                  0x08008970   Section        0  main.o(i._ZN12TimerEvent_sD1Ev)
    i._ZN4mbed10SerialBase10_base_getcEv     0x08008990   Section        0  SerialBase.o(i._ZN4mbed10SerialBase10_base_getcEv)
    i._ZN4mbed10SerialBase10_base_putcEi     0x0800899a   Section        0  SerialBase.o(i._ZN4mbed10SerialBase10_base_putcEi)
    i._ZN4mbed10SerialBase12_irq_handlerEj9SerialIrq 0x080089a8   Section        0  SerialBase.o(i._ZN4mbed10SerialBase12_irq_handlerEj9SerialIrq)
    i._ZN4mbed10SerialBase4baudEi            0x080089d6   Section        0  SerialBase.o(i._ZN4mbed10SerialBase4baudEi)
    i._ZN4mbed10SerialBase8readableEv        0x080089e6   Section        0  SerialBase.o(i._ZN4mbed10SerialBase8readableEv)
    i._ZN4mbed10SerialBase9writeableEv       0x080089f0   Section        0  SerialBase.o(i._ZN4mbed10SerialBase9writeableEv)
    i._ZN4mbed10SerialBaseC1E7PinNameS1_     0x080089fc   Section        0  SerialBase.o(i._ZN4mbed10SerialBaseC1E7PinNameS1_)
    i._ZN4mbed10TimerEvent3irqEj             0x08008a50   Section        0  TimerEvent.o(i._ZN4mbed10TimerEvent3irqEj)
    i._ZN4mbed10TimerEvent6insertEj          0x08008a56   Section        0  TimerEvent.o(i._ZN4mbed10TimerEvent6insertEj)
    i._ZN4mbed10TimerEvent6removeEv          0x08008a68   Section        0  TimerEvent.o(i._ZN4mbed10TimerEvent6removeEv)
    i._ZN4mbed10TimerEventC2Ev               0x08008a78   Section        0  TimerEvent.o(i._ZN4mbed10TimerEventC2Ev)
    i._ZN4mbed10TimerEventD2Ev               0x08008aa0   Section        0  TimerEvent.o(i._ZN4mbed10TimerEventD2Ev)
    i._ZN4mbed11InterruptIn12_irq_handlerEj14gpio_irq_event 0x08008ab8   Section        0  InterruptIn.o(i._ZN4mbed11InterruptIn12_irq_handlerEj14gpio_irq_event)
    i._ZN4mbed11InterruptInC1E7PinName       0x08008af8   Section        0  InterruptIn.o(i._ZN4mbed11InterruptInC1E7PinName)
    i._ZN4mbed11InterruptInD1Ev              0x08008b40   Section        0  InterruptIn.o(i._ZN4mbed11InterruptInD1Ev)
    i._ZN4mbed3SPI5writeEi                   0x08008b58   Section        0  SPI.o(i._ZN4mbed3SPI5writeEi)
    i._ZN4mbed3SPI6formatEii                 0x08008b8c   Section        0  SPI.o(i._ZN4mbed3SPI6formatEii)
    i._ZN4mbed3SPIC1E7PinNameS1_S1_S1_       0x08008bb0   Section        0  SPI.o(i._ZN4mbed3SPIC1E7PinNameS1_S1_S1_)
    i._ZN4mbed5Timer5resetEv                 0x08008c00   Section        0  Timer.o(i._ZN4mbed5Timer5resetEv)
    i._ZN4mbed5Timer5startEv                 0x08008c12   Section        0  Timer.o(i._ZN4mbed5Timer5startEv)
    i._ZN4mbed5Timer7read_usEv               0x08008c2a   Section        0  Timer.o(i._ZN4mbed5Timer7read_usEv)
    i._ZN4mbed5TimerC1Ev                     0x08008c44   Section        0  Timer.o(i._ZN4mbed5TimerC1Ev)
    i._ZN4mbed6Ticker5setupEj                0x08008c62   Section        0  Ticker.o(i._ZN4mbed6Ticker5setupEj)
    i._ZN4mbed6Ticker6detachEv               0x08008c80   Section        0  Ticker.o(i._ZN4mbed6Ticker6detachEv)
    i._ZN4mbed6Ticker7handlerEv              0x08008c90   Section        0  Ticker.o(i._ZN4mbed6Ticker7handlerEv)
    i._ZN4mbed6TickerD1Ev                    0x08008cc0   Section        0  timer.o(i._ZN4mbed6TickerD1Ev)
    i._ZN4mbed7Timeout7handlerEv             0x08008cdc   Section        0  Timeout.o(i._ZN4mbed7Timeout7handlerEv)
    i._ZN4mbed8FileBase11getPathTypeEv       0x08008cf8   Section        0  FileBase.o(i._ZN4mbed8FileBase11getPathTypeEv)
    i._ZN4mbed8FileBase6lookupEPKcj          0x08008cfc   Section        0  FileBase.o(i._ZN4mbed8FileBase6lookupEPKcj)
    i._ZN4mbed8FilePath10fileSystemEv        0x08008d38   Section        0  FilePath.o(i._ZN4mbed8FilePath10fileSystemEv)
    i._ZN4mbed8FilePath4fileEv               0x08008d52   Section        0  FilePath.o(i._ZN4mbed8FilePath4fileEv)
    i._ZN4mbed8FilePath6existsEv             0x08008d72   Section        0  FilePath.o(i._ZN4mbed8FilePath6existsEv)
    i._ZN4mbed8FilePath6isFileEv             0x08008d7c   Section        0  FilePath.o(i._ZN4mbed8FilePath6isFileEv)
    i._ZN4mbed8FilePath8fileNameEv           0x08008d94   Section        0  FilePath.o(i._ZN4mbed8FilePath8fileNameEv)
    i._ZN4mbed8FilePathC1EPKc                0x08008d98   Section        0  FilePath.o(i._ZN4mbed8FilePathC1EPKc)
    i._ZN5RadioC2EP13RadioEvents_t           0x08008ddc   Section        0  radio.o(i._ZN5RadioC2EP13RadioEvents_t)
    i._ZN5VT1006printfEPKcz                  0x08008de8   Section        0  serialdisplay.o(i._ZN5VT1006printfEPKcz)
    i._ZN5VT100D1Ev                          0x08008e7a   Section        0  serialdisplay.o(i._ZN5VT100D1Ev)
    i._ZN6SX127610SetChannelEj               0x08008e7c   Section        0  sx1276.o(i._ZN6SX127610SetChannelEj)
    i._ZN6SX127611SetRxConfigE9ModemTypejjhjttbhbbhbb 0x08008ecc   Section        0  sx1276.o(i._ZN6SX127611SetRxConfigE9ModemTypejjhjttbhbbhbb)
    i._ZN6SX127611SetTxConfigE9ModemTypeajjjhtbbbhbj 0x0800920c   Section        0  sx1276.o(i._ZN6SX127611SetTxConfigE9ModemTypeajjjhtbbbhbj)
    i._ZN6SX127612OnTimeoutIrqEv             0x08009540   Section        0  sx1276.o(i._ZN6SX127612OnTimeoutIrqEv)
    i._ZN6SX127618RxChainCalibrationEv       0x0800967c   Section        0  sx1276.o(i._ZN6SX127618RxChainCalibrationEv)
    i._ZN6SX127619SetMaxPayloadLengthE9ModemTypeh 0x08009748   Section        0  sx1276.o(i._ZN6SX127619SetMaxPayloadLengthE9ModemTypeh)
    i._ZN6SX12762RxEj                        0x08009788   Section        0  sx1276.o(i._ZN6SX12762RxEj)
    i._ZN6SX12762TxEj                        0x08009b6c   Section        0  sx1276.o(i._ZN6SX12762TxEj)
    i._ZN6SX12764InitEP13RadioEvents_t       0x08009c58   Section        0  sx1276.o(i._ZN6SX12764InitEP13RadioEvents_t)
    i._ZN6SX12764SendEPhh                    0x08009c5c   Section        0  sx1276.o(i._ZN6SX12764SendEPhh)
    i._ZN6SX12765SleepEv                     0x08009d9a   Section        0  sx1276.o(i._ZN6SX12765SleepEv)
    i._ZN6SX12766RandomEv                    0x08009dca   Section        0  sx1276.o(i._ZN6SX12766RandomEv)
    i._ZN6SX12767StandbyEv                   0x08009e20   Section        0  sx1276.o(i._ZN6SX12767StandbyEv)
    i._ZN6SX12768SetModemE9ModemType         0x08009e50   Section        0  sx1276.o(i._ZN6SX12768SetModemE9ModemType)
    i._ZN6SX12769GetStatusEv                 0x08009ee8   Section        0  sx1276.o(i._ZN6SX12769GetStatusEv)
    i._ZN6SX12769OnDio0IrqEv                 0x08009ef4   Section        0  sx1276.o(i._ZN6SX12769OnDio0IrqEv)
    i._ZN6SX12769OnDio1IrqEv                 0x0800a390   Section        0  sx1276.o(i._ZN6SX12769OnDio1IrqEv)
    i._ZN6SX12769OnDio2IrqEv                 0x0800a478   Section        0  sx1276.o(i._ZN6SX12769OnDio2IrqEv)
    i._ZN6SX12769OnDio3IrqEv                 0x0800a56c   Section        0  sx1276.o(i._ZN6SX12769OnDio3IrqEv)
    i._ZN6SX12769OnDio4IrqEv                 0x0800a5c6   Section        0  sx1276.o(i._ZN6SX12769OnDio4IrqEv)
    i._ZN6SX12769SetOpModeEh                 0x0800a5e4   Section        0  sx1276.o(i._ZN6SX12769SetOpModeEh)
    i._ZN6SX12769TimeOnAirE9ModemTypeh       0x0800a634   Section        0  sx1276.o(i._ZN6SX12769TimeOnAirE9ModemTypeh)
    i._ZN6SX1276C2EP13RadioEvents_t7PinNameS2_S2_S2_S2_S2_S2_S2_S2_S2_S2_ 0x0800a830   Section        0  sx1276.o(i._ZN6SX1276C2EP13RadioEvents_t7PinNameS2_S2_S2_S2_S2_S2_S2_S2_S2_S2_)
    i._ZN6SX1276D2Ev                         0x0800a99c   Section        0  sx1276.o(i._ZN6SX1276D2Ev)
    i._ZdaPv                                 0x0800aa28   Section        0  array_del.o(i._ZdaPv)
    i._ZdlPv                                 0x0800aa30   Section        0  delete.o(i._ZdlPv)
    i._Znaj                                  0x0800aa38   Section        0  array_new.o(i._Znaj)
    i._Znwj                                  0x0800aa40   Section        0  new.o(i._Znwj)
    i.__ARM_common_ll_muluu                  0x0800aa68   Section        0  btod.o(i.__ARM_common_ll_muluu)
    i.__ARM_fpclassify                       0x0800aa98   Section        0  fpclassify.o(i.__ARM_fpclassify)
    i.__aeabi_vec_ctor_nocookie_nodtor       0x0800aac4   Section        0  aeabi_vec_ctor_nocookie_nodtor.o(i.__aeabi_vec_ctor_nocookie_nodtor)
    i.__cxa_pure_virtual                     0x0800aae6   Section        0  pure_virt.o(i.__cxa_pure_virtual)
    i.__sti___11_LoRaMac_cpp_ce207a09        0x0800aaf0   Section        0  loramac.o(i.__sti___11_LoRaMac_cpp_ce207a09)
    __sti___11_LoRaMac_cpp_ce207a09          0x0800aaf1   Thumb Code   120  loramac.o(i.__sti___11_LoRaMac_cpp_ce207a09)
    i.__sti___17_SerialDisplay_cpp_vt        0x0800ab88   Section        0  serialdisplay.o(i.__sti___17_SerialDisplay_cpp_vt)
    __sti___17_SerialDisplay_cpp_vt          0x0800ab89   Thumb Code    48  serialdisplay.o(i.__sti___17_SerialDisplay_cpp_vt)
    i.__sti___8_main_cpp_c4c13501            0x0800abcc   Section        0  main.o(i.__sti___8_main_cpp_c4c13501)
    __sti___8_main_cpp_c4c13501              0x0800abcd   Thumb Code    76  main.o(i.__sti___8_main_cpp_c4c13501)
    i.__sti___9_board_cpp_Radio              0x0800ac30   Section        0  board.o(i.__sti___9_board_cpp_Radio)
    __sti___9_board_cpp_Radio                0x0800ac31   Thumb Code    20  board.o(i.__sti___9_board_cpp_Radio)
    i.__sti___9_timer_cpp_28c68a46           0x0800ac50   Section        0  timer.o(i.__sti___9_timer_cpp_28c68a46)
    __sti___9_timer_cpp_28c68a46             0x0800ac51   Thumb Code    34  timer.o(i.__sti___9_timer_cpp_28c68a46)
    i.__user_setup_stackheap                 0x0800ac88   Section        0  sys.o(i.__user_setup_stackheap)
    i._is_digit                              0x0800ac98   Section        0  __printf_wp.o(i._is_digit)
    i._sys_close                             0x0800aca8   Section        0  retarget.o(i._sys_close)
    i._sys_flen                              0x0800acd4   Section        0  retarget.o(i._sys_flen)
    i._sys_istty                             0x0800acfc   Section        0  retarget.o(i._sys_istty)
    i._sys_open                              0x0800ad24   Section        0  retarget.o(i._sys_open)
    i._sys_seek                              0x0800ae64   Section        0  retarget.o(i._sys_seek)
    i._sys_write                             0x0800ae8c   Section        0  retarget.o(i._sys_write)
    i.ceil                                   0x0800aeec   Section        0  ceil.o(i.ceil)
    i.error                                  0x0800afb4   Section        0  error.o(i.error)
    i.exit                                   0x0800afcc   Section        0  retarget.o(i.exit)
    i.floor                                  0x0800afec   Section        0  floor.o(i.floor)
    i.fputc                                  0x0800b0b4   Section        0  fputc.o(i.fputc)
    i.get_us_ticker_data                     0x0800b0d4   Section        0  us_ticker_api.o(i.get_us_ticker_data)
    i.gpio_dir                               0x0800b0dc   Section        0  gpio_api.o(i.gpio_dir)
    i.gpio_init                              0x0800b128   Section        0  gpio_api.o(i.gpio_init)
    i.gpio_init_in                           0x0800b160   Section        0  gpio.o(i.gpio_init_in)
    i.gpio_init_out                          0x0800b184   Section        0  gpio.o(i.gpio_init_out)
    i.gpio_init_out_ex                       0x0800b1c4   Section        0  gpio.o(i.gpio_init_out_ex)
    i.gpio_irq0                              0x0800b224   Section        0  gpio_irq_api.o(i.gpio_irq0)
    gpio_irq0                                0x0800b225   Thumb Code    12  gpio_irq_api.o(i.gpio_irq0)
    i.gpio_irq1                              0x0800b230   Section        0  gpio_irq_api.o(i.gpio_irq1)
    gpio_irq1                                0x0800b231   Thumb Code    12  gpio_irq_api.o(i.gpio_irq1)
    i.gpio_irq2                              0x0800b23c   Section        0  gpio_irq_api.o(i.gpio_irq2)
    gpio_irq2                                0x0800b23d   Thumb Code    12  gpio_irq_api.o(i.gpio_irq2)
    i.gpio_irq_free                          0x0800b248   Section        0  gpio_irq_api.o(i.gpio_irq_free)
    i.gpio_irq_init                          0x0800b28c   Section        0  gpio_irq_api.o(i.gpio_irq_init)
    i.gpio_irq_set                           0x0800b38c   Section        0  gpio_irq_api.o(i.gpio_irq_set)
    i.gpio_mode                              0x0800b3fe   Section        0  gpio_api.o(i.gpio_mode)
    i.handle_interrupt_in                    0x0800b40c   Section        0  gpio_irq_api.o(i.handle_interrupt_in)
    handle_interrupt_in                      0x0800b40d   Thumb Code    88  gpio_irq_api.o(i.handle_interrupt_in)
    i.init_spi                               0x0800b470   Section        0  spi_api.o(i.init_spi)
    init_spi                                 0x0800b471   Thumb Code    80  spi_api.o(i.init_spi)
    i.init_uart                              0x0800b4dc   Section        0  serial_api.o(i.init_uart)
    init_uart                                0x0800b4dd   Thumb Code    94  serial_api.o(i.init_uart)
    i.main                                   0x0800b55c   Section        0  main.o(i.main)
    i.mbed_assert_internal                   0x0800b8e4   Section        0  assert.o(i.mbed_assert_internal)
    i.mbed_die                               0x0800b928   Section        0  board.o(i.mbed_die)
    i.mbed_main                              0x0800b938   Section        0  retarget.o(i.mbed_main)
    i.mbed_sdk_init                          0x0800b93a   Section        0  mbed_overrides.o(i.mbed_sdk_init)
    i.pin_function                           0x0800b944   Section        0  pinmap.o(i.pin_function)
    i.pin_mode                               0x0800b9b0   Section        0  pinmap.o(i.pin_mode)
    i.pinmap_merge                           0x0800ba04   Section        0  pinmap_common.o(i.pinmap_merge)
    i.pinmap_peripheral                      0x0800ba38   Section        0  pinmap_common.o(i.pinmap_peripheral)
    i.pinmap_pinout                          0x0800ba94   Section        0  pinmap_common.o(i.pinmap_pinout)
    i.rint                                   0x0800bae8   Section        0  rint.o(i.rint)
    i.serial_baud                            0x0800baf0   Section        0  serial_api.o(i.serial_baud)
    i.serial_getc                            0x0800bafc   Section        0  serial_api.o(i.serial_getc)
    i.serial_init                            0x0800bb1c   Section        0  serial_api.o(i.serial_init)
    i.serial_irq_handler                     0x0800bc68   Section        0  serial_api.o(i.serial_irq_handler)
    i.serial_putc                            0x0800bc80   Section        0  serial_api.o(i.serial_putc)
    i.serial_readable                        0x0800bca4   Section        0  serial_api.o(i.serial_readable)
    i.serial_writable                        0x0800bcbc   Section        0  serial_api.o(i.serial_writable)
    i.set_compare                            0x0800bcd4   Section        0  us_ticker.o(i.set_compare)
    i.spi_format                             0x0800bcf0   Section        0  spi_api.o(i.spi_format)
    i.spi_frequency                          0x0800bd50   Section        0  spi_api.o(i.spi_frequency)
    i.spi_init                               0x0800bde4   Section        0  spi_api.o(i.spi_init)
    i.spi_master_write                       0x0800bee8   Section        0  spi_api.o(i.spi_master_write)
    i.ticker_insert_event                    0x0800bf20   Section        0  ticker_api.o(i.ticker_insert_event)
    i.ticker_irq_handler                     0x0800bf5a   Section        0  ticker_api.o(i.ticker_irq_handler)
    i.ticker_read                            0x0800bfa4   Section        0  ticker_api.o(i.ticker_read)
    i.ticker_remove_event                    0x0800bfaa   Section        0  ticker_api.o(i.ticker_remove_event)
    i.ticker_set_handler                     0x0800bfea   Section        0  ticker_api.o(i.ticker_set_handler)
    i.timer_irq_handler                      0x0800bffc   Section        0  hal_tick.o(i.timer_irq_handler)
    i.us_ticker_clear_interrupt              0x0800c0a8   Section        0  us_ticker.o(i.us_ticker_clear_interrupt)
    i.us_ticker_disable_interrupt            0x0800c0c8   Section        0  us_ticker.o(i.us_ticker_disable_interrupt)
    i.us_ticker_init                         0x0800c0e0   Section        0  us_ticker.o(i.us_ticker_init)
    i.us_ticker_irq_handler                  0x0800c0fc   Section        0  us_ticker_api.o(i.us_ticker_irq_handler)
    i.us_ticker_read                         0x0800c10c   Section        0  us_ticker.o(i.us_ticker_read)
    i.us_ticker_set_interrupt                0x0800c144   Section        0  us_ticker.o(i.us_ticker_set_interrupt)
    i.wait                                   0x0800c1d0   Section        0  wait_api.o(i.wait)
    i.wait_ms                                0x0800c1f4   Section        0  wait_api.o(i.wait_ms)
    locale$$code                             0x0800c210   Section       44  lc_numeric_c.o(locale$$code)
    locale$$code                             0x0800c23c   Section       44  lc_ctype_c.o(locale$$code)
    t._ZN4mbed19FunctionPointerArg1IvvE12membercallerI12SX1276MB1xASEEvPvPj 0x0800c268   Section        0  sx1276-hal.o(t._ZN4mbed19FunctionPointerArg1IvvE12membercallerI12SX1276MB1xASEEvPvPj)
    t._ZN4mbed19FunctionPointerArg1IvvE12membercallerI6SX1276EEvPvPj 0x0800c27c   Section        0  sx1276.o(t._ZN4mbed19FunctionPointerArg1IvvE12membercallerI6SX1276EEvPvPj)
    x$fpl$drleqf                             0x0800c290   Section      104  drlef.o(x$fpl$drleqf)
    x$fpl$fmul                               0x0800c2f8   Section      176  fmul.o(x$fpl$fmul)
    x$fpl$printf1                            0x0800c3a8   Section       16  printf1.o(x$fpl$printf1)
    x$fpl$printf2                            0x0800c3b8   Section       16  printf2.o(x$fpl$printf2)
    .constdata                               0x0800c3c8   Section       30  loramac.o(.constdata)
    x$fpl$usenofp                            0x0800c3c8   Section        0  usenofp.o(x$fpl$usenofp)
    TxPowers                                 0x0800c3c8   Data           6  loramac.o(.constdata)
    Datarates                                0x0800c3ce   Data           8  loramac.o(.constdata)
    MaxPayloadOfDatarate                     0x0800c3d6   Data           8  loramac.o(.constdata)
    MaxPayloadOfDatarateRepeater             0x0800c3de   Data           8  loramac.o(.constdata)
    .constdata                               0x0800c3e6   Section       23  retarget.o(.constdata)
    .constdata                               0x0800c3fd   Section       16  stm32l0xx_hal_rcc.o(.constdata)
    APBAHBPrescTable                         0x0800c3fd   Data          16  stm32l0xx_hal_rcc.o(.constdata)
    .constdata                               0x0800c40d   Section       25  system_stm32l0xx.o(.constdata)
    .constdata                               0x0800c426   Section       48  sx1276-hal.o(.constdata)
    .constdata                               0x0800c458   Section      232  sx1276.o(.constdata)
    <Data1>                                  0x0800c458   Data           8  sx1276.o(.constdata)
    <Data2>                                  0x0800c460   Data           8  sx1276.o(.constdata)
    <Data3>                                  0x0800c468   Data           8  sx1276.o(.constdata)
    <Data4>                                  0x0800c470   Data           8  sx1276.o(.constdata)
    <Data5>                                  0x0800c478   Data           8  sx1276.o(.constdata)
    <Data6>                                  0x0800c480   Data           8  sx1276.o(.constdata)
    <Data7>                                  0x0800c488   Data           8  sx1276.o(.constdata)
    .constdata                               0x0800c540   Section      768  aes.o(.constdata)
    sbox                                     0x0800c540   Data         256  aes.o(.constdata)
    gfm2_sbox                                0x0800c640   Data         256  aes.o(.constdata)
    gfm3_sbox                                0x0800c740   Data         256  aes.o(.constdata)
    .constdata                               0x0800c840   Section       20  us_ticker_api.o(.constdata)
    us_interface                             0x0800c840   Data          20  us_ticker_api.o(.constdata)
    .constdata                               0x0800c854   Section        8  us_ticker_api.o(.constdata)
    us_data                                  0x0800c854   Data           8  us_ticker_api.o(.constdata)
    .constdata                               0x0800c85c   Section      132  PeripheralPins.o(.constdata)
    .constdata                               0x0800c8e0   Section      144  PeripheralPins.o(.constdata)
    .constdata                               0x0800c970   Section       72  PeripheralPins.o(.constdata)
    .constdata                               0x0800c9b8   Section       72  PeripheralPins.o(.constdata)
    .constdata                               0x0800ca00   Section       60  PeripheralPins.o(.constdata)
    .constdata                               0x0800ca3c   Section       60  PeripheralPins.o(.constdata)
    .constdata                               0x0800ca78   Section       52  pinmap.o(.constdata)
    gpio_mode                                0x0800ca78   Data          52  pinmap.o(.constdata)
    .constdata                               0x0800caac   Section      128  ddiv.o(.constdata)
    ddiv_reciptbl                            0x0800caac   Data         128  ddiv.o(.constdata)
    .constdata                               0x0800cb2c   Section        8  _printf_wctomb.o(.constdata)
    initial_mbstate                          0x0800cb2c   Data           8  _printf_wctomb.o(.constdata)
    .constdata                               0x0800cb34   Section       40  _printf_hex_int_ll_ptr.o(.constdata)
    uc_hextab                                0x0800cb34   Data          20  _printf_hex_int_ll_ptr.o(.constdata)
    lc_hextab                                0x0800cb48   Data          20  _printf_hex_int_ll_ptr.o(.constdata)
    .constdata                               0x0800cb5c   Section       17  __printf_flags_ss_wp.o(.constdata)
    maptable                                 0x0800cb5c   Data          17  __printf_flags_ss_wp.o(.constdata)
    .constdata                               0x0800cb6d   Section       38  _printf_fp_hex.o(.constdata)
    lc_hextab                                0x0800cb6d   Data          19  _printf_fp_hex.o(.constdata)
    uc_hextab                                0x0800cb80   Data          19  _printf_fp_hex.o(.constdata)
    .constdata                               0x0800cb94   Section      148  bigflt0.o(.constdata)
    tenpwrs_x                                0x0800cb94   Data          60  bigflt0.o(.constdata)
    tenpwrs_i                                0x0800cbd0   Data          64  bigflt0.o(.constdata)
    .constdata__ZTV12SX1276MB1xAS            0x0800cc28   Section      192  sx1276-hal.o(.constdata__ZTV12SX1276MB1xAS)
    .constdata__ZTV5Radio                    0x0800cce8   Section      112  radio.o(.constdata__ZTV5Radio)
    .constdata__ZTV5VT100                    0x0800cd58   Section       16  serialdisplay.o(.constdata__ZTV5VT100)
    .constdata__ZTV6SX1276                   0x0800cd68   Section      188  sx1276.o(.constdata__ZTV6SX1276)
    .constdata__ZTVN4mbed10SerialBaseE       0x0800ce24   Section       16  SerialBase.o(.constdata__ZTVN4mbed10SerialBaseE)
    .constdata__ZTVN4mbed10TimerEventE       0x0800ce34   Section       20  TimerEvent.o(.constdata__ZTVN4mbed10TimerEventE)
    .constdata__ZTVN4mbed11InterruptInE      0x0800ce48   Section       16  InterruptIn.o(.constdata__ZTVN4mbed11InterruptInE)
    .constdata__ZTVN4mbed3SPIE               0x0800ce58   Section       20  SPI.o(.constdata__ZTVN4mbed3SPIE)
    .constdata__ZTVN4mbed6TickerE            0x0800ce6c   Section       20  Ticker.o(.constdata__ZTVN4mbed6TickerE)
    .constdata__ZTVN4mbed7TimeoutE           0x0800ce80   Section       20  Timeout.o(.constdata__ZTVN4mbed7TimeoutE)
    .constdata__ZZN5VT10011ClearScreenEhEs   0x0800ce94   Section        6  serialdisplay.o(.constdata__ZZN5VT10011ClearScreenEhEs)
    .constdata__ZZN5VT10012SetAttributeEhEs  0x0800ce9a   Section        6  serialdisplay.o(.constdata__ZZN5VT10012SetAttributeEhEs)
    .constdata__ZZN5VT10012SetAttributeEhhhEs 0x0800cea0   Section       12  serialdisplay.o(.constdata__ZZN5VT10012SetAttributeEhhhEs)
    .constdata__ZZN5VT10012SetCursorPosEhhEs 0x0800ceac   Section        9  serialdisplay.o(.constdata__ZZN5VT10012SetCursorPosEhhEs)
    .constdata__ZZN5VT10013SetCursorModeEhEs_0 0x0800ceb5   Section        7  serialdisplay.o(.constdata__ZZN5VT10013SetCursorModeEhEs_0)
    .constdata__ZZN5VT10017PutBoxDrawingCharEhEs 0x0800cebc   Section        9  serialdisplay.o(.constdata__ZZN5VT10017PutBoxDrawingCharEhEs)
    .constdata__ZZN5VT100C1E7PinNameS0_Es    0x0800cec5   Section        3  serialdisplay.o(.constdata__ZZN5VT100C1E7PinNameS0_Es)
    .conststring                             0x0800cec8   Section     1642  serialdisplay.o(.conststring)
    .conststring                             0x0800d534   Section       66  sx1276-hal.o(.conststring)
    .conststring                             0x0800d578   Section      106  gpio_api.o(.conststring)
    .conststring                             0x0800d5e4   Section      108  serial_api.o(.conststring)
    .conststring                             0x0800d650   Section      114  gpio.o(.conststring)
    .conststring                             0x0800d6c4   Section      104  pinmap.o(.conststring)
    .conststring                             0x0800d72c   Section      105  spi_api.o(.conststring)
    locale$$data                             0x0800d7b8   Section       28  lc_numeric_c.o(locale$$data)
    __lcnum_c_name                           0x0800d7bc   Data           2  lc_numeric_c.o(locale$$data)
    __lcnum_c_start                          0x0800d7c4   Data           0  lc_numeric_c.o(locale$$data)
    __lcnum_c_point                          0x0800d7d0   Data           0  lc_numeric_c.o(locale$$data)
    __lcnum_c_thousands                      0x0800d7d2   Data           0  lc_numeric_c.o(locale$$data)
    __lcnum_c_grouping                       0x0800d7d3   Data           0  lc_numeric_c.o(locale$$data)
    locale$$data                             0x0800d7d4   Section      272  lc_ctype_c.o(locale$$data)
    __lcnum_c_end                            0x0800d7d4   Data           0  lc_numeric_c.o(locale$$data)
    __lcctype_c_name                         0x0800d7d8   Data           2  lc_ctype_c.o(locale$$data)
    __lcctype_c_start                        0x0800d7e0   Data           0  lc_ctype_c.o(locale$$data)
    .init_array                              0x0800d8e4   Section        4  main.o(.init_array)
    __lcctype_c_end                          0x0800d8e4   Data           0  lc_ctype_c.o(locale$$data)
    .init_array                              0x0800d8e8   Section        4  serialdisplay.o(.init_array)
    .init_array                              0x0800d8ec   Section        4  board.o(.init_array)
    .init_array                              0x0800d8f0   Section        4  loramac.o(.init_array)
    .init_array                              0x0800d8f4   Section        4  timer.o(.init_array)
    .init_array                              0x0800d8f8   Section        0  init_aeabi.o(.init_array)
    .data                                    0x200000c0   Section       52  main.o(.data)
    AppPort                                  0x200000c0   Data           1  main.o(.data)
    AppDataSize                              0x200000c1   Data           1  main.o(.data)
    IsTxConfirmed                            0x200000c2   Data           1  main.o(.data)
    AppLedStateOn                            0x200000c3   Data           1  main.o(.data)
    NextTx                                   0x200000c9   Data           1  main.o(.data)
    IsNetworkJoinedStatusUpdate              0x200000ca   Data           1  main.o(.data)
    DeviceState                              0x200000cd   Data           1  main.o(.data)
    TxDutyCycleTime                          0x200000d0   Data           4  main.o(.data)
    DevEui                                   0x200000d4   Data           8  main.o(.data)
    AppEui                                   0x200000dc   Data           8  main.o(.data)
    AppKey                                   0x200000e4   Data          16  main.o(.data)
    .data                                    0x200000f4   Section      268  loramac.o(.data)
    IsUpLinkCounterFixed                     0x200000f4   Data           1  loramac.o(.data)
    IsRxWindowsEnabled                       0x200000f5   Data           1  loramac.o(.data)
    IsLoRaMacNetworkJoined                   0x200000f6   Data           1  loramac.o(.data)
    AdrCtrlOn                                0x200000f7   Data           1  loramac.o(.data)
    NodeAckRequested                         0x200000f8   Data           1  loramac.o(.data)
    SrvAckRequested                          0x200000f9   Data           1  loramac.o(.data)
    MacCommandsInNextTx                      0x200000fa   Data           1  loramac.o(.data)
    MacCommandsBufferIndex                   0x200000fb   Data           1  loramac.o(.data)
    Rx1DrOffset                              0x200000fc   Data           1  loramac.o(.data)
    ChannelsTxPower                          0x200000fd   Data           1  loramac.o(.data)
    ChannelsDatarate                         0x200000fe   Data           1  loramac.o(.data)
    ChannelsDefaultDatarate                  0x200000ff   Data           1  loramac.o(.data)
    ChannelsNbRep                            0x20000100   Data           1  loramac.o(.data)
    ChannelsNbRepCounter                     0x20000101   Data           1  loramac.o(.data)
    MaxDCycle                                0x20000102   Data           1  loramac.o(.data)
    AckTimeoutRetries                        0x20000103   Data           1  loramac.o(.data)
    AckTimeoutRetriesCounter                 0x20000104   Data           1  loramac.o(.data)
    AckTimeoutRetry                          0x20000105   Data           1  loramac.o(.data)
    RxSlot                                   0x20000106   Data           1  loramac.o(.data)
    LoRaMacDeviceClass                       0x20000107   Data           1  loramac.o(.data)
    PublicNetwork                            0x20000108   Data           1  loramac.o(.data)
    RepeaterSupport                          0x20000109   Data           1  loramac.o(.data)
    DutyCycleOn                              0x2000010a   Data           1  loramac.o(.data)
    Channel                                  0x2000010b   Data           1  loramac.o(.data)
    LastTxChannel                            0x2000010c   Data           1  loramac.o(.data)
    LoRaMacBufferPktLen                      0x2000010e   Data           2  loramac.o(.data)
    LoRaMacDevNonce                          0x20000110   Data           2  loramac.o(.data)
    AggregatedDCycle                         0x20000112   Data           2  loramac.o(.data)
    MulticastChannels                        0x20000114   Data           4  loramac.o(.data)
    UpLinkCounter                            0x20000118   Data           4  loramac.o(.data)
    DownLinkCounter                          0x2000011c   Data           4  loramac.o(.data)
    AdrAckCounter                            0x20000120   Data           4  loramac.o(.data)
    LoRaMacDevEui                            0x2000012c   Data           4  loramac.o(.data)
    LoRaMacAppEui                            0x20000130   Data           4  loramac.o(.data)
    LoRaMacAppKey                            0x20000134   Data           4  loramac.o(.data)
    LoRaMacNetID                             0x20000138   Data           4  loramac.o(.data)
    LoRaMacDevAddr                           0x2000013c   Data           4  loramac.o(.data)
    AggregatedLastTxDoneTime                 0x20000140   Data           4  loramac.o(.data)
    AggregatedTimeOff                        0x20000144   Data           4  loramac.o(.data)
    LoRaMacPrimitives                        0x20000148   Data           4  loramac.o(.data)
    LoRaMacCallbacks                         0x2000014c   Data           4  loramac.o(.data)
    ReceiveDelay1                            0x20000150   Data           4  loramac.o(.data)
    ReceiveDelay2                            0x20000154   Data           4  loramac.o(.data)
    JoinAcceptDelay1                         0x20000158   Data           4  loramac.o(.data)
    JoinAcceptDelay2                         0x2000015c   Data           4  loramac.o(.data)
    RxWindow1Delay                           0x20000160   Data           4  loramac.o(.data)
    RxWindow2Delay                           0x20000164   Data           4  loramac.o(.data)
    MaxRxWindow                              0x20000168   Data           4  loramac.o(.data)
    Rx2Channel                               0x2000016c   Data           8  loramac.o(.data)
    Bands                                    0x20000174   Data          12  loramac.o(.data)
    Channels                                 0x20000180   Data         128  loramac.o(.data)
    .data                                    0x20000200   Section       32  loramaccrypto.o(.data)
    MicBlockB0                               0x20000200   Data          16  loramaccrypto.o(.data)
    aBlock                                   0x20000210   Data          16  loramaccrypto.o(.data)
    .data                                    0x20000220   Section        4  hal_tick.o(.data)
    .data                                    0x20000224   Section        4  stm32l0xx_hal.o(.data)
    uwTick                                   0x20000224   Data           4  stm32l0xx_hal.o(.data)
    .data                                    0x20000228   Section        4  system_stm32l0xx.o(.data)
    .data                                    0x2000022c   Section        4  timer.o(.data)
    .data                                    0x20000230   Section        4  utilities.o(.data)
    next                                     0x20000230   Data           4  utilities.o(.data)
    .data                                    0x20000234   Section       68  gpio_irq_api.o(.data)
    irq_handler                              0x20000234   Data           4  gpio_irq_api.o(.data)
    pin_base_nr                              0x20000238   Data          64  gpio_irq_api.o(.data)
    .data                                    0x20000278   Section        8  serial_api.o(.data)
    irq_handler                              0x2000027c   Data           4  serial_api.o(.data)
    .data                                    0x20000280   Section       16  us_ticker.o(.data)
    us_ticker_inited                         0x20000284   Data           4  us_ticker.o(.data)
    .data                                    0x20000290   Section        4  SPI.o(.data)
    .data                                    0x20000294   Section        8  us_ticker_api.o(.data)
    events                                   0x20000294   Data           8  us_ticker_api.o(.data)
    .data                                    0x2000029c   Section        4  FileBase.o(.data)
    .data                                    0x200002a0   Section        4  stdio_streams.o(.data)
    .data                                    0x200002a4   Section        4  stdio_streams.o(.data)
    .data                                    0x200002a8   Section        4  stdio_streams.o(.data)
    .data                                    0x200002ac   Section        4  heapauxa.o(.data)
    __rt_heap_escrow_base                    0x200002ac   Data           4  heapauxa.o(.data)
    .bss                                     0x200002b0   Section      284  main.o(.bss)
    AppData                                  0x200002b0   Data          64  main.o(.bss)
    TxNextPacketTimer                        0x200002f0   Data          56  main.o(.bss)
    Led1Timer                                0x20000328   Data          56  main.o(.bss)
    Led2Timer                                0x20000360   Data          56  main.o(.bss)
    .bss                                     0x200003cc   Section       84  serialdisplay.o(.bss)
    .bss                                     0x20000420   Section      848  board.o(.bss)
    .bss                                     0x20000770   Section     1184  loramac.o(.bss)
    LoRaMacNwkSKey                           0x20000770   Data          16  loramac.o(.bss)
    LoRaMacAppSKey                           0x20000780   Data          16  loramac.o(.bss)
    LoRaMacBuffer                            0x20000790   Data         255  loramac.o(.bss)
    LoRaMacPayload                           0x2000088f   Data         255  loramac.o(.bss)
    LoRaMacRxPayload                         0x2000098e   Data         255  loramac.o(.bss)
    MacCommandsBuffer                        0x20000a8d   Data          15  loramac.o(.bss)
    ChannelsMask                             0x20000a9c   Data          12  loramac.o(.bss)
    MacStateCheckTimer                       0x20000aa8   Data          56  loramac.o(.bss)
    RadioEvents                              0x20000ae0   Data          28  loramac.o(.bss)
    TxDelayedTimer                           0x20000afc   Data          56  loramac.o(.bss)
    RxWindowTimer1                           0x20000b34   Data          56  loramac.o(.bss)
    RxWindowTimer2                           0x20000b6c   Data          56  loramac.o(.bss)
    AckTimeoutTimer                          0x20000ba4   Data          56  loramac.o(.bss)
    McpsIndication                           0x20000bdc   Data          24  loramac.o(.bss)
    McpsConfirm                              0x20000bf4   Data          16  loramac.o(.bss)
    MlmeConfirm                              0x20000c04   Data          12  loramac.o(.bss)
    .bss                                     0x20000c10   Section      556  loramaccrypto.o(.bss)
    sBlock                                   0x20000c10   Data          16  loramaccrypto.o(.bss)
    Mic                                      0x20000c20   Data          16  loramaccrypto.o(.bss)
    AesContext                               0x20000c30   Data         241  loramaccrypto.o(.bss)
    AesCmacCtx                               0x20000d24   Data         280  loramaccrypto.o(.bss)
    .bss                                     0x20000e3c   Section       56  hal_tick.o(.bss)
    .bss                                     0x20000e74   Section       64  retarget.o(.bss)
    filehandles                              0x20000e74   Data          64  retarget.o(.bss)
    .bss                                     0x20000eb4   Section       64  timer.o(.bss)
    .bss                                     0x20000ef4   Section      444  gpio_irq_api.o(.bss)
    channels                                 0x20000ef4   Data         444  gpio_irq_api.o(.bss)
    .bss                                     0x200010b0   Section      160  serial_api.o(.bss)
    serial_irq_ids                           0x200010b0   Data          20  serial_api.o(.bss)
    .bss                                     0x20001150   Section       56  us_ticker.o(.bss)
    TimMasterHandle                          0x20001150   Data          56  us_ticker.o(.bss)
    .bss                                     0x20001188   Section       88  spi_api.o(.bss)
    SpiHandle                                0x20001188   Data          88  spi_api.o(.bss)
    .bss                                     0x200011e0   Section       84  stdio_streams.o(.bss)
    .bss                                     0x20001234   Section       84  stdio_streams.o(.bss)
    .bss                                     0x20001288   Section       84  stdio_streams.o(.bss)
    .bss                                     0x200012dc   Section        4  rt_new_handler_addr.o(.bss)
    __rt_new_handler_addr_data               0x200012dc   Data           4  rt_new_handler_addr.o(.bss)
    .bss                                     0x200012e0   Section        4  rt_ddtor_pointer_addr.o(.bss)
    __rt_ddtor_pointer_addr_data             0x200012e0   Data           4  rt_ddtor_pointer_addr.o(.bss)
    .bss                                     0x200012e4   Section        4  rt_heap_descriptor.o(.bss)
    __rt_heap_descriptor_data                0x200012e4   Data           4  rt_heap_descriptor.o(.bss)
    .bss                                     0x200012e8   Section       20  rt_locale.o(.bss)
    __rt_locale_data                         0x200012e8   Data          20  rt_locale.o(.bss)
    .bss                                     0x200012fc   Section        4  rt_eh_globals_addr.o(.bss)
    __rt_eh_globals_addr_data                0x200012fc   Data           4  rt_eh_globals_addr.o(.bss)
    .bss                                     0x20001300   Section        4  rt_errno_addr.o(.bss)
    __aeabi_errno_addr_data                  0x20001300   Data           4  rt_errno_addr.o(.bss)

    Global Symbols

    Symbol Name                              Value     Ov Type        Size  Object(Section)

    BuildAttributes$$THM_ISAv3M$S$PE$A:L22$X:L11$S22$IEEE1$IW$USESV6$~STKCKD$USESV7$~SHL$OTIME$ROPI$IEEEJ$EBA8$UX$STANDARDLIB$REQ8$PRES8$EABIv2 0x00000000   Number         0  anon$$obj.o ABSOLUTE
    __ARM_use_no_argv                        0x00000000   Number         0  main.o ABSOLUTE
    _printf_flags                            0x00000000   Number         0  printf_stubs.o ABSOLUTE
    _printf_return_value                     0x00000000   Number         0  printf_stubs.o ABSOLUTE
    _printf_sizespec                         0x00000000   Number         0  printf_stubs.o ABSOLUTE
    _printf_widthprec                        0x00000000   Number         0  printf_stubs.o ABSOLUTE
    SHT$$ARM_EXIDX$$Base                      - Undefined Reference
    SHT$$ARM_EXIDX$$Limit                     - Undefined Reference
    __ARM::default_unexpected_handler()       - Undefined Weak Reference
    __ARM_exceptions_buffer_required          - Undefined Weak Reference
    __ARM_exceptions_init                     - Undefined Weak Reference
    __aeabi_unwind_cpp_pr1                    - Undefined Weak Reference
    __aeabi_unwind_cpp_pr2                    - Undefined Weak Reference
    __alloca_initialize                       - Undefined Weak Reference
    __arm_preinit_                            - Undefined Weak Reference
    __cxa_begin_cleanup                       - Undefined Weak Reference
    __cxa_type_match                          - Undefined Weak Reference
    __rt_lib_shutdown                         - Undefined Weak Reference
    __sigvec_lookup                           - Undefined Weak Reference
    __user_heap_extent                        - Undefined Weak Reference
    _atexit_init                              - Undefined Weak Reference
    _clock_init                               - Undefined Weak Reference
    _fp_trap_init                             - Undefined Weak Reference
    _fp_trap_shutdown                         - Undefined Weak Reference
    _get_lc_collate                           - Undefined Weak Reference
    _get_lc_monetary                          - Undefined Weak Reference
    _get_lc_time                              - Undefined Weak Reference
    _getenv_init                              - Undefined Weak Reference
    _handle_redirection                       - Undefined Weak Reference
    _mutex_acquire                            - Undefined Weak Reference
    _mutex_free                               - Undefined Weak Reference
    _mutex_release                            - Undefined Weak Reference
    _printf_mbtowc                            - Undefined Weak Reference
    _printf_wc                                - Undefined Weak Reference
    _rand_init                                - Undefined Weak Reference
    _scanf_longlong                           - Undefined Weak Reference
    _scanf_mbtowc                             - Undefined Weak Reference
    _scanf_real                               - Undefined Weak Reference
    _scanf_string                             - Undefined Weak Reference
    _scanf_wctomb                             - Undefined Weak Reference
    _scanf_wstring                            - Undefined Weak Reference
    _signal_finish                            - Undefined Weak Reference
    _signal_init                              - Undefined Weak Reference
    __Vectors_Size                           0x000000c0   Number         0  startup_stm32l073xx.o ABSOLUTE
    __Vectors                                0x08000000   Data           4  startup_stm32l073xx.o(RESET)
    __dso_handle                             0x08000000   Number         0  startup_stm32l073xx.o(RESET)
    __Vectors_End                            0x080000c0   Data           0  startup_stm32l073xx.o(RESET)
    __main                                   0x080000c1   Thumb Code     8  __main.o(!!!main)
    __scatterload                            0x080000c9   Thumb Code     0  __scatter.o(!!!scatter)
    __scatterload_rt2                        0x080000c9   Thumb Code    52  __scatter.o(!!!scatter)
    __scatterload_rt2_thumb_only             0x080000c9   Thumb Code     0  __scatter.o(!!!scatter)
    __scatterload_null                       0x080000d9   Thumb Code     0  __scatter.o(!!!scatter)
    __scatterload_zeroinit                   0x08000105   Thumb Code    28  __scatter_zi.o(!!handler_zi)
    _printf_percent                          0x08000121   Thumb Code     0  _printf_percent.o(.ARM.Collect$$_printf_percent$$00000000)
    _printf_n                                0x08000123   Thumb Code     0  _printf_n.o(.ARM.Collect$$_printf_percent$$00000001)
    _printf_p                                0x0800012d   Thumb Code     0  _printf_p.o(.ARM.Collect$$_printf_percent$$00000002)
    _printf_f                                0x08000137   Thumb Code     0  _printf_f.o(.ARM.Collect$$_printf_percent$$00000003)
    _printf_e                                0x08000141   Thumb Code     0  _printf_e.o(.ARM.Collect$$_printf_percent$$00000004)
    _printf_g                                0x0800014b   Thumb Code     0  _printf_g.o(.ARM.Collect$$_printf_percent$$00000005)
    _printf_a                                0x08000155   Thumb Code     0  _printf_a.o(.ARM.Collect$$_printf_percent$$00000006)
    _printf_ll                               0x0800015f   Thumb Code     0  _printf_ll.o(.ARM.Collect$$_printf_percent$$00000007)
    _printf_i                                0x08000169   Thumb Code     0  _printf_i.o(.ARM.Collect$$_printf_percent$$00000008)
    _printf_d                                0x08000173   Thumb Code     0  _printf_d.o(.ARM.Collect$$_printf_percent$$00000009)
    _printf_u                                0x0800017d   Thumb Code     0  _printf_u.o(.ARM.Collect$$_printf_percent$$0000000A)
    _printf_o                                0x08000187   Thumb Code     0  _printf_o.o(.ARM.Collect$$_printf_percent$$0000000B)
    _printf_x                                0x08000191   Thumb Code     0  _printf_x.o(.ARM.Collect$$_printf_percent$$0000000C)
    _printf_lli                              0x0800019b   Thumb Code     0  _printf_lli.o(.ARM.Collect$$_printf_percent$$0000000D)
    _printf_lld                              0x080001a5   Thumb Code     0  _printf_lld.o(.ARM.Collect$$_printf_percent$$0000000E)
    _printf_llu                              0x080001af   Thumb Code     0  _printf_llu.o(.ARM.Collect$$_printf_percent$$0000000F)
    _printf_llo                              0x080001b9   Thumb Code     0  _printf_llo.o(.ARM.Collect$$_printf_percent$$00000010)
    _printf_llx                              0x080001c3   Thumb Code     0  _printf_llx.o(.ARM.Collect$$_printf_percent$$00000011)
    _printf_l                                0x080001cd   Thumb Code     0  _printf_l.o(.ARM.Collect$$_printf_percent$$00000012)
    _printf_c                                0x080001d7   Thumb Code     0  _printf_c.o(.ARM.Collect$$_printf_percent$$00000013)
    _printf_s                                0x080001e1   Thumb Code     0  _printf_s.o(.ARM.Collect$$_printf_percent$$00000014)
    _printf_lc                               0x080001eb   Thumb Code     0  _printf_lc.o(.ARM.Collect$$_printf_percent$$00000015)
    _printf_ls                               0x080001f5   Thumb Code     0  _printf_ls.o(.ARM.Collect$$_printf_percent$$00000016)
    _printf_percent_end                      0x080001ff   Thumb Code     0  _printf_percent_end.o(.ARM.Collect$$_printf_percent$$00000017)
    __rt_lib_init                            0x08000203   Thumb Code     0  libinit.o(.ARM.Collect$$libinit$$00000000)
    __rt_lib_init_fp_1                       0x08000205   Thumb Code     0  libinit2.o(.ARM.Collect$$libinit$$00000002)
    __rt_lib_init_heap_2                     0x08000205   Thumb Code     0  libinit2.o(.ARM.Collect$$libinit$$00000005)
    __rt_lib_init_preinit_1                  0x08000205   Thumb Code     0  libinit2.o(.ARM.Collect$$libinit$$00000004)
    __rt_lib_init_heap_1                     0x0800020d   Thumb Code     0  libinit2.o(.ARM.Collect$$libinit$$0000000A)
    __rt_lib_init_lc_common                  0x0800020d   Thumb Code     0  libinit2.o(.ARM.Collect$$libinit$$0000000F)
    __rt_lib_init_rand_1                     0x0800020d   Thumb Code     0  libinit2.o(.ARM.Collect$$libinit$$0000000E)
    __rt_lib_init_user_alloc_1               0x0800020d   Thumb Code     0  libinit2.o(.ARM.Collect$$libinit$$0000000C)
    __rt_lib_init_lc_collate_1               0x08000213   Thumb Code     0  libinit2.o(.ARM.Collect$$libinit$$00000011)
    __rt_lib_init_lc_ctype_2                 0x08000213   Thumb Code     0  libinit2.o(.ARM.Collect$$libinit$$00000012)
    __rt_lib_init_lc_ctype_1                 0x0800021f   Thumb Code     0  libinit2.o(.ARM.Collect$$libinit$$00000013)
    __rt_lib_init_lc_monetary_1              0x0800021f   Thumb Code     0  libinit2.o(.ARM.Collect$$libinit$$00000015)
    __rt_lib_init_lc_numeric_2               0x0800021f   Thumb Code     0  libinit2.o(.ARM.Collect$$libinit$$00000016)
    __rt_lib_init_atexit_1                   0x08000229   Thumb Code     0  libinit2.o(.ARM.Collect$$libinit$$0000001B)
    __rt_lib_init_clock_1                    0x08000229   Thumb Code     0  libinit2.o(.ARM.Collect$$libinit$$00000021)
    __rt_lib_init_fp_trap_1                  0x08000229   Thumb Code     0  libinit2.o(.ARM.Collect$$libinit$$0000001F)
    __rt_lib_init_getenv_1                   0x08000229   Thumb Code     0  libinit2.o(.ARM.Collect$$libinit$$00000023)
    __rt_lib_init_lc_numeric_1               0x08000229   Thumb Code     0  libinit2.o(.ARM.Collect$$libinit$$00000017)
    __rt_lib_init_lc_time_1                  0x08000229   Thumb Code     0  libinit2.o(.ARM.Collect$$libinit$$00000019)
    __rt_lib_init_signal_1                   0x08000229   Thumb Code     0  libinit2.o(.ARM.Collect$$libinit$$0000001D)
    __rt_lib_init_stdio_2                    0x08000229   Thumb Code     0  libinit2.o(.ARM.Collect$$libinit$$00000024)
    __rt_lib_init_alloca_1                   0x0800022d   Thumb Code     0  libinit2.o(.ARM.Collect$$libinit$$0000002E)
    __rt_lib_init_argv_1                     0x0800022d   Thumb Code     0  libinit2.o(.ARM.Collect$$libinit$$0000002C)
    __rt_lib_init_cpp_2                      0x0800022d   Thumb Code     0  libinit2.o(.ARM.Collect$$libinit$$00000031)
    __rt_lib_init_exceptions_1               0x0800022d   Thumb Code     0  libinit2.o(.ARM.Collect$$libinit$$00000030)
    __rt_lib_init_stdio_1                    0x0800022d   Thumb Code     0  libinit2.o(.ARM.Collect$$libinit$$00000025)
    __rt_lib_init_cpp_1                      0x08000231   Thumb Code     0  libinit2.o(.ARM.Collect$$libinit$$00000032)
    __rt_lib_init_return                     0x08000231   Thumb Code     0  libinit2.o(.ARM.Collect$$libinit$$00000033)
    __rt_entry                               0x08000233   Thumb Code     0  __rtentry.o(.ARM.Collect$$rtentry$$00000000)
    __rt_entry_presh_1                       0x08000233   Thumb Code     0  __rtentry2.o(.ARM.Collect$$rtentry$$00000002)
    __rt_entry_sh                            0x08000233   Thumb Code     0  __rtentry4.o(.ARM.Collect$$rtentry$$00000004)
    __rt_lib_shutdown_cpp_2                  0x08000233   Thumb Code     0  libshutdown2.o(.ARM.Collect$$libshutdown$$00000002)
    __rt_lib_shutdown_stdio_2                0x08000233   Thumb Code     0  libshutdown2.o(.ARM.Collect$$libshutdown$$00000004)
    __rt_entry_li                            0x08000239   Thumb Code     0  __rtentry2.o(.ARM.Collect$$rtentry$$0000000A)
    __rt_entry_postsh_1                      0x08000239   Thumb Code     0  __rtentry2.o(.ARM.Collect$$rtentry$$00000009)
    __rt_entry_main                          0x0800023d   Thumb Code     0  __rtentry2.o(.ARM.Collect$$rtentry$$0000000D)
    __rt_entry_postli_1                      0x0800023d   Thumb Code     0  __rtentry2.o(.ARM.Collect$$rtentry$$0000000C)
    __aeabi_memcpy4                          0x08000245   Thumb Code    56  rt_memcpy.o(.emb_text)
    __aeabi_memcpy8                          0x08000245   Thumb Code     0  rt_memcpy.o(.emb_text)
    Reset_Handler                            0x0800027d   Thumb Code     8  startup_stm32l073xx.o(.text)
    _maybe_terminate_alloc                   0x0800027d   Thumb Code     0  maybetermalloc1.o(.emb_text)
    NMI_Handler                              0x08000285   Thumb Code     2  startup_stm32l073xx.o(.text)
    HardFault_Handler                        0x08000287   Thumb Code     2  startup_stm32l073xx.o(.text)
    SVC_Handler                              0x08000289   Thumb Code     2  startup_stm32l073xx.o(.text)
    PendSV_Handler                           0x0800028b   Thumb Code     2  startup_stm32l073xx.o(.text)
    SysTick_Handler                          0x0800028d   Thumb Code     2  startup_stm32l073xx.o(.text)
    ADC1_COMP_IRQHandler                     0x0800028f   Thumb Code     0  startup_stm32l073xx.o(.text)
    DMA1_Channel1_IRQHandler                 0x0800028f   Thumb Code     0  startup_stm32l073xx.o(.text)
    DMA1_Channel2_3_IRQHandler               0x0800028f   Thumb Code     0  startup_stm32l073xx.o(.text)
    DMA1_Channel4_5_6_7_IRQHandler           0x0800028f   Thumb Code     0  startup_stm32l073xx.o(.text)
    EXTI0_1_IRQHandler                       0x0800028f   Thumb Code     0  startup_stm32l073xx.o(.text)
    EXTI2_3_IRQHandler                       0x0800028f   Thumb Code     0  startup_stm32l073xx.o(.text)
    EXTI4_15_IRQHandler                      0x0800028f   Thumb Code     0  startup_stm32l073xx.o(.text)
    FLASH_IRQHandler                         0x0800028f   Thumb Code     0  startup_stm32l073xx.o(.text)
    I2C1_IRQHandler                          0x0800028f   Thumb Code     0  startup_stm32l073xx.o(.text)
    I2C2_IRQHandler                          0x0800028f   Thumb Code     0  startup_stm32l073xx.o(.text)
    I2C3_IRQHandler                          0x0800028f   Thumb Code     0  startup_stm32l073xx.o(.text)
    LCD_IRQHandler                           0x0800028f   Thumb Code     0  startup_stm32l073xx.o(.text)
    LPTIM1_IRQHandler                        0x0800028f   Thumb Code     0  startup_stm32l073xx.o(.text)
    PVD_IRQHandler                           0x0800028f   Thumb Code     0  startup_stm32l073xx.o(.text)
    RCC_CRS_IRQHandler                       0x0800028f   Thumb Code     0  startup_stm32l073xx.o(.text)
    RNG_LPUART1_IRQHandler                   0x0800028f   Thumb Code     0  startup_stm32l073xx.o(.text)
    RTC_IRQHandler                           0x0800028f   Thumb Code     0  startup_stm32l073xx.o(.text)
    SPI1_IRQHandler                          0x0800028f   Thumb Code     0  startup_stm32l073xx.o(.text)
    SPI2_IRQHandler                          0x0800028f   Thumb Code     0  startup_stm32l073xx.o(.text)
    TIM21_IRQHandler                         0x0800028f   Thumb Code     0  startup_stm32l073xx.o(.text)
    TIM22_IRQHandler                         0x0800028f   Thumb Code     0  startup_stm32l073xx.o(.text)
    TIM2_IRQHandler                          0x0800028f   Thumb Code     0  startup_stm32l073xx.o(.text)
    TIM3_IRQHandler                          0x0800028f   Thumb Code     0  startup_stm32l073xx.o(.text)
    TIM6_DAC_IRQHandler                      0x0800028f   Thumb Code     0  startup_stm32l073xx.o(.text)
    TIM7_IRQHandler                          0x0800028f   Thumb Code     0  startup_stm32l073xx.o(.text)
    TSC_IRQHandler                           0x0800028f   Thumb Code     0  startup_stm32l073xx.o(.text)
    USART1_IRQHandler                        0x0800028f   Thumb Code     0  startup_stm32l073xx.o(.text)
    USART2_IRQHandler                        0x0800028f   Thumb Code     0  startup_stm32l073xx.o(.text)
    USART4_5_IRQHandler                      0x0800028f   Thumb Code     0  startup_stm32l073xx.o(.text)
    USB_IRQHandler                           0x0800028f   Thumb Code     0  startup_stm32l073xx.o(.text)
    WWDG_IRQHandler                          0x0800028f   Thumb Code     0  startup_stm32l073xx.o(.text)
    vfprintf                                 0x08000299   Thumb Code    14  vfprintf.o(.text)
    __c89vsprintf                            0x080002a9   Thumb Code    32  c89vsprintf.o(.text)
    __c89vsnprintf                           0x080002cd   Thumb Code    50  c89vsnprintf.o(.text)
    __0sscanf                                0x08000305   Thumb Code    54  __0sscanf.o(.text)
    _scanf_int                               0x08000345   Thumb Code   330  _scanf_int.o(.text)
    _do_fflush                               0x08000491   Thumb Code    54  fflush.o(.text)
    fflush                                   0x080004c7   Thumb Code    46  fflush.o(.text)
    __aeabi_atexit                           0x080004f9   Thumb Code    42  aeabi_atexit.o(.text)
    strlen                                   0x08000525   Thumb Code    62  strlen.o(.text)
    strncmp                                  0x08000569   Thumb Code   154  strncmp.o(.text)
    __aeabi_memcpy                           0x08000609   Thumb Code   130  rt_memcpy.o(.text)
    __rt_memcpy                              0x08000609   Thumb Code     0  rt_memcpy.o(.text)
    _memset_w                                0x0800068b   Thumb Code    26  rt_memclr.o(.text)
    _memset                                  0x080006a5   Thumb Code    30  rt_memclr.o(.text)
    __aeabi_memclr                           0x080006c3   Thumb Code     4  rt_memclr.o(.text)
    __rt_memclr                              0x080006c3   Thumb Code     0  rt_memclr.o(.text)
    __aeabi_memclr4                          0x080006c7   Thumb Code     0  rt_memclr.o(.text)
    __aeabi_memclr8                          0x080006c7   Thumb Code     0  rt_memclr.o(.text)
    __rt_memclr_w                            0x080006c7   Thumb Code     4  rt_memclr.o(.text)
    strcmp                                   0x080006cd   Thumb Code   160  strcmpv6m.o(.text)
    __aeabi_uidiv                            0x0800076d   Thumb Code     0  aeabi_sdivfast.o(.text)
    __aeabi_uidivmod                         0x0800076d   Thumb Code    28  aeabi_sdivfast.o(.text)
    __aeabi_idiv                             0x08000789   Thumb Code     0  aeabi_sdivfast.o(.text)
    __aeabi_idivmod                          0x08000789   Thumb Code   460  aeabi_sdivfast.o(.text)
    __cpp_initialize__aeabi_                 0x08000955   Thumb Code    26  init_aeabi.o(.text)
    __aeabi_dadd                             0x08000c71   Thumb Code     0  daddsub.o(.text)
    _dadd                                    0x08000c71   Thumb Code    26  daddsub.o(.text)
    __aeabi_dsub                             0x08000c8b   Thumb Code     0  daddsub.o(.text)
    _dsub                                    0x08000c8b   Thumb Code    22  daddsub.o(.text)
    __aeabi_drsub                            0x08000ca1   Thumb Code     0  daddsub.o(.text)
    _drsb                                    0x08000ca1   Thumb Code    28  daddsub.o(.text)
    __aeabi_ddiv                             0x08000cd1   Thumb Code     0  ddiv.o(.text)
    _ddiv                                    0x08000cd1   Thumb Code  1072  ddiv.o(.text)
    _drdiv                                   0x08001101   Thumb Code    20  ddiv.o(.text)
    __aeabi_d2iz                             0x08001119   Thumb Code     0  dfixi.o(.text)
    _dfix                                    0x08001119   Thumb Code    98  dfixi.o(.text)
    __aeabi_d2uiz                            0x08001185   Thumb Code     0  dfixui.o(.text)
    _dfixu                                   0x08001185   Thumb Code    68  dfixui.o(.text)
    __aeabi_i2d_normalise                    0x080011cd   Thumb Code    66  dflti.o(.text)
    __aeabi_i2d                              0x0800120f   Thumb Code    16  dflti.o(.text)
    _dflt                                    0x0800120f   Thumb Code     0  dflti.o(.text)
    __aeabi_ui2d                             0x0800121f   Thumb Code     6  dflti.o(.text)
    _dfltu                                   0x0800121f   Thumb Code     0  dflti.o(.text)
    __aeabi_dmul                             0x08001225   Thumb Code     0  dmul.o(.text)
    _dmul                                    0x08001225   Thumb Code   558  dmul.o(.text)
    __ARM_scalbn                             0x0800146d   Thumb Code    84  dscalbn.o(.text)
    __aeabi_f2iz                             0x080014cd   Thumb Code     0  ffixi.o(.text)
    _ffix                                    0x080014cd   Thumb Code    76  ffixi.o(.text)
    __rt_new_handler_addr                    0x08001519   Thumb Code     8  rt_new_handler_addr.o(.text)
    __rt_ddtor_pointer_addr                  0x08001521   Thumb Code     8  rt_ddtor_pointer_addr.o(.text)
    malloc                                   0x08001529   Thumb Code    98  h1_alloc.o(.text)
    free                                     0x0800158b   Thumb Code    76  h1_free.o(.text)
    _printf_pre_padding                      0x080015d7   Thumb Code    44  _printf_pad.o(.text)
    _printf_post_padding                     0x08001603   Thumb Code    34  _printf_pad.o(.text)
    _printf_truncate_signed                  0x08001625   Thumb Code    18  _printf_truncate.o(.text)
    _printf_truncate_unsigned                0x08001637   Thumb Code    18  _printf_truncate.o(.text)
    _printf_str                              0x08001649   Thumb Code    82  _printf_str.o(.text)
    _printf_int_dec                          0x0800169d   Thumb Code    90  _printf_dec.o(.text)
    _printf_charcount                        0x08001709   Thumb Code    38  _printf_charcount.o(.text)
    _printf_char_common                      0x0800173b   Thumb Code    32  _printf_char_common.o(.text)
    _sputc                                   0x08001761   Thumb Code    10  _sputc.o(.text)
    _snputc                                  0x0800176b   Thumb Code    16  _snputc.o(.text)
    _printf_char_file                        0x0800177d   Thumb Code    34  _printf_char_file.o(.text)
    _printf_wctomb                           0x080017a5   Thumb Code   182  _printf_wctomb.o(.text)
    _printf_longlong_dec                     0x08001861   Thumb Code    94  _printf_longlong_dec.o(.text)
    _printf_longlong_oct                     0x080018d1   Thumb Code    68  _printf_oct_int_ll.o(.text)
    _printf_int_oct                          0x08001915   Thumb Code    24  _printf_oct_int_ll.o(.text)
    _printf_ll_oct                           0x0800192d   Thumb Code    10  _printf_oct_int_ll.o(.text)
    _printf_longlong_hex                     0x08001941   Thumb Code    88  _printf_hex_int_ll_ptr.o(.text)
    _printf_int_hex                          0x08001999   Thumb Code    28  _printf_hex_int_ll_ptr.o(.text)
    _printf_ll_hex                           0x080019b5   Thumb Code    10  _printf_hex_int_ll_ptr.o(.text)
    _printf_hex_ptr                          0x080019bf   Thumb Code    22  _printf_hex_int_ll_ptr.o(.text)
    __printf                                 0x080019d9   Thumb Code   386  __printf_flags_ss_wp.o(.text)
    _chval                                   0x08001b61   Thumb Code    30  _chval.o(.text)
    __vfscanf_char                           0x08001b8d   Thumb Code    28  scanf_char.o(.text)
    _sgetc                                   0x08001bb1   Thumb Code    32  _sgetc.o(.text)
    _sbackspace                              0x08001bd1   Thumb Code    36  _sgetc.o(.text)
    ferror                                   0x08001bf5   Thumb Code     8  ferror.o(.text)
    _fseek                                   0x08001bfd   Thumb Code   240  fseek.o(.text)
    fseek                                    0x08001bfd   Thumb Code     0  fseek.o(.text)
    setvbuf                                  0x08001cf1   Thumb Code    72  setvbuf.o(.text)
    _seterr                                  0x08001d3d   Thumb Code    20  stdio.o(.text)
    _writebuf                                0x08001d51   Thumb Code    76  stdio.o(.text)
    _fflush                                  0x08001d9d   Thumb Code    76  stdio.o(.text)
    _deferredlazyseek                        0x08001de9   Thumb Code    60  stdio.o(.text)
    _initio                                  0x08001e2d   Thumb Code   216  initio.o(.text)
    _terminateio                             0x08001f05   Thumb Code    56  initio.o(.text)
    __cxa_finalize                           0x08001f69   Thumb Code    66  cxa_finalize.o(.text)
    __rt_SIGPVFN                             0x08001fab   Thumb Code    12  defsig_pvfn_outer.o(.text)
    __default_new_handler()                  0x08001fb7   Thumb Code     8  arm_newhandler_noexceptions.o(.text)
    __fpl_dcmp_InfNaN                        0x08001fc1   Thumb Code   140  dcmpin.o(.text)
    _drnd                                    0x08002051   Thumb Code   232  drnd.o(.text)
    __rt_heap_descriptor                     0x08002141   Thumb Code     8  rt_heap_descriptor.o(.text)
    __use_no_heap                            0x08002149   Thumb Code     2  hguard.o(.text)
    __heap$guard                             0x0800214b   Thumb Code     2  hguard.o(.text)
    _terminate_user_alloc                    0x0800214d   Thumb Code     2  init_alloc.o(.text)
    _init_user_alloc                         0x0800214f   Thumb Code     2  init_alloc.o(.text)
    __Heap_Full                              0x08002151   Thumb Code    32  init_alloc.o(.text)
    __Heap_Broken                            0x08002171   Thumb Code    10  init_alloc.o(.text)
    _init_alloc                              0x0800217b   Thumb Code    90  init_alloc.o(.text)
    __Heap_Initialize                        0x080021d5   Thumb Code    10  h1_init.o(.text)
    __Heap_DescSize                          0x080021df   Thumb Code     4  h1_init.o(.text)
    _ll_udiv10                               0x080021e3   Thumb Code   122  lludiv10.o(.text)
    isspace                                  0x0800225d   Thumb Code    18  isspace.o(.text)
    _printf_int_common                       0x0800226f   Thumb Code   176  _printf_intcommon.o(.text)
    __lib_sel_fp_printf                      0x08002321   Thumb Code     2  _printf_fp_dec.o(.text)
    _printf_fp_dec_real                      0x080024bb   Thumb Code   620  _printf_fp_dec.o(.text)
    _printf_fp_hex_real                      0x08002735   Thumb Code   718  _printf_fp_hex.o(.text)
    _printf_cs_common                        0x08002a0d   Thumb Code    22  _printf_char.o(.text)
    _printf_char                             0x08002a23   Thumb Code    16  _printf_char.o(.text)
    _printf_string                           0x08002a33   Thumb Code     8  _printf_char.o(.text)
    _printf_lcs_common                       0x08002a3b   Thumb Code    22  _printf_wchar.o(.text)
    _printf_wchar                            0x08002a51   Thumb Code    16  _printf_wchar.o(.text)
    _printf_wstring                          0x08002a61   Thumb Code     8  _printf_wchar.o(.text)
    __vfscanf                                0x08002a69   Thumb Code   880  _scanf.o(.text)
    _ftell_internal                          0x08002de9   Thumb Code    66  ftell.o(.text)
    ftell                                    0x08002de9   Thumb Code     0  ftell.o(.text)
    freopen                                  0x08002e2d   Thumb Code   148  fopen.o(.text)
    fopen                                    0x08002ec1   Thumb Code    76  fopen.o(.text)
    _fclose_internal                         0x08002f15   Thumb Code    72  fclose.o(.text)
    fclose                                   0x08002f15   Thumb Code     0  fclose.o(.text)
    _wcrtomb                                 0x08002f61   Thumb Code    64  _wcrtomb.o(.text)
    __sig_exit                               0x08002fa1   Thumb Code    12  defsig_exit.o(.text)
    __rt_SIGRTRED                            0x08002fad   Thumb Code    12  defsig_rtred_outer.o(.text)
    __rt_SIGPVFN_inner                       0x08002fb9   Thumb Code    14  defsig_pvfn_inner.o(.text)
    __rt_udiv10                              0x08002fe9   Thumb Code    40  rtudiv10.o(.text)
    std::terminate()                         0x08003011   Thumb Code    28  arm_exceptions_terminate.o(.text)
    __cxa_get_globals                        0x08003033   Thumb Code    66  arm_exceptions_globs.o(.text)
    __fpl_cmpreturn                          0x08003081   Thumb Code    46  cmpret.o(.text)
    __fpl_dcheck_NaN2                        0x080030b1   Thumb Code    14  dnan2.o(.text)
    _sys_exit                                0x080030c5   Thumb Code     8  sys_exit.o(.text)
    __rt_ctype_table                         0x080030d1   Thumb Code    16  rt_ctype_table.o(.text)
    __rt_locale                              0x080030e1   Thumb Code     8  rt_locale.o(.text)
    __rt_eh_globals_addr                     0x080030e9   Thumb Code     8  rt_eh_globals_addr.o(.text)
    __aeabi_errno_addr                       0x080030f1   Thumb Code     8  rt_errno_addr.o(.text)
    __errno                                  0x080030f1   Thumb Code     0  rt_errno_addr.o(.text)
    __rt_errno_addr                          0x080030f1   Thumb Code     0  rt_errno_addr.o(.text)
    __Heap_ProvideMemory                     0x080030f9   Thumb Code    52  h1_extend.o(.text)
    _printf_fp_infnan                        0x0800312d   Thumb Code   120  _printf_fp_infnan.o(.text)
    _btod_etento                             0x080031b5   Thumb Code   196  bigflt0.o(.text)
    _btod_d2e                                0x0800327d   Thumb Code    64  btod.o(.text)
    _btod_emul                               0x08003673   Thumb Code    24  btod.o(.text)
    _btod_emuld                              0x0800368b   Thumb Code    60  btod.o(.text)
    _btod_ediv                               0x080036c7   Thumb Code    22  btod.o(.text)
    _btod_edivd                              0x080036dd   Thumb Code    60  btod.o(.text)
    __flsbuf                                 0x08003725   Thumb Code   486  flsbuf.o(.text)
    __flsbuf_byte                            0x08003725   Thumb Code     0  flsbuf.o(.text)
    __flsbuf_wide                            0x08003725   Thumb Code     0  flsbuf.o(.text)
    abort                                    0x08003915   Thumb Code    20  abort.o(.text)
    __default_signal_display                 0x08003929   Thumb Code    52  defsig_general.o(.text)
    __rt_SIGRTRED_inner                      0x0800395d   Thumb Code    14  defsig_rtred_inner.o(.text)
    __rt_SIGRTMEM                            0x08003991   Thumb Code    12  defsig_rtmem_outer.o(.text)
    __rt_heap_escrow                         0x0800399d   Thumb Code    24  heapauxa.o(.text)
    __rt_heap_expand                         0x080039b5   Thumb Code    52  heapauxa.o(.text)
    __ARM_exceptions_buffer_init             0x080039ed   Thumb Code    18  arm_exceptions_mem.o(.text)
    __ARM_exceptions_buffer_allocate         0x080039ff   Thumb Code    26  arm_exceptions_mem.o(.text)
    __ARM_exceptions_buffer_free             0x08003a19   Thumb Code    22  arm_exceptions_mem.o(.text)
    __fpl_return_NaN                         0x08003a2f   Thumb Code    94  retnan.o(.text)
    _ttywrch                                 0x08003a8d   Thumb Code    12  sys_wrch.o(.text)
    __I$use$semihosting                      0x08003a99   Thumb Code     0  use_no_semi.o(.text)
    __use_no_semihosting_swi                 0x08003a99   Thumb Code     2  use_no_semi.o(.text)
    __rt_SIGABRT                             0x08003a9b   Thumb Code    12  defsig_abrt_outer.o(.text)
    __semihosting_library_function           0x08003a9b   Thumb Code     0  indicate_semi.o(.text)
    __rt_SIGRTMEM_inner                      0x08003aa9   Thumb Code    22  defsig_rtmem_inner.o(.text)
    __rt_SIGABRT_inner                       0x08003af9   Thumb Code    14  defsig_abrt_inner.o(.text)
    __decompress                             0x08003b29   Thumb Code     0  __dczerorl2.o(.text)
    __decompress1                            0x08003b29   Thumb Code    86  __dczerorl2.o(.text)
    main                                     0x08003b7f   Thumb Code    16  retarget.o(i.$Sub$$main)
    HAL_GPIO_Init                            0x08003b99   Thumb Code   356  stm32l0xx_hal_gpio.o(i.HAL_GPIO_Init)
    HAL_GetTick                              0x08003d1d   Thumb Code     6  stm32l0xx_hal.o(i.HAL_GetTick)
    HAL_IncTick                              0x08003d29   Thumb Code    10  stm32l0xx_hal.o(i.HAL_IncTick)
    HAL_Init                                 0x08003d39   Thumb Code    26  stm32l0xx_hal.o(i.HAL_Init)
    HAL_InitTick                             0x08003d59   Thumb Code   138  hal_tick.o(i.HAL_InitTick)
    HAL_MspInit                              0x08003e05   Thumb Code     2  stm32l0xx_hal.o(i.HAL_MspInit)
    HAL_RCC_ClockConfig                      0x08003e09   Thumb Code   362  stm32l0xx_hal_rcc.o(i.HAL_RCC_ClockConfig)
    HAL_RCC_GetPCLK1Freq                     0x08003f81   Thumb Code    36  stm32l0xx_hal_rcc.o(i.HAL_RCC_GetPCLK1Freq)
    HAL_RCC_GetPCLK2Freq                     0x08003fb1   Thumb Code    36  stm32l0xx_hal_rcc.o(i.HAL_RCC_GetPCLK2Freq)
    HAL_RCC_GetSysClockFreq                  0x08003fe1   Thumb Code   120  stm32l0xx_hal_rcc.o(i.HAL_RCC_GetSysClockFreq)
    HAL_RCC_OscConfig                        0x08004071   Thumb Code  1160  stm32l0xx_hal_rcc.o(i.HAL_RCC_OscConfig)
    HAL_SPI_Init                             0x080044f9   Thumb Code   132  stm32l0xx_hal_spi.o(i.HAL_SPI_Init)
    HAL_SPI_MspInit                          0x0800457d   Thumb Code     2  stm32l0xx_hal_spi.o(i.HAL_SPI_MspInit)
    HAL_TIM_Base_Init                        0x0800457f   Thumb Code    50  stm32l0xx_hal_tim.o(i.HAL_TIM_Base_Init)
    HAL_TIM_Base_MspInit                     0x080045b1   Thumb Code     2  stm32l0xx_hal_tim.o(i.HAL_TIM_Base_MspInit)
    HAL_TIM_Base_Start                       0x080045b3   Thumb Code    24  stm32l0xx_hal_tim.o(i.HAL_TIM_Base_Start)
    HAL_TIM_OC_Start                         0x080045cb   Thumb Code    36  stm32l0xx_hal_tim.o(i.HAL_TIM_OC_Start)
    HAL_UART_Init                            0x080045ef   Thumb Code   102  stm32l0xx_hal_uart.o(i.HAL_UART_Init)
    HAL_UART_MspInit                         0x08004655   Thumb Code     2  stm32l0xx_hal_uart.o(i.HAL_UART_MspInit)
    NVIC_SetVector                           0x08004659   Thumb Code    48  cmsis_nvic.o(i.NVIC_SetVector)
    SetSysClock_PLL_HSE                      0x0800468d   Thumb Code   138  system_stm32l0xx.o(i.SetSysClock_PLL_HSE)
    Set_GPIO_Clock                           0x08004721   Thumb Code   130  pinmap.o(i.Set_GPIO_Clock)
    SystemCoreClockUpdate                    0x080047dd   Thumb Code   114  system_stm32l0xx.o(i.SystemCoreClockUpdate)
    SystemInit                               0x0800486d   Thumb Code   200  system_stm32l0xx.o(i.SystemInit)
    UART_AdvFeatureConfig                    0x080049b1   Thumb Code   204  stm32l0xx_hal_uart.o(i.UART_AdvFeatureConfig)
    UART_CheckIdleState                      0x08004a7d   Thumb Code    80  stm32l0xx_hal_uart.o(i.UART_CheckIdleState)
    UART_SetConfig                           0x08004ad1   Thumb Code   606  stm32l0xx_hal_uart.o(i.UART_SetConfig)
    UART_WaitOnFlagUntilTimeout              0x08004d65   Thumb Code   216  stm32l0xx_hal_uart.o(i.UART_WaitOnFlagUntilTimeout)
    TimerStart(TimerEvent_s*)                0x08005215   Thumb Code    22  timer.o(i._Z10TimerStartP12TimerEvent_s)
    aes_encrypt(const unsigned char*, unsigned char*, const aes_context*) 0x080052a1   Thumb Code   734  aes.o(i._Z11aes_encryptPKhPhPK11aes_context)
    aes_set_key(const unsigned char*, unsigned char, aes_context*) 0x08005591   Thumb Code   286  aes.o(i._Z11aes_set_keyPKhhP11aes_context)
    PrepareFrame(uLoRaMacHeader*, uLoRaMacFrameCtrl*, unsigned char, void*, unsigned short) 0x080056b5   Thumb Code   710  loramac.o(i._Z12PrepareFrameP14uLoRaMacHeaderP17uLoRaMacFrameCtrlhPvt)
    AES_CMAC_Init(_AES_CMAC_CTX*)            0x080059b5   Thumb Code    32  cmac.o(i._Z13AES_CMAC_InitP13_AES_CMAC_CTX)
    TimerSetValue(TimerEvent_s*, unsigned)   0x0800611d   Thumb Code     4  timer.o(i._Z13TimerSetValueP12TimerEvent_sj)
    AES_CMAC_Final(unsigned char*, _AES_CMAC_CTX*) 0x08006121   Thumb Code   438  cmac.o(i._Z14AES_CMAC_FinalPhP13_AES_CMAC_CTX)
    AES_CMAC_SetKey(_AES_CMAC_CTX*, const unsigned char*) 0x0800649d   Thumb Code    16  cmac.o(i._Z15AES_CMAC_SetKeyP13_AES_CMAC_CTXPKh)
    AES_CMAC_Update(_AES_CMAC_CTX*, const unsigned char*, unsigned) 0x080064ad   Thumb Code   228  cmac.o(i._Z15AES_CMAC_UpdateP13_AES_CMAC_CTXPKhj)
    LoRaMacChannelAdd(unsigned char, sChannelParams) 0x08006655   Thumb Code   202  loramac.o(i._Z17LoRaMacChannelAddh14sChannelParams)
    LoRaMacComputeMic(const unsigned char*, unsigned short, const unsigned char*, unsigned, unsigned char, unsigned, unsigned*) 0x08006731   Thumb Code   128  loramaccrypto.o(i._Z17LoRaMacComputeMicPKhtS0_jhjPj)
    SerialDisplayInit()                      0x080067c1   Thumb Code   632  serialdisplay.o(i._Z17SerialDisplayInitv)
    LoRaMacJoinDecrypt(const unsigned char*, unsigned short, const unsigned char*, unsigned char*) 0x08006b5d   Thumb Code    60  loramaccrypto.o(i._Z18LoRaMacJoinDecryptPKhtS0_Ph)
    LoRaMacMcpsRequest(sMcpsReq*)            0x08006b9d   Thumb Code   214  loramac.o(i._Z18LoRaMacMcpsRequestP8sMcpsReq)
    LoRaMacMlmeRequest(sMlmeReq*)            0x08006c81   Thumb Code   158  loramac.o(i._Z18LoRaMacMlmeRequestP8sMlmeReq)
    SendFrameOnChannel(sChannelParams)       0x080070f1   Thumb Code   316  loramac.o(i._Z18SendFrameOnChannel14sChannelParams)
    SerialPrintCheckBox(bool, unsigned char) 0x08007265   Thumb Code    58  serialdisplay.o(i._Z19SerialPrintCheckBoxbh)
    TimerGetCurrentTime()                    0x080072b1   Thumb Code    32  timer.o(i._Z19TimerGetCurrentTimev)
    TimerGetElapsedTime(unsigned)            0x080072d9   Thumb Code    36  timer.o(i._Z19TimerGetElapsedTimej)
    BoardGetBatteryLevel()                   0x08007305   Thumb Code     4  board.o(i._Z20BoardGetBatteryLevelv)
    SerialDisplayGetChar()                   0x08007309   Thumb Code    12  serialdisplay.o(i._Z20SerialDisplayGetCharv)
    TimerTimeCounterInit()                   0x08007319   Thumb Code    26  timer.o(i._Z20TimerTimeCounterInitv)
    LoRaMacInitialization(sLoRaMacPrimitives*, sLoRaMacCallback*) 0x08007345   Thumb Code   244  loramac.o(i._Z21LoRaMacInitializationP18sLoRaMacPrimitivesP16sLoRaMacCallback)
    LoRaMacJoinComputeMic(const unsigned char*, unsigned short, const unsigned char*, unsigned*) 0x08007499   Thumb Code    78  loramaccrypto.o(i._Z21LoRaMacJoinComputeMicPKhtS0_Pj)
    LoRaMacPayloadDecrypt(const unsigned char*, unsigned short, const unsigned char*, unsigned, unsigned char, unsigned, unsigned char*) 0x080074f5   Thumb Code    24  loramaccrypto.o(i._Z21LoRaMacPayloadDecryptPKhtS0_jhjPh)
    LoRaMacPayloadEncrypt(const unsigned char*, unsigned short, const unsigned char*, unsigned, unsigned char, unsigned, unsigned char*) 0x0800750d   Thumb Code   244  loramaccrypto.o(i._Z21LoRaMacPayloadEncryptPKhtS0_jhjPh)
    SerialDisplayDrawLine(const char*, const char*) 0x0800770d   Thumb Code    66  serialdisplay.o(i._Z21SerialDisplayDrawLinePKcS0_)
    SerialDisplayReadable()                  0x08007761   Thumb Code    16  serialdisplay.o(i._Z21SerialDisplayReadablev)
    TimerResetTimeCounter()                  0x08007775   Thumb Code    30  timer.o(i._Z21TimerResetTimeCounterv)
    LoRaMacQueryTxPossible(unsigned char, sLoRaMacTxInfo*) 0x0800779d   Thumb Code   144  loramac.o(i._Z22LoRaMacQueryTxPossiblehP14sLoRaMacTxInfo)
    SerialDisplayDrawTitle(const char*)      0x08007875   Thumb Code    44  serialdisplay.o(i._Z22SerialDisplayDrawTitlePKc)
    SerialDisplayUpdateAdr(bool)             0x080078b1   Thumb Code    40  serialdisplay.o(i._Z22SerialDisplayUpdateAdrb)
    SerialDisplayUpdateEui(unsigned char, unsigned char*) 0x080078e9   Thumb Code    60  serialdisplay.o(i._Z22SerialDisplayUpdateEuihPh)
    SerialDisplayUpdateKey(unsigned char, unsigned char*) 0x08007939   Thumb Code    60  serialdisplay.o(i._Z22SerialDisplayUpdateKeyhPh)
    LoRaMacJoinComputeSKeys(const unsigned char*, const unsigned char*, unsigned short, unsigned char*, unsigned char*) 0x08007989   Thumb Code   130  loramaccrypto.o(i._Z23LoRaMacJoinComputeSKeysPKhS0_tPhS1_)
    SerialDisplayUpdateData(unsigned char, unsigned char*, unsigned char) 0x08007a11   Thumb Code   200  serialdisplay.o(i._Z23SerialDisplayUpdateDatahPhh)
    SerialDisplayUpdateUplink(bool, unsigned char, unsigned short, unsigned char, unsigned char*, unsigned char) 0x08007cf9   Thumb Code   132  serialdisplay.o(i._Z25SerialDisplayUpdateUplinkbhthPhh)
    SerialDisplayDrawFirstLine()             0x08007dc1   Thumb Code    52  serialdisplay.o(i._Z26SerialDisplayDrawFirstLinev)
    SerialDisplayDrawSeparator()             0x08007e01   Thumb Code    82  serialdisplay.o(i._Z26SerialDisplayDrawSeparatorv)
    LoRaMacMibGetRequestConfirm(eMibRequestConfirm*) 0x08007e61   Thumb Code   204  loramac.o(i._Z27LoRaMacMibGetRequestConfirmP18eMibRequestConfirm)
    LoRaMacMibSetRequestConfirm(eMibRequestConfirm*) 0x08007f41   Thumb Code   378  loramac.o(i._Z27LoRaMacMibSetRequestConfirmP18eMibRequestConfirm)
    SerialDisplayUpdateDownlink(bool, short, signed char, unsigned short, unsigned char, unsigned char*, unsigned char) 0x080080d1   Thumb Code   172  serialdisplay.o(i._Z27SerialDisplayUpdateDownlinkbsathPhh)
    SerialDisplayUpdateLedState(unsigned char, unsigned char) 0x08008199   Thumb Code   102  serialdisplay.o(i._Z27SerialDisplayUpdateLedStatehh)
    SerialDisplayUpdateDutyCycle(bool)       0x08008209   Thumb Code    40  serialdisplay.o(i._Z28SerialDisplayUpdateDutyCycleb)
    SerialDisplayUpdateFrameType(bool)       0x08008241   Thumb Code    48  serialdisplay.o(i._Z28SerialDisplayUpdateFrameTypeb)
    SerialDisplayUpdateUplinkAcked(bool)     0x08008279   Thumb Code    26  serialdisplay.o(i._Z30SerialDisplayUpdateUplinkAckedb)
    SerialDisplayUpdatePublicNetwork(bool)   0x0800829d   Thumb Code    48  serialdisplay.o(i._Z32SerialDisplayUpdatePublicNetworkb)
    SerialDisplayUpdateActivationMode(bool)  0x080082d5   Thumb Code    48  serialdisplay.o(i._Z33SerialDisplayUpdateActivationModeb)
    SerialDisplayUpdateDonwlinkRxData(bool)  0x0800830d   Thumb Code    26  serialdisplay.o(i._Z33SerialDisplayUpdateDonwlinkRxDatab)
    SerialDisplayUpdateNetworkIsJoined(bool) 0x08008331   Thumb Code    48  serialdisplay.o(i._Z34SerialDisplayUpdateNetworkIsJoinedb)
    Send(uLoRaMacHeader*, unsigned char, void*, unsigned short) 0x08008369   Thumb Code    58  loramac.o(i._Z4SendP14uLoRaMacHeaderhPvt)
    randr(int, int)                          0x080083ad   Thumb Code    40  utilities.o(i._Z5randrii)
    srand1(unsigned)                         0x080083e5   Thumb Code     6  utilities.o(i._Z6srand1j)
    memcpy1(unsigned char*, const unsigned char*, unsigned short) 0x080083f1   Thumb Code    58  utilities.o(i._Z7memcpy1PhPKht)
    memcpyr(unsigned char*, const unsigned char*, unsigned short) 0x0800842b   Thumb Code    66  utilities.o(i._Z7memcpyrPhPKht)
    memset1(unsigned char*, unsigned char, unsigned short) 0x0800846d   Thumb Code    46  utilities.o(i._Z7memset1Phht)
    BoardInit()                              0x0800849b   Thumb Code     8  board.o(i._Z9BoardInitv)
    TimerInit(TimerEvent_s*, void(*)())      0x080084a3   Thumb Code     8  timer.o(i._Z9TimerInitP12TimerEvent_sPFvvE)
    TimerStop(TimerEvent_s*)                 0x080084ab   Thumb Code    10  timer.o(i._Z9TimerStopP12TimerEvent_s)
    SX1276MB1xAS::AntSwDeInit()              0x080084b5   Thumb Code    34  sx1276-hal.o(i._ZN12SX1276MB1xAS11AntSwDeInitEv)
    SX1276MB1xAS::GetPaSelect(unsigned)      0x080084e1   Thumb Code    26  sx1276-hal.o(i._ZN12SX1276MB1xAS11GetPaSelectEj)
    SX1276MB1xAS::CheckRfFrequency(unsigned) 0x08008501   Thumb Code     4  sx1276-hal.o(i._ZN12SX1276MB1xAS16CheckRfFrequencyEj)
    SX1276MB1xAS::SetAntSwLowPower(bool)     0x08008505   Thumb Code    34  sx1276-hal.o(i._ZN12SX1276MB1xAS16SetAntSwLowPowerEb)
    SX1276MB1xAS::Read(unsigned char)        0x08008527   Thumb Code    18  sx1276-hal.o(i._ZN12SX1276MB1xAS4ReadEh)
    SX1276MB1xAS::Read(unsigned char, unsigned char*, unsigned char) 0x08008539   Thumb Code   106  sx1276-hal.o(i._ZN12SX1276MB1xAS4ReadEhPhh)
    SX1276MB1xAS::Reset()                    0x080085ad   Thumb Code    60  sx1276-hal.o(i._ZN12SX1276MB1xAS5ResetEv)
    SX1276MB1xAS::Write(unsigned char, unsigned char*, unsigned char) 0x08008605   Thumb Code   104  sx1276-hal.o(i._ZN12SX1276MB1xAS5WriteEhPhh)
    SX1276MB1xAS::Write(unsigned char, unsigned char) 0x08008675   Thumb Code    16  sx1276-hal.o(i._ZN12SX1276MB1xAS5WriteEhh)
    SX1276MB1xAS::SpiInit()                  0x08008685   Thumb Code    50  sx1276-hal.o(i._ZN12SX1276MB1xAS7SpiInitEv)
    SX1276MB1xAS::ReadFifo(unsigned char*, unsigned char) 0x080086c5   Thumb Code    18  sx1276-hal.o(i._ZN12SX1276MB1xAS8ReadFifoEPhh)
    SX1276MB1xAS::SetAntSw(unsigned char)    0x080086d9   Thumb Code    66  sx1276-hal.o(i._ZN12SX1276MB1xAS8SetAntSwEh)
    SX1276MB1xAS::AntSwInit()                0x08008725   Thumb Code    34  sx1276-hal.o(i._ZN12SX1276MB1xAS9AntSwInitEv)
    SX1276MB1xAS::IoIrqInit(void(SX1276::**)()) 0x08008751   Thumb Code   150  sx1276-hal.o(i._ZN12SX1276MB1xAS9IoIrqInitEPM6SX1276FvvE)
    SX1276MB1xAS::WriteFifo(unsigned char*, unsigned char) 0x080087ed   Thumb Code    18  sx1276-hal.o(i._ZN12SX1276MB1xAS9WriteFifoEPhh)
    SX1276MB1xAS::SX1276MB1xAS(RadioEvents_t*) 0x08008801   Thumb Code   342  sx1276-hal.o(i._ZN12SX1276MB1xASC1EP13RadioEvents_t)
    SX1276MB1xAS::SX1276MB1xAS__sub_object(RadioEvents_t*) 0x08008801   Thumb Code     0  sx1276-hal.o(i._ZN12SX1276MB1xASC1EP13RadioEvents_t)
    SX1276MB1xAS::~SX1276MB1xAS()            0x08008969   Thumb Code     8  board.o(i._ZN12SX1276MB1xASD1Ev)
    SX1276MB1xAS::~SX1276MB1xAS__sub_object() 0x08008969   Thumb Code     0  board.o(i._ZN12SX1276MB1xASD1Ev)
    TimerEvent_s::~TimerEvent_s()            0x08008971   Thumb Code    26  main.o(i._ZN12TimerEvent_sD1Ev)
    TimerEvent_s::~TimerEvent_s__sub_object() 0x08008971   Thumb Code     0  main.o(i._ZN12TimerEvent_sD1Ev)
    mbed::SerialBase::_base_getc()           0x08008991   Thumb Code    10  SerialBase.o(i._ZN4mbed10SerialBase10_base_getcEv)
    mbed::SerialBase::_base_putc(int)        0x0800899b   Thumb Code    14  SerialBase.o(i._ZN4mbed10SerialBase10_base_putcEi)
    mbed::SerialBase::_irq_handler(unsigned, SerialIrq) 0x080089a9   Thumb Code    46  SerialBase.o(i._ZN4mbed10SerialBase12_irq_handlerEj9SerialIrq)
    mbed::SerialBase::baud(int)              0x080089d7   Thumb Code    16  SerialBase.o(i._ZN4mbed10SerialBase4baudEi)
    mbed::SerialBase::readable()             0x080089e7   Thumb Code    10  SerialBase.o(i._ZN4mbed10SerialBase8readableEv)
    mbed::SerialBase::writeable()            0x080089f1   Thumb Code    10  SerialBase.o(i._ZN4mbed10SerialBase9writeableEv)
    mbed::SerialBase::SerialBase(PinName, PinName) 0x080089fd   Thumb Code    72  SerialBase.o(i._ZN4mbed10SerialBaseC1E7PinNameS1_)
    mbed::SerialBase::SerialBase__sub_object(PinName, PinName) 0x080089fd   Thumb Code     0  SerialBase.o(i._ZN4mbed10SerialBaseC1E7PinNameS1_)
    mbed::TimerEvent::irq(unsigned)          0x08008a51   Thumb Code     6  TimerEvent.o(i._ZN4mbed10TimerEvent3irqEj)
    mbed::TimerEvent::insert(unsigned)       0x08008a57   Thumb Code    18  TimerEvent.o(i._ZN4mbed10TimerEvent6insertEj)
    mbed::TimerEvent::remove()               0x08008a69   Thumb Code    14  TimerEvent.o(i._ZN4mbed10TimerEvent6removeEv)
    mbed::TimerEvent::TimerEvent__sub_object() 0x08008a79   Thumb Code    32  TimerEvent.o(i._ZN4mbed10TimerEventC2Ev)
    mbed::TimerEvent::~TimerEvent()          0x08008aa1   Thumb Code     0  TimerEvent.o(i._ZN4mbed10TimerEventD2Ev)
    mbed::TimerEvent::~TimerEvent__sub_object() 0x08008aa1   Thumb Code    20  TimerEvent.o(i._ZN4mbed10TimerEventD2Ev)
    mbed::InterruptIn::_irq_handler(unsigned, gpio_irq_event) 0x08008ab9   Thumb Code    62  InterruptIn.o(i._ZN4mbed11InterruptIn12_irq_handlerEj14gpio_irq_event)
    mbed::InterruptIn::InterruptIn(PinName)  0x08008af9   Thumb Code    64  InterruptIn.o(i._ZN4mbed11InterruptInC1E7PinName)
    mbed::InterruptIn::InterruptIn__sub_object(PinName) 0x08008af9   Thumb Code     0  InterruptIn.o(i._ZN4mbed11InterruptInC1E7PinName)
    mbed::InterruptIn::~InterruptIn()        0x08008b41   Thumb Code    20  InterruptIn.o(i._ZN4mbed11InterruptInD1Ev)
    mbed::InterruptIn::~InterruptIn__sub_object() 0x08008b41   Thumb Code     0  InterruptIn.o(i._ZN4mbed11InterruptInD1Ev)
    mbed::SPI::write(int)                    0x08008b59   Thumb Code    46  SPI.o(i._ZN4mbed3SPI5writeEi)
    mbed::SPI::format(int, int)              0x08008b8d   Thumb Code    32  SPI.o(i._ZN4mbed3SPI6formatEii)
    mbed::SPI::SPI(PinName, PinName, PinName, PinName) 0x08008bb1   Thumb Code    70  SPI.o(i._ZN4mbed3SPIC1E7PinNameS1_S1_S1_)
    mbed::SPI::SPI__sub_object(PinName, PinName, PinName, PinName) 0x08008bb1   Thumb Code     0  SPI.o(i._ZN4mbed3SPIC1E7PinNameS1_S1_S1_)
    mbed::Timer::reset()                     0x08008c01   Thumb Code    18  Timer.o(i._ZN4mbed5Timer5resetEv)
    mbed::Timer::start()                     0x08008c13   Thumb Code    24  Timer.o(i._ZN4mbed5Timer5startEv)
    mbed::Timer::read_us()                   0x08008c2b   Thumb Code    26  Timer.o(i._ZN4mbed5Timer7read_usEv)
    mbed::Timer::Timer()                     0x08008c45   Thumb Code    30  Timer.o(i._ZN4mbed5TimerC1Ev)
    mbed::Timer::Timer__sub_object()         0x08008c45   Thumb Code     0  Timer.o(i._ZN4mbed5TimerC1Ev)
    mbed::Ticker::setup(unsigned)            0x08008c63   Thumb Code    30  Ticker.o(i._ZN4mbed6Ticker5setupEj)
    mbed::Ticker::detach()                   0x08008c81   Thumb Code    16  Ticker.o(i._ZN4mbed6Ticker6detachEv)
    mbed::Ticker::handler()                  0x08008c91   Thumb Code    46  Ticker.o(i._ZN4mbed6Ticker7handlerEv)
    mbed::Ticker::~Ticker()                  0x08008cc1   Thumb Code    22  timer.o(i._ZN4mbed6TickerD1Ev)
    mbed::Ticker::~Ticker__sub_object()      0x08008cc1   Thumb Code     0  timer.o(i._ZN4mbed6TickerD1Ev)
    mbed::Timeout::handler()                 0x08008cdd   Thumb Code    28  Timeout.o(i._ZN4mbed7Timeout7handlerEv)
    mbed::FileBase::getPathType()            0x08008cf9   Thumb Code     4  FileBase.o(i._ZN4mbed8FileBase11getPathTypeEv)
    mbed::FileBase::lookup(const char*, unsigned) 0x08008cfd   Thumb Code    56  FileBase.o(i._ZN4mbed8FileBase6lookupEPKcj)
    mbed::FilePath::fileSystem()             0x08008d39   Thumb Code    26  FilePath.o(i._ZN4mbed8FilePath10fileSystemEv)
    mbed::FilePath::file()                   0x08008d53   Thumb Code    32  FilePath.o(i._ZN4mbed8FilePath4fileEv)
    mbed::FilePath::exists()                 0x08008d73   Thumb Code    10  FilePath.o(i._ZN4mbed8FilePath6existsEv)
    mbed::FilePath::isFile()                 0x08008d7d   Thumb Code    24  FilePath.o(i._ZN4mbed8FilePath6isFileEv)
    mbed::FilePath::fileName()               0x08008d95   Thumb Code     4  FilePath.o(i._ZN4mbed8FilePath8fileNameEv)
    mbed::FilePath::FilePath(const char*)    0x08008d99   Thumb Code    68  FilePath.o(i._ZN4mbed8FilePathC1EPKc)
    mbed::FilePath::FilePath__sub_object(const char*) 0x08008d99   Thumb Code     0  FilePath.o(i._ZN4mbed8FilePathC1EPKc)
    Radio::Radio__sub_object(RadioEvents_t*) 0x08008ddd   Thumb Code     8  radio.o(i._ZN5RadioC2EP13RadioEvents_t)
    VT100::printf(const char*, ...)          0x08008de9   Thumb Code   146  serialdisplay.o(i._ZN5VT1006printfEPKcz)
    VT100::~VT100()                          0x08008e7b   Thumb Code     2  serialdisplay.o(i._ZN5VT100D1Ev)
    VT100::~VT100__sub_object()              0x08008e7b   Thumb Code     0  serialdisplay.o(i._ZN5VT100D1Ev)
    SX1276::SetChannel(unsigned)             0x08008e7d   Thumb Code    74  sx1276.o(i._ZN6SX127610SetChannelEj)
    SX1276::SetRxConfig(ModemType, unsigned, unsigned, unsigned char, unsigned, unsigned short, unsigned short, bool, unsigned char, bool, bool, unsigned char, bool, bool) 0x08008ecd   Thumb Code   818  sx1276.o(i._ZN6SX127611SetRxConfigE9ModemTypejjhjttbhbbhbb)
    SX1276::SetTxConfig(ModemType, signed char, unsigned, unsigned, unsigned, unsigned char, unsigned short, bool, bool, bool, unsigned char, bool, unsigned) 0x0800920d   Thumb Code   810  sx1276.o(i._ZN6SX127611SetTxConfigE9ModemTypeajjjhtbbbhbj)
    SX1276::OnTimeoutIrq()                   0x08009541   Thumb Code   292  sx1276.o(i._ZN6SX127612OnTimeoutIrqEv)
    SX1276::RxChainCalibration()             0x0800967d   Thumb Code   196  sx1276.o(i._ZN6SX127618RxChainCalibrationEv)
    SX1276::SetMaxPayloadLength(ModemType, unsigned char) 0x08009749   Thumb Code    64  sx1276.o(i._ZN6SX127619SetMaxPayloadLengthE9ModemTypeh)
    SX1276::Rx(unsigned)                     0x08009789   Thumb Code   948  sx1276.o(i._ZN6SX12762RxEj)
    SX1276::Tx(unsigned)                     0x08009b6d   Thumb Code   228  sx1276.o(i._ZN6SX12762TxEj)
    SX1276::Init(RadioEvents_t*)             0x08009c59   Thumb Code     4  sx1276.o(i._ZN6SX12764InitEP13RadioEvents_t)
    SX1276::Send(unsigned char*, unsigned char) 0x08009c5d   Thumb Code   318  sx1276.o(i._ZN6SX12764SendEPhh)
    SX1276::Sleep()                          0x08009d9b   Thumb Code    48  sx1276.o(i._ZN6SX12765SleepEv)
    SX1276::Random()                         0x08009dcb   Thumb Code    86  sx1276.o(i._ZN6SX12766RandomEv)
    SX1276::Standby()                        0x08009e21   Thumb Code    48  sx1276.o(i._ZN6SX12767StandbyEv)
    SX1276::SetModem(ModemType)              0x08009e51   Thumb Code   152  sx1276.o(i._ZN6SX12768SetModemE9ModemType)
    SX1276::GetStatus()                      0x08009ee9   Thumb Code    10  sx1276.o(i._ZN6SX12769GetStatusEv)
    SX1276::OnDio0Irq()                      0x08009ef5   Thumb Code  1138  sx1276.o(i._ZN6SX12769OnDio0IrqEv)
    SX1276::OnDio1Irq()                      0x0800a391   Thumb Code   228  sx1276.o(i._ZN6SX12769OnDio1IrqEv)
    SX1276::OnDio2Irq()                      0x0800a479   Thumb Code   240  sx1276.o(i._ZN6SX12769OnDio2IrqEv)
    SX1276::OnDio3Irq()                      0x0800a56d   Thumb Code    90  sx1276.o(i._ZN6SX12769OnDio3IrqEv)
    SX1276::OnDio4Irq()                      0x0800a5c7   Thumb Code    30  sx1276.o(i._ZN6SX12769OnDio4IrqEv)
    SX1276::SetOpMode(unsigned char)         0x0800a5e5   Thumb Code    80  sx1276.o(i._ZN6SX12769SetOpModeEh)
    SX1276::TimeOnAir(ModemType, unsigned char) 0x0800a635   Thumb Code   470  sx1276.o(i._ZN6SX12769TimeOnAirE9ModemTypeh)
    SX1276::SX1276__sub_object(RadioEvents_t*, PinName, PinName, PinName, PinName, PinName, PinName, PinName, PinName, PinName, PinName, PinName) 0x0800a831   Thumb Code   350  sx1276.o(i._ZN6SX1276C2EP13RadioEvents_t7PinNameS2_S2_S2_S2_S2_S2_S2_S2_S2_S2_)
    SX1276::~SX1276()                        0x0800a99d   Thumb Code     0  sx1276.o(i._ZN6SX1276D2Ev)
    SX1276::~SX1276__sub_object()            0x0800a99d   Thumb Code   130  sx1276.o(i._ZN6SX1276D2Ev)
    operator delete[] (void*)                0x0800aa29   Thumb Code     8  array_del.o(i._ZdaPv)
    operator delete (void*)                  0x0800aa31   Thumb Code     8  delete.o(i._ZdlPv)
    operator new[] (unsigned)                0x0800aa39   Thumb Code     8  array_new.o(i._Znaj)
    operator new(unsigned)                   0x0800aa41   Thumb Code    36  new.o(i._Znwj)
    __ARM_common_ll_muluu                    0x0800aa69   Thumb Code    48  btod.o(i.__ARM_common_ll_muluu)
    __ARM_fpclassify                         0x0800aa99   Thumb Code    40  fpclassify.o(i.__ARM_fpclassify)
    __aeabi_vec_ctor_nocookie_nodtor         0x0800aac5   Thumb Code    34  aeabi_vec_ctor_nocookie_nodtor.o(i.__aeabi_vec_ctor_nocookie_nodtor)
    __cxa_pure_virtual                       0x0800aae7   Thumb Code    10  pure_virt.o(i.__cxa_pure_virtual)
    __user_setup_stackheap                   0x0800ac89   Thumb Code    10  sys.o(i.__user_setup_stackheap)
    _is_digit                                0x0800ac99   Thumb Code    14  __printf_wp.o(i._is_digit)
    _sys_close                               0x0800aca9   Thumb Code    38  retarget.o(i._sys_close)
    _sys_flen                                0x0800acd5   Thumb Code    34  retarget.o(i._sys_flen)
    _sys_istty                               0x0800acfd   Thumb Code    34  retarget.o(i._sys_istty)
    _sys_open                                0x0800ad25   Thumb Code   290  retarget.o(i._sys_open)
    _sys_seek                                0x0800ae65   Thumb Code    36  retarget.o(i._sys_seek)
    _sys_write                               0x0800ae8d   Thumb Code    84  retarget.o(i._sys_write)
    ceil                                     0x0800aeed   Thumb Code   180  ceil.o(i.ceil)
    error                                    0x0800afb5   Thumb Code    20  error.o(i.error)
    exit                                     0x0800afcd   Thumb Code    24  retarget.o(i.exit)
    floor                                    0x0800afed   Thumb Code   180  floor.o(i.floor)
    fputc                                    0x0800b0b5   Thumb Code    30  fputc.o(i.fputc)
    get_us_ticker_data                       0x0800b0d5   Thumb Code     4  us_ticker_api.o(i.get_us_ticker_data)
    gpio_dir                                 0x0800b0dd   Thumb Code    44  gpio_api.o(i.gpio_dir)
    gpio_init                                0x0800b129   Thumb Code    56  gpio_api.o(i.gpio_init)
    gpio_init_in                             0x0800b161   Thumb Code    34  gpio.o(i.gpio_init_in)
    gpio_init_out                            0x0800b185   Thumb Code    56  gpio.o(i.gpio_init_out)
    gpio_init_out_ex                         0x0800b1c5   Thumb Code    66  gpio.o(i.gpio_init_out_ex)
    gpio_irq_free                            0x0800b249   Thumb Code    60  gpio_irq_api.o(i.gpio_irq_free)
    gpio_irq_init                            0x0800b28d   Thumb Code   184  gpio_irq_api.o(i.gpio_irq_init)
    gpio_irq_set                             0x0800b38d   Thumb Code   114  gpio_irq_api.o(i.gpio_irq_set)
    gpio_mode                                0x0800b3ff   Thumb Code    14  gpio_api.o(i.gpio_mode)
    $Super$$main                             0x0800b55d   Thumb Code   814  main.o(i.main)
    mbed_assert_internal                     0x0800b8e5   Thumb Code    16  assert.o(i.mbed_assert_internal)
    mbed_die                                 0x0800b929   Thumb Code    16  board.o(i.mbed_die)
    mbed_main                                0x0800b939   Thumb Code     2  retarget.o(i.mbed_main)
    mbed_sdk_init                            0x0800b93b   Thumb Code     8  mbed_overrides.o(i.mbed_sdk_init)
    pin_function                             0x0800b945   Thumb Code    78  pinmap.o(i.pin_function)
    pin_mode                                 0x0800b9b1   Thumb Code    60  pinmap.o(i.pin_mode)
    pinmap_merge                             0x0800ba05   Thumb Code    30  pinmap_common.o(i.pinmap_merge)
    pinmap_peripheral                        0x0800ba39   Thumb Code    60  pinmap_common.o(i.pinmap_peripheral)
    pinmap_pinout                            0x0800ba95   Thumb Code    62  pinmap_common.o(i.pinmap_pinout)
    rint                                     0x0800bae9   Thumb Code     8  rint.o(i.rint)
    serial_baud                              0x0800baf1   Thumb Code    10  serial_api.o(i.serial_baud)
    serial_getc                              0x0800bafd   Thumb Code    26  serial_api.o(i.serial_getc)
    serial_init                              0x0800bb1d   Thumb Code   260  serial_api.o(i.serial_init)
    serial_irq_handler                       0x0800bc69   Thumb Code    14  serial_api.o(i.serial_irq_handler)
    serial_putc                              0x0800bc81   Thumb Code    30  serial_api.o(i.serial_putc)
    serial_readable                          0x0800bca5   Thumb Code    18  serial_api.o(i.serial_readable)
    serial_writable                          0x0800bcbd   Thumb Code    18  serial_api.o(i.serial_writable)
    set_compare                              0x0800bcd5   Thumb Code    18  us_ticker.o(i.set_compare)
    spi_format                               0x0800bcf1   Thumb Code    94  spi_api.o(i.spi_format)
    spi_frequency                            0x0800bd51   Thumb Code   104  spi_api.o(i.spi_frequency)
    spi_init                                 0x0800bde5   Thumb Code   204  spi_api.o(i.spi_init)
    spi_master_write                         0x0800bee9   Thumb Code    50  spi_api.o(i.spi_master_write)
    ticker_insert_event                      0x0800bf21   Thumb Code    58  ticker_api.o(i.ticker_insert_event)
    ticker_irq_handler                       0x0800bf5b   Thumb Code    74  ticker_api.o(i.ticker_irq_handler)
    ticker_read                              0x0800bfa5   Thumb Code     6  ticker_api.o(i.ticker_read)
    ticker_remove_event                      0x0800bfab   Thumb Code    64  ticker_api.o(i.ticker_remove_event)
    ticker_set_handler                       0x0800bfeb   Thumb Code    18  ticker_api.o(i.ticker_set_handler)
    timer_irq_handler                        0x0800bffd   Thumb Code   144  hal_tick.o(i.timer_irq_handler)
